S02000006275696C642F64656275672F6D69637269756D6F735F6E65742E733337E1
S2140000000010002001050000FD040000FD040000B3
S214000010FD040000FD040000FD040000FD040000D7
S214000020FD040000FD040000FD040000FD040000C7
S214000030FD040000FD040000D3EA0100FD040000FA
S214000040FD040000FD040000FD040000FD040000A7
S214000050FD040000FD040000FD040000FD04000097
S214000060FD040000FD040000FD040000FD04000087
S214000070FD040000FD040000FD040000FD04000077
S214000080FD040000FD040000FD040000FD04000067
S214000090FD040000FD040000FD040000FD04000057
S2140000A0FD040000FD040000FD040000FD04000047
S2140000B0FD040000FD040000FD040000F90002003D
S2140000C0FD040000FD040000FD040000FD04000027
S2140000D0FD040000FD040000FD04000065100200A1
S2140000E071100200FD040000FD040000FD04000085
S2140000F0FD040000FD040000FD040000FD040000F7
S214000100FD040000FD040000FD040000FD040000E6
S214000110FD040000FD040000FD040000FD040000D6
S214000120FD040000FD040000FD040000412C00005A
S214000130FD040000FD040000FD040000FD040000B6
S214000140FD040000FD040000FD040000FD040000A6
S21400015010B5054C237833B9044B13B10448AFF3FC
S21400016000800123237010BD9011002000000000C5
S214000170E849020008B5034B1BB103490348AFF337
S214000180008008BD0000000094110020E84902002D
S214000190154B002B08BF134B9D46A3F5803A002154
S2140001A08B460F461348144A121A21F066FC0F4B72
S2140001B0002B00D098470E4B002B00D0984700200D
S2140001C0002104000D000D48002802D00C48AFF3B3
S2140001D0008021F013FC2000290020F087FF21F08A
S2140001E0F9FB00BF0000080000100020000000001F
S2140001F00000000090110020AC6402200000000007
S2140002000000000008B5042201231046194602F03B
S214000210C1F9002008BD08B50422012309210020E9
S21400022002F0B8F9002008BD08B50121054800F025
S2140002309FFB20F067FEFFF7E5FFBDE80840FFF7ED
S214000240EABF00BF00550A000121014800F090BB3C
S21400025000550A002DE9F0411A4E04468846174616
S2140002600FCE86B06D460FC596E8030085E80300FE
S21400027001211548256800F07BFB6068012100F02D
S21400028077FB617B207B0023042202F083F90023A6
S2140002900422617A207A02F07DF928466946CDF874
S2140002A00880ADF8107002F0B7FB237CA27B1B061B
S2140002B043EA0223AB6700200A236B6706B0BDE85B
S2140002C0F08100BF1C2E020000550A0070B50668BB
S2140002D00C468D18AC4201D1002070BD14F8011BED
S2140002E0304602F001FCF5E7026813699B06FCD570
S2140002F07047000013B504461FF0AEFD217B0023B7
S2140003000122CDE900324900034AB0FBF1F103486F
S2140003101FF0E0FC02B010BD21030000AC1100206D
S214000320024B4FF400629A61704700BF008008409D
S21400033073B50E4B0E4E4FF480441C600546407B52
S2140003401FF00EFF02A9042321F8023D02223046C8
S214000350FFF7BCFF3046FFF7C7FFA87B1FF000FF84
S214000360044B00201C6002B070BD00BF6C800846C5
S214000370001000206C80084438B50446012112485D
S214000380124D00F0F5FAA16811480022FFF762FF4F
S214000390002304220E21022002F0FCF8002304228F
S2140003A00B21184602F0F6F894E80F0085E80F00D7
S2140003B0084B012220461A70FFF79CFF2046FFF7E5
S2140003C0B7FF002038BD00BF00550A00C811002046
S2140003D000100020C41100202DE9F04F9946057941
S2140003E00388DFF89CA05D43244B14464FF48042FC
S2140003F01A60013485B0A4B20646407B884604AF36
S2140004001FF0AEFE230243F0010327F8023D02224E
S21400041039461B48FFF75AFF09F1FF33ED104FF03E
S214000420000B01930134CB450DD11548FFF75CFF57
S214000430B07B1FF095FE134B4FF4804200201A60ED
S21400044005B0BDE8F08F2A4641465046FFF73EFF0E
S214000450019B5B451BBF04EB0B0212024FF6FF72BB
S21400046042F0FF02ADF80E20394602225046A8445C
S214000470FFF72CFF0BF1010BD5E700BF6C80084699
S214000480001000206C800844034B04481B78002BA7
S21400049008BF0020704700BFC4110020C81100200C
S2140004A01FB5054B0FCB6C4684E80F002046FFF7C0
S2140004B063FF04B010BD00BF342E020013B514460F
S2140004C052B101AA06F05AF920609DF804000030E7
S2140004D018BF012002B010BD0120FBE7054A0649FF
S2140004E01368184488428CBF4FF0FF3310601846DC
S2140004F0704700BF1410002000000820FEE7000030
S21400050008B500F079F8064B0649074A8B4201D336
S214000510FFF73EFE52F8040F43F8040BF6E700BF61
S2140005200010002090110020EC490200004870479F
S21400053000A24A04174AD2F8943003F00703023B9D
S214000540042B1FD8DFE803F00620031A0800124B1E
S2140005501B680AE0114BFBE79368C3F30443073BB1
S214000560072B14D80E4A52F823300A4AD2F8000154
S214000570C0F304200130B3FBF0F07047094B1B6852
S2140005805B08F2E7074BE3E74FF40043EDE7002391
S214000590EBE700BF00400E40241000201C10002097
S2140005A0442E02002010002008B5FFF7C3FF054BBD
S2140005B0D3F80831C3F308230133B0FBF3F0024B42
S2140005C0186008BD00400E4018100020014B186847
S2140005D0704700BF1C100020054B1860054BD3F871
S2140005E0943003F00703022B01D1FFF7DDBF7047FD
S2140005F01C10002000400E40044B054A9A60D3F8B9
S214000600882042F47002C3F88820704700ED00E0AE
S214000610000000004FF4004070474FF47A707047B7
S214000620014B1868704700BF24100020D0E9000373
S2140006301847036900681847072838B504460D466A
S21400064013D908284FF6FF7318BF00232B41DB078A
S21400065004D440F2E131064800F0A6F8302001212B
S2140006606043044BA940195038BD4FF6FF73EDE7C1
S214000670642E02000C800844072838B504460D4650
S21400068013D908284FF6FF7318BF00232B41DB074A
S21400069004D44FF48261064800F086F83020012129
S2140006A06043044BA940195038BD4FF6FF73EDE781
S2140006B0642E02000C80084610B501210446094845
S2140006C000F056F90121084800F052F9A378207886
S2140006D06178B3FA83F35B09042201F05BFF002024
S2140006E010BD00BF4041050000550A0003460078D3
S2140006F059789B780BB9FFF79FBFFFF7BDBF03463E
S214000700007859789B780BB9FFF7B6BFFFF794BF10
S21400071038B504784578072C16D9082C4FF6FF72A2
S21400072018BF00222A41D30704D440F22B410848C0
S21400073000F03AF83023634303F18043012203F5C7
S2140007400823AA409A6138BD4FF6FF72EAE700BF59
S214000750642E020070B506784478072E05461BD92D
S214000760082E4FF6FF7318BF00232341DB0704D47F
S21400077040F2FB310A4800F017F83022094B72436A
S214000780134404EBC304A400AB782068C0B213B9CA
S214000790B0FA80F0400970BD4FF6FF73E5E700BF82
S2140007A0642E02000C801842FEE700000C4B9842B4
S2140007B010D90C4B984210D9022201230A490B602B
S2140007C00A49D1F8003123F0407343EA0263C1F8C6
S2140007D00031704700221346F0E70122FBE700BF16
S2140007E00048E8010090D0034000C84300400E4097
S2140007F038B54FF08043104C5B68C9B2002304EB59
S214000800C30215798D4203D154F83350854211D274
S2140008100133072BF3D141F22A210848FFF7C4FF22
S21400082003224FF080414B6823F0407343EA026393
S2140008304B6038BD5279F4E7182F0200EC2E020008
S2140008401F2810B5044604D940F225110248FFF7C8
S214000850ABFF0120A04010BDBD2E020038B54FF002
S214000860804441F67133256C2364FFF75FFE002158
S214000870FFF7BEFF0DB10023236438BD044B1B6891
S2140008805B0603D4034A1368002BFCD1704700BFF5
S2140008903C300E40C800C64308B5FFF7EFFF024BDA
S2140008A05868C0F3014008BD00300E40044BD3F832
S2140008B04421D20703D4D3F840211042FBD170471D
S2140008C000400E40B0F5004F38B5054604D340F65C
S2140008D0CB410A48FFF768FF6C1CB4FA84F4C4F1F5
S2140008E01F042046FFF7ACFF0138A84204D040F6AC
S2140008F0D1410248FFF758FF204638BD912E02002E
S2140009004FF0804341F6713270B51E6C1A6405468E
S2140009100C46FFF76DFF104B104A022C08BF13461B
S2140009209D420F4B07D90F4A13600F4B9D4205D8C7
S2140009304FF0884306E00D4A1360F9E7002CF7D124
S2140009404FF08C434FF480521A601EB14FF0804334
S21400095000221A6470BD00BF80D543020024F40054
S214000960020202000001004680F0FA020001004484
S21400097038B5C0F30323013B0E2B39D8DFE803F06C
S2140009803F423838081A1D202435282D38173200E3
S2140009901E4C0023C0F3043513B11846FFF786FF3C
S2140009A004F1047405EBC404A400216038BD0023E0
S2140009B0174CEFE70123174CECE71023164CE9E73A
S2140009C04FF48073154CE5E74FF48033144CE1E7A1
S2140009D081F001010023134CDCE781F001010023C4
S2140009E0114CD7E70023114CD4E70023104CD1E775
S2140009F041F2C7710F48BDE83840FFF7D5BE002367
S214000A000D4CC7E700230D4CC4E700BFB0400E40B6
S214000A10C4400E40E0400E40E8400E40EC400E4021
S214000A20F0400E4060410E4064410E40F0410E40E2
S214000A3050410E40EC2E020000400E40C0400E40DA
S214000A4008B5C0F30313013B0B2B00F2AB80DFE8C5
S214000A5003F0060C101A2024282C668692A5534B09
S214000A60D3F80001C0F3042008BD504BD3F814019E
S214000A70F8E74E4BD3F80001C0F301600130FFF7F2
S214000A80DFFE0138F0E7494BD3F80C01C0F308202D
S214000A90EAE7464BD3F81801F8E7444BD3F81C01B5
S214000AA0F4E7424BD3F80801F0E7414B98422AD0CE
S214000AB00ED8A3F5BA2398422BD003F5703398428C
S214000AC015D041F66B113B48FFF76EFE0020CBE7D2
S214000AD0394B984205D0394B98420ED0384B984245
S214000AE0EFD1324BD3F82001C0F30230C7E72F4BCB
S214000AF0D3F8200100F00F00C1E72C4BD3F82001FB
S214000B00C0F30120BBE7294BD3F82001C0F3031044
S214000B10B5E7264BD3F82001C0F30340AFE7294BD7
S214000B2098420CD003F5A11398420ED0264B98425B
S214000B3012D11E4BD3F8280100F003009FE71B4B91
S214000B40D3F82801C0F3011099E7184BD3F8280111
S214000B50C0F30130043092E741F68F11B3E71B4B28
S214000B60984205D1114BD3F8300100F003007BE723
S214000B7041F69E11A7E7164B984205D0154B9842B2
S214000B8006D041F6B6119EE7084BD3F85C01ECE7B9
S214000B90064BD3F85C01C0F3014065E7034BD3F87E
S214000BA0040173E741F6C3118DE700BF00400E4015
S214000BB080161800EC2E020000362C0080262E0030
S214000BC080002A0090171C0090071A00A009140045
S214000BD0B8003200B900340008B5FFF731FF013025
S214000BE008BD0000C0F30313013B10B50C460B2BE9
S214000BF000F21482DFE813F00C00340045005C00BD
S214000C00700084009800B8005E01CA01D601FE019B
S214000C101F2904D941F6EB11D048FFF7C5FDFFF7B1
S214000C201DFECF48FFF7C2FD00F006FACD4AD2F807
S214000C30003123F4F85343EA0424C2F80041FFF7D6
S214000C40B3FC0446FFF728FE01462046FFF758FE91
S214000C50FFF770FCFFF7AAFDBDE8104000F002BAEF
S214000C601F2904D941F60121BC48FFF79DFDBD4A66
S214000C70D2F8143123F4F85343EA0424C2F814419A
S214000C8010BD4B1EB3F5004F04D340F6DE31B64818
S214000C90FFF78AFDB34AB4FA84F3D2F80041C3F1F1
S214000CA01F0324F0407444EA0364C2F80041E7E7F7
S214000CB0B1F5007F04D341F60E21A848FFF774FD76
S214000CC0A84AD2F80C3123F4FF3323F4807343EAA6
S214000CD00424C2F80C41D3E7B1F5007F04D341F6F3
S214000CE015219E48FFF760FD9E4AD2F8183123F47E
S214000CF0FF3323F4807343EA0424C2F81841BFE7A5
S214000D00B1F5007F04D341F61D219448FFF74CFD52
S214000D10944AD2F81C3123F4FF3323F4807343EA59
S214000D200424C2F81C41ABE7B1F5007F04D341F6BA
S214000D3024218A48FFF738FDFFF790FD894AD2F84C
S214000D40083123F4FF3323F4807343EA0424C2F803
S214000D500841FFF729FC0446FFF79EFD01462046A2
S214000D60BDE81040FFF7CCBD804B98426ED023D82C
S214000D707F4B984240D07F4B984251D0A3F57033BA
S214000D80984240F09080B1F5004F04D941F63621E4
S214000D907248FFF709FD2046FFF794FD0146042040
S214000DA0FFF784FD6F4BD3F8200120F4702040EA53
S214000DB00140C3F8200163E76F4B984205D06F4BA4
S214000DC098425AD06E4B98426DD1B4F5004F04D974
S214000DD041F692216148FFF7E7FC2046FFF772FDD7
S214000DE001460420FFF762FD5E4BD3F8200120F495
S214000DF0E04040EA0130DCE7022904D941F6472109
S214000E005648FFF7D1FC4FF48020FFF74FFD554AB8
S214000E10D2F8303123F003031C43C2F830412FE7E9
S214000E20B1F5004F04D941F664214C48FFF7BCFCED
S214000E302046FFF747FD01460420FFF737FD494BE4
S214000E40D3F8200120F00F000843B2E7B1F5004FB9
S214000E5004D941F673214148FFF7A6FC2046FFF768
S214000E6031FD01460420FFF721FD3E4BD3F820015B
S214000E7020F0F00040EA01109BE7082904D941F66B
S214000E8082213648FFF790FC2046FFF71BFD0146FF
S214000E900420FFF70BFD334BD3F8200120F44070FD
S214000EA040EA012085E74FF4D5512C48BDE81040B4
S214000EB0FFF77ABC334B98421DD003F5A113984236
S214000EC02FD0314B984245D1082904D941F6A921A3
S214000ED02248FFF769FC2046FFF7F4FC0146402055
S214000EE0FFF7E4FC1F4BD3F8280120F0030008436B
S214000EF0C3F82801C4E6082904D941F6B8211748E2
S214000F00FFF752FC2046FFF7DDFC01464020FFF7C6
S214000F10CDFC144BD3F8280120F0300040EA011035
S214000F20E6E7A1F10F03702B04D941F6C7210B4861
S214000F30FFF73AFC2046FFF7C5FC01464020FFF7C6
S214000F40B5FC084BD3F82801043920F4405040EA99
S214000F500130CDE741F6D621A7E700BFEC2E020010
S214000F600148E80100400E40912E0200801618004D
S214000F70A00914008006160000362C0080262E00DD
S214000F8080002A0090171C0090071A00254B9842F4
S214000F9005D102297FF637AF4FF4D75130E741F637
S214000FA0F02182E7204B984205D0204B984212D081
S214000FB041F6093179E7032904D941F6FB211C489B
S214000FC0FFF7F2FB1B4AD2F85C3123F003031C4305
S214000FD0C2F85C4154E6032904D941F603311448AB
S214000FE0FFF7E2FB134AD2F85C3123F4403343EABE
S214000FF00444EDE7B1F5007F04D341F611310C4807
S214001000FFF7D2FB0B4AD2F8043123F4FF3323F464
S214001010807343EA0424C2F8044131E641F61831ED
S21400102043E700BFA0091400B8003200B90034003E
S214001030EC2E020000400E4008B503210648FFF7DC
S214001040D1FD03210548FFF7CDFD03210448BDE887
S2140010500840FFF7C7BD00BF4041050050410700EC
S2140010606041090038B5FFF765FA0546FFF714FC3E
S214001070022814D1164C174B2C44B4FBF3F404B1DD
S214001080013C21461448FFF7ADFD21461348FFF703
S214001090A9FD13482146BDE83840FFF7A3BD114C13
S2140010A0114B2C44B4FBF3F404B1013C21460A482E
S2140010B0FFF798FD21460A48FFF794FD0B490C4BB5
S2140010C02944B1FBF3F101B101390448E3E700BF5D
S2140010D0FF2C3101002D3101404105005041070031
S2140010E0604109007FF0FA0280F0FA02FFA14A048C
S2140010F000A24A0400F00F00013808B50B2800F2E1
S2140011008C80DFE800F006172638343C8A455262A9
S2140011107074494BD3F8943003F00703023B052B59
S21400112077D8DFE803F08387780372050D2008BDC3
S2140011300E20FCE7404BD3F8800000F007000228A2
S214001140F5D0042870D0012808BF032018BF01205E
S214001150EDE7394BD3F8843003F00703013B032B4C
S21400116055D8DFE803F0675802610620DFE7324B08
S214001170D3F88800E1E7304BD3F88C00DDE72E4B40
S2140011801B6F13F0030353D0012B08BF0920DDE7C4
S214001190294BD3F85C3103F03003202B46D0302B9C
S2140011A011D0102B08BF0720D0E7234BD3F85C31B3
S2140011B003F44013B3F5001F38D0B3F5401F02D038
S2140011C0B3F5801FEEE70820B1E71B4BD3F860317C
S2140011D003F00303022B2BD0032B16D0012B0CBFDE
S2140011E004200520A3E7144BD3F86431F0E7124B34
S2140011F0D3F8F03103F00703052B08D8DFE803F037
S214001200051603090B1A0B2091E70A208FE7012029
S2140012108DE705208BE7022089E7084841F617513D
S214001220FFF7C2FA002082E70C2080E704207EE762
S21400123007207CE703207AE700400E40EC2E0200F1
S214001240314B984210B5044608D018D82F4B9C4214
S21400125004D041F22A312E48FFF7A6FA2046FFF7BF
S21400126049FF294B9C4225D00ED8284B9C4215D0CE
S214001270044641F259312648FFF796FA13E0254B0B
S2140012809842EBD0244BE2E7224B9C4216D0224BEE
S2140012909C42EDD1214BD3F8884002E01F4BD3F897
S2140012A0804004F00704042C27D8DFE804F0240B61
S2140012B00F171300194BD3F88440F2E7174BD3F8F7
S2140012C08C40EEE7BDE81040FFF7A4B9BDE810403B
S2140012D0FFF7A6B9BDE81040FFF79FB9FFF72AF958
S2140012E00E4B0446D3F80001C0F301600130FFF74F
S2140012F0A7FAB4FBF0F4204610BD41F2AB31044827
S214001300FFF752FA0024F6E70300200002001E0052
S214001310EC2E0200040022000500240000400E40CF
S214001320012808B514BF12481248FFF7E3FE01383B
S214001330072816D8DFE800F01A1515071515040B50
S2140013400D4B186808BDBDE80840FFF73FB9FFF72A
S214001350F1F80A4BD3F80031C3F3042303FB000073
S214001360F0E741F223110648FFF71EFA0020E9E7EE
S214001370B8003200B90034002810002000400E40AB
S214001380EC2E020038B500F47813B3F5D01F0546EE
S21400139000F0088147D8B3F5402F00F0C4801FD86E
S2140013A0B3F5802F00F0A28009D8002B00F018813A
S2140013B0B3F5003F00F0B18041F6F70116E1B3F552
S2140013C0002F00F09E80B3F5202F00F0A080B3F52C
S2140013D0C02FF1D1FFF7AEF8B44BD3F818318AE03E
S2140013E0B3F5901F00F0A78009D8B3F5602F00F082
S2140013F0EF80B3F5801FDFD1AD4B186880E0B3F502
S214001400B01F00F0A280B3F5C01F00F0AC80B3F5AB
S214001410A01FD1D1A748FFF713FFA44BD3F8303154
S21400142003F003038FE0B3F5381F00F0B0801DD83B
S214001430B3F5001F00F0B4800BD8B3F5E01F00F042
S214001440BB80B3F5F01FB7D19B48BDE83840FFF727
S214001450F7BEB3F5201F00F0B980B3F5281F00F0E3
S2140014608C80B3F5101FA7D19248EEE7B3F5581F4E
S21400147000F0D38015D8B3F5481F00F0BC80B3F554
S214001480501F00F0C180B3F5401F95D18B48FFF781
S214001490D7FE864B0446D3F82801C0F3013004304B
S2140014A05CE0B3F5681F00F0D580B3F5781F00F058
S2140014B0F580B3F5601F7FF47FAF8148FFF71AFE13
S2140014C00438062800F2C38001A353F820F000BFBA
S2140014D073160000831600004F160000F913000074
S2140014E04F1600004F1600006F160000FFF722F898
S2140014F06E4BD3F80C31C3F308230133B0FBF3F083
S21400150038BDFFF717F8694BD3F81C31F3E7FFF740
S21400151011F8664BD3F80431EDE7FFF70BF8634B91
S214001520D3F80831E7E7FFF705F8604BD3F8143136
S214001530C3F30423E1E76048FFF782FE5B4BD3F872
S2140015402031C3F30343D840DAE75B48FFF778FE61
S214001550564B0446D3F8200100F00F00FFF770F951
S214001560B4FBF0F0CCE75448FFF76AFE4F4B044656
S214001570D3F82001C0F30310F0E74F48FFF760FEF2
S2140015804A4B0446D3F82001C0F30230E6E74A4847
S214001590FFF756FE454BD3F82031C3F30123D2E7BD
S2140015A0464852E74548FFF74BFE404B0446D3F803
S2140015B0280100F00300D1E74048FFF741FE3B4B0F
S2140015C00446D3F82801C0F30110C7E73D483CE7BE
S2140015D03D48FFF78FFD07283FF40EAF092803D1DB
S2140015E0BDE83840FEF7A6BF41F2EC013748FFF7EA
S2140015F0DBF8002084E70020FFF792FE2B4BD3F8A1
S2140016005C3103F0030378E70120FFF789FE274BE0
S214001610D3F85C31C3F301436FE72D48FFF76AFD4B
S2140016200438062810D801A353F820F073160000DB
S2140016308316000049160000F91300004916000042
S214001640491600006F16000041F24D11CEE741F238
S2140016507F11CBE71F48FFF74DFD023809281AD83F
S214001660DFE800F01115070F19191919050B1A4BA9
S214001670C3E6BDE83840FEF7A9BFFEF7A7FF400067
S2140016803EE7164BB9E6BDE83840FEF7C9BFBDE8F1
S2140016903840FEF7BFBF41F2D611A7E7FEF74AFF74
S2140016A004462846FFF798FA5AE700BF00400E4067
S2140016B0281000200500240002001E000300200061
S2140016C00B7C38000400220006000E00EC2E020000
S2140016D00A7B36000C7F3A003010002020100020D5
S2140016E0014B1880704700BF2C100020022838B528
S2140016F00D4604D042F27F510C48FFF755F80C4CCB
S214001700626AC2F30112012A0DD065B142F29A5103
S2140017100648FFF749F8074BD4F8902033EA020250
S214001720FAD1012038BD4FF48003F5E7EC2E020015
S21400173000400E40FF3F473A2DE9F04107460E466F
S2140017409046052814D8DFE800F003961F1A910C7F
S2140017504FF400704FF4807408210923002E70D0D7
S21400176066E04FF400604FF480640A210B23F5E72F
S21400177042F264414248BDE8F041FFF715B8012443
S214001780022000212346E9E7002957D03D4C636A32
S214001790C3F30113012B48D13B4BDB6B5B0504D431
S2140017A042F273413648FEF7FFFF636A03F0030315
S2140017B0032B3FD1626A22F0300242F020026262BE
S2140017C002210424314D2F4A2944146689000A68F0
S2140017D0002AFCD0B8F1000F25D01D44AD002B68C0
S2140017E0002BFCD0022F1ED1EEB1264B5B6A03F015
S2140017F00303032B03D000213846FFF777FF42F29E
S214001800F0411F48FEF7D0FF012200210220FFF71B
S21400181093FF42F267511A48FEF7C6FF194B1C6643
S2140018202B68002BFCD0BDE8F081042402210323A2
S2140018300026C7E7042402210323C3E70820022169
S2140018400323104A1066012000FA01F1D2F8900036
S2140018500842FBD1B8F1000FE5D00122094902FA8F
S21400186003F3D1F890201A42FBD1DCE720201024A5
S2140018700421052372E780204024062107236DE714
S214001880EC2E020000400E4000300E408004F210A5
S214001890112870B506460C4636D104291BD1FEF732
S2140018A095FE0546F0B10021284600F08DFB06F0B7
S2140018B00F06013E0B2E00F2F781DFE816F0270038
S2140018C07F00C1009B00BD00D900F501E7000E01B6
S2140018D033017701A701052904D1AA4B1D68AA4B3D
S2140018E09D42E0D8023C0C2C57D8DFE814F01B00D1
S2140018F05D00410048005600560056005600610044
S21400190056004F005900E2010025D0E7023C0C2C9F
S21400191043D8DFE804F0084A2E35424242424E429F
S2140019203B46510000250020042401221146FFF703
S21400193003FFFEF793FFFFF77FFB0DB1FEF79EFF59
S214001940924B5C67FEF730FE0446FEF7F3FDFEF7AB
S2140019502DFFFEF7A1FF01462046FEF7D1FF1DB979
S2140019600121284600F030FBBDE87040FFF77ABB47
S21400197000258748FEF71AFF02200446D5E7002513
S2140019808348FEF713FF01240320CEE741F6D85123
S2140019908048BDE87040FEF707BF41F6DD51F7E727
S2140019A0002503200524C0E7002501200324BCE70A
S2140019B0002505200624B8E70724BAE7062C40F0E1
S2140019C0768141F61C617348734DFEF7EDFE41F6D5
S2140019D024617048FEF7E8FE41F62C616D48FEF77C
S2140019E0E3FEFEF7A7FDFEF7E1FE6C4B01221A6050
S2140019F0032328E0062C6A4DE9D0013C0B2C32D894
S214001A0001A353F824F000BF6D1A00004B1A000023
S214001A10591A0000671A0000671A0000E319000050
S214001A20671A0000671A0000671A0000671A0000AD
S214001A30671A0000451A0000062C5A4DDDD1CBE788
S214001A40594DDAE704232B6070BD012211460020B1
S214001A50FFF772FE0223F6E7012211461046FFF753
S214001A606BFE0123EFE741F6576191E70023EAE7B3
S214001A70072C04D0092C06D041F6E16188E7434BD9
S214001A8000221A67E0E7414B0122FAE7013C072CE7
S214001A901ED8DFE804F0201D1D161D1D0F040322AE
S214001AA03A49D1F85C3123F0300343EA0213C1F817
S214001AB05C31C9E7012211460420FFF73DFE0122F2
S214001AC0EEE7012211460220FFF736FE0222E7E784
S214001AD041F63F715CE70022E2E7013C072C1CD888
S214001AE0DFE804F01E1B1B141B1B0D0403222749F2
S214001AF0D1F85C3123F4401343EA0253D7E70122BE
S214001B0011460420FFF718FE0122F0E701221146D5
S214001B100220FFF711FE0222E9E741F6627137E77D
S214001B200022E4E7043C062C29D8DFE804F013047E
S214001B30281A28282100012211460320FFF7FCFD61
S214001B4000221249D1F8603123F003031343C1F891
S214001B50603179E7012211460220FFF7EDFD0122F0
S214001B60EFE7012211460420FFF7E6FD0222E8E730
S214001B70012211460520FFF7DFFD0322E1E741F6CB
S214001B80897105E720100020002D310100400E402D
S214001B900148E801EC2E020080400E400016C843C3
S214001BA08C400E4088400E4084400E40043C062C7C
S214001BB029D8DFE804F01304281A28282100012277
S214001BC011460320FFF7B8FD00223D49D1F86431E5
S214001BD023F003031343C1F8643135E701221146AD
S214001BE00220FFF7A9FD0122EFE70122114604209B
S214001BF0FFF7A2FD0222E8E7012211460520FFF7C3
S214001C009BFD0322E1E741F6B071C1E6023C092CD8
S214001C1047D8DFE804F0383F143146464646051BF1
S214001C20012211460520FFF787FD00232449D1F83D
S214001C30F02122F007021343C1F8F03104E7012235
S214001C4011460220FFF778FD0123EFE7FEF7BEFC02
S214001C501C4B984204D941F6CB711B48FEF7A4FDF5
S214001C60174A536A43F008035362012211460220C2
S214001C70FFF762FD0223D9E7012211460320FFF792
S214001C805BFD0323D2E7012211460020FFF754FD37
S214001C900423CBE7012211461046FFF74DFD05232E
S214001CA0C4E741F6EA7173E642F2160170E6074DA4
S214001CB0A3E6FEF7D3FD0025FFF7BEF907243FE6AF
S214001CC000400E4040787D01EC2E020080400E4021
S214001CD038B505461120FFF70DFA042804D142F264
S214001CE0FF211F48FEF760FD012200210220FFF7BA
S214001CF023FDEB7A012B03D030D3022B29D103230B
S214001D00184C626A22F0030213436362FEF75EFC1D
S214001D10154B2A88984294BF08200020636A23F057
S214001D2008031843AB88606243EAC223E362236B6E
S214001D30EA881B0D1B0513436A8843EAC223236304
S214001D406B7A2A7A1B0143EA0233AA7A1343636347
S214001D5038BD42F213310248FEF726FD0023CFE7D6
S214001D60EC2E020000400E4040787D0170B505461E
S214001D701120FFF7BFF9022804D142F2BD310E4808
S214001D80FEF712FD0D4E0E4BB26B2C7813401C4323
S214001D906B7844EAC324AB7844EA0364EB7844EAFD
S214001DA00324B36BA34205D0002101220846FFF7A7
S214001DB0C3FCB46370BD00BFEC2E020000400E40B2
S214001DC080E4FFF8EFF3108072B6704700B962B691
S214001DD07047EFF31180602383F31188704780F318
S214001DE011887047034B5868C0F30800003018BFCE
S214001DF00120704700ED00E0034B186880F04000BB
S214001E00C0F38010704700BF3C300E4038B542EA41
S214001E10032340F20112934205460C4630D0B3F538
S214001E20817F0DD2012B22D035D3B3F5807F36D0FB
S214001E3040F639111E48FEF7B7FC002213461CE098
S214001E4040F20122934222D006D8B3F5007FEFD1AC
S214001E50184BD3F870310DE0B3F5407F23D040F235
S214001E6001329342E4D1134BD3F878310BE0114B97
S214001E70D3F87431C3F30722DBB22B60226038BD7F
S214001E800C4BD3F874311A0EC3F30743F5E7094B2E
S214001E90D3F87831EEE7074BD3F86C31EAE7054B19
S214001EA0D3F86C31EFE7034BD3F87031EBE700BFA4
S214001EB0502F0200B081E00F08B5FFF79DFF18B164
S214001EC0024A1368002BFCD108BD00BFC800C643F9
S214001ED01A4B022810B5D3F880310C4612D00328CE
S214001EE013D0012814BFDBB2C3F307231B0323F46C
S214001EF07042ECB95AB140F6C8011148FEF754FCDE
S214001F00002010BDC3F30743F0E71B0EEEE70D49B4
S214001F10CA6E22F470421343CB660120F1E70949EA
S214001F20D1F8EC2022F470421343C1F8EC30F4E709
S214001F30002AF4D040F6D401DFE700BFB081E00FFE
S214001F40502F020000300E40F8B504460F46FFF74B
S214001F5053FF78B3FFF7B0FF174B5B68C3F301433B
S214001F609C4227D0154BD3F80051FEF7E3FA022C1B
S214001F7006460FD1C5F30425114B05FB00059D420F
S214001F8004D940F2DC510F48FEF70EFC0221304621
S214001F90FEF7B6FCC4F1020210239340064A136112
S214001FA00FB1FFF789FF2CB921463046BDE8F8404F
S214001FB0FEF7A6BCF8BD00BF00300E4000400E4045
S214001FC0002D3101502F020038B502460D46FFF7AE
S214001FD013FFB8B142B90C4BD3F80041FEF7AAFA8A
S214001FE0C4F3042202FB0002084B1B7829463BB1CF
S214001FF0074B9A4204D80220BDE83840FFF7A4BF3A
S2140020000020F9E738BD00BF00400E40DE1100207A
S214002010002D31010378134A002B437870B514BFA6
S21400202004260026002B8378946914BF0225002519
S214002030002B037924F03F0443EA0403C47814BF5A
S21400204008210021012C08BF43F0010333432B4332
S2140020500B4393611368417923F4403343EA014309
S214002060136070BD00300E40224B4AF6E85210B5A1
S214002070596B5A639A6FD407FCD41B6C13F0030396
S2140020801EBF1D4A01241460834203D108B91A4BAF
S214002090186010BD032B17D0B3B1164A1446936FC1
S2140020A0DB07FCD4136C23F0030303431364A36F12
S2140020B013F00103FBD100300F4A18BF012001299D
S2140020C0106008BF6363E4E7431E012BE5D8094BA5
S2140020D04FF40022DA629A6FD207FCD41A6C22F010
S2140020E0030242F001021A64024A536A1C03FCD53A
S2140020F0D3E700BF00300E40B40AC6432DE9F04FC8
S214002100A0F5E16389B00027B3F5966F0546019107
S2140021109346CDE90277CDE90477CDE9067705D970
S21400212040F699215548FEF73FFB59E0544BB0F571
S214002130E16F8CBF4FF0010A4FF0000AD3F8683108
S21400214052D01A0EC3F30743079204934FF49669CE
S2140021504FF4E164DFF82C81D8F84C70C7F30177B0
S2140021603B46524605A902A8FFF750FED8F8EC6099
S214002170C6F301263346524606A903A8FFF746FED5
S2140021800798049A2C1B811A6143B1FBF9F3D11806
S2140021902CBF0123002388421CD3DBB9069A039880
S2140021A0131A6343B3FBF9F310EB030A2CBF0123A6
S2140021B0002352450ED36BB9059B029A981A4443E6
S2140021C0B4FBF9F912EB09092CBF012000204B459E
S2140021D000D398B140F6E7212848FEF7E5FA002735
S2140021E0384609B0BDE8F08FC3F30722DBB207928A
S2140021F004934FF416794FF49664ABE7BBF1000FE7
S2140022000ED0D8F85C3023F4FE4323F00203B5F575
S214002210E16F43EA012318BF02200343C8F85C308D
S214002220019B43B338460021FFF752FE074610B91C
S21400223040F6F62176E701213046FFF749FE0746CD
S21400224010B940F6FE216DE70E4A536ED14538BFF1
S214002250D14623F4FF73B9F1E70F23F0010328BF3B
S2140022604FF0E709B5F5E16F18BF43F0010343EA05
S21400227049035366B4E70127B2E700BF502F0200B8
S214002280B081E00F00300E40324A08B5136FD16CB3
S214002290C90703F0070342D5012B40D9132857D9A5
S2140022A0143813288CBF102308232A49013BCA6C14
S2140022B0180322F47F4240EA03231343CB64264BE1
S2140022C0CA6C1B88C2F303222833013202EB820059
S2140022D003EB5303B3FBF0F3C86C013B072B20F072
S2140022E0EE6028BF072340F4801040EA0363CB6407
S2140022F01A4BB3F90030002B10DB2833500800EBE4
S214002300420203EB5303B3FBF2F30A6D072B28BF1D
S214002310072322F0700242EA03130B6508BDD26C55
S214002320D10706D4012B04D8092811D90A38092860
S214002330B8E7084AD26CD20703D5012B01D8272864
S214002340B0E740F63C310648FEF72EFA0023ACE72D
S2140023500423AAE700300E40DA110020DC1100202A
S214002360502F02000B4B1B6810B5044633B90128EA
S21400237004D940F65B310848FEF716FA074B186F8B
S21400238020F0070020431867054BBDE8104018886A
S214002390FFF77ABF8009C643502F020000300E4078
S2140023A0D811002038B50389C82B044604D94FF449
S2140023B020614F48FEF7F8F9A28823899A4204D98B
S2140023C040F601214A48FEF7EFF9B4F90C30C82B65
S2140023D004DD40F602214648FEF7E6F96378012B55
S2140023E054D1A388C82B04D940F606214048FEF7EE
S2140023F0DBF9E28842F210739A4204D940F61321C0
S2140024003B48FEF7D1F9E3884A2B47D9B3F5FA7F64
S21400241046D340F6C3118B4294BF4FF000514FF0A5
S21400242040513448B4F90C50C36CA28823F0405392
S21400243023F00103002DA8BF43F001030B43C36440
S214002440D0F8EC3043F44073C0F8EC302A4B1A80D6
S214002450C36E43F08073C366284B186800B104202F
S214002460FFF780FF264B21891980264BB4F90C20F4
S214002470A0881A80FFF708FFA37BA3B1012B23D007
S21400248040F679011A48FEF78FF90FE0022BB0D11B
S214002490A3880A2BADD940F60B21A7E70021C0E799
S2140024A04FF08051BDE7134B174A9A65012211463B
S2140024B06088FFF723FE054648B940F64A210C48D7
S2140024C0FEF772F9284638BD0A4B104AEDE7094A6E
S2140024D06078D36B43F48063D363FFF7C5FDA37ABC
S2140024E0A3F1200253425341094A1360EAE700BFB2
S2140024F0502F020000300E40D81100208009C6433D
S214002500DA110020DC11002077402057372110B761
S2140025109407C643072838B504460D4613D908283D
S2140025204FF6FF7318BF00232B41DB0704D44FF48C
S21400253082610648FEF738F9302001216043044BDB
S214002540A940195038BD4FF6FF73EDE7642E020020
S2140025500C800846072838B504460D4613D90828C7
S2140025604FF6FF7318BF00232B41DB0704D440F25D
S214002570E1310648FEF718F9302001216043044B8C
S214002580A940195038BD4FF6FF73EDE7642E0200E0
S2140025900C8008440728F8B504460D4616461F4624
S2140025A02CD908284FF6FF7318BF00232B41DB07F2
S2140025B004D440F21D111E48FEF7F6F826B129464F
S2140025C02046F7B1FFF7A6FF3023634303F18043AD
S2140025D0072D03F5082317D85A68A9000F2088404E
S2140025E022EA000206FA01F10A435A60F6B92946C1
S2140025F02046BFB1BDE8F840FFF78CBF4FF6FF732B
S214002600D4E7FFF7A7FFDFE705F18042083A9968AD
S21400261092000F20904021EA000106FA02F20A43D7
S2140026209A60E3E7BDE8F840FFF794BFF8BD00BF47
S2140026307C2F0200022838B504460D4603D94C21EB
S2140026401048FEF7B1F86B791F2B03D951210D48BE
S214002650FEF7AAF8AB786A789B0143EA82032A78E9
S2140026601343EA7843EA02132A7943EAC2236A79D3
S21400267043EA0233AA79043443EA42432401024A75
S214002680135138BDA92F020000200640014B1860E8
S214002690704700BF0000C442427801790378002AE0
S2140026A0827870B514BF04260026002AC27814BFAC
S2140026B010250025002A42794FEA023242EA01221A
S2140026C042EA0302837942EA8332C37914BF2024A4
S2140026D00024002B037A42EA034343EA0603427AC5
S2140026E043EA050314BF4FF4004100212343002AA8
S2140026F014BF4FF4003200220B431343014A136009
S21400270070BD00BF002006402DE9F0410646884611
S2140027101D46174622B94FF4A1713048FEF744F81B
S214002720B8F1000F07D12E4B9E420CBF2D482E4805
S214002730FEF728FE8046202D3AD007D8A5B140F2F5
S21400274089112648BDE8F041FEF72EB8402D39D055
S214002750602DF4D1B7EB980F04D940F283111F48CF
S214002760FEF722F8042208E0B7EB181F04D94FF44E
S214002770BA711A48FEF718F810227A43540804EB88
S21400278048141A4FB4FBF2F4203CE400BC4204D9CF
S21400279040F29F111148FEF707F8336823F06003F4
S2140027A0336033683C401D4335607461BDE8F0819A
S2140027B0B7EBD80F04D940F279110848FDF7F4FFBB
S2140027C00822DAE70624B8FBF4F3BB4204D24FF43F
S2140027D0BF710248FDF7E8FF2246CEE7D62F02007B
S2140027E0000801405041070040410500F8FF7F0007
S2140027F070B506460C46154622B940F286210D48AD
S214002800FDF7D2FF3CB90C4B9E420CBF0B480C4860
S214002810FEF7B8FD0446013C6D00B4FBF5F4240257
S214002820E30DDB0523B140F2A3210248FDF7BCFF10
S214002830746170BDD62F02000008014050410700A9
S2140028404041050038B5164B984204460D4620D048
S21400285003F5806398421CD003F58063984218D035
S21400286003F58063984214D003F58063984210D035
S21400287003F5806398420CD003F53053984208D095
S21400288003F58063984204D040F2BE210548FDF768
S2140028908BFFEB435B0003F00A03E360E56038BDA3
S2140028A000000140D62F020038B5254B254D984232
S2140028B004461ED0A8421CD003F50063984218D0E8
S2140028C003F58063984214D003F58063984210D0D5
S2140028D003F5806398420CD003F53053984208D035
S2140028E003F58063984204D040F22B411648FDF76A
S2140028F05BFF40F6AA63E36041F205020023236013
S2140029006260124AA3606361E364A2640C4A2366B1
S21400291094426367A367E36703D002F500629442BC
S21400292000D12365AC42A36506D0094B9C4203D078
S21400293003F580639C4201D10023E36538BD00BFE8
S2140029400000014000040140D62F0200F9FF0100FC
S214002950000C014038B52E4B984204460D4620D058
S21400296003F5806398421CD003F58063984218D024
S21400297003F58063984214D003F58063984210D024
S21400298003F5806398420CD003F53053984208D084
S21400299003F58063984204D040F2EF211D48FDF70E
S2140029A003FF2046FFF780FFAB7C1BB1236843F094
S2140029B080432360EB7C1BB12B7D43F08003A36533
S2140029C02A8A6B7B1343EA8913436360D5E90112B5
S2140029D02B7B2046FFF798FE6B7D1BB1236843F4E4
S2140029E080332360AB7DEA7D1B07120502F4E0020C
S2140029F003F0E04313432366636F23F030036367FB
S214002A00626F2B7E134363672B78E36038BD00BF8D
S214002A1000000140D62F020038B52E4B98420446DF
S214002A200D4618D003F58063984214D003F58063F2
S214002A30984210D003F5806398420CD003F580636B
S214002A40984208D003F58063984204D040F256318D
S214002A502148FDF7A9FE2046FFF726FFA97B2A8A14
S214002A602368002942F0010214BF4FF48061002160
S214002A7013430B432A7D23602368002A14BF4FF0BC
S214002A800052002213432360AB7C1BB1EB7C43F067
S214002A908003A3652B7B43F480536360D5E9011262
S214002AA02046FFF7A5FE6B7B0BB11023E3606B7D22
S214002AB01BB1236843F480332360AB7DEA7D1B079C
S214002AC0120503F0E04302F4E002134323662B787A
S214002AD0E36038BD00000140D62F020003691B06E4
S214002AE0FCD5C069C0B2704703695B06FCD541637C
S214002AF070470000034B42781A70034B4FF0006299
S214002B005A6070473410002000E100E00020087092
S214002B107047000013B500230C4601220B2103204A
S214002B20FFF738FD0023042207210520FFF732FDBA
S214002B300023042206210520FFF72CFD0023042293
S214002B4008210520FFF726FD002301220921032086
S214002B50FFF720FD0023012209210520FFF71AFDBB
S214002B60002301220C210320FFF714FD144B154A05
S214002B70C3F80C2C1122C3F8002C0D21C3F8002C2E
S214002B80032000230422FFF705FD002304220E2164
S214002B900320FFF7FFFC012304220A210820FFF789
S214002BA0F9FC0721012308460422FFF7F3FC01AADB
S214002BB000211E2004F02EF90023237002B010BD61
S214002BC0004002400000010138B51848184C0D4678
S214002BD00121FDF7CDFE01211648FDF7C9FE0121B2
S214002BE01548FDF7C5FED4F890301B0701D400F059
S214002BF0F7FF002304220A210320FFF7CBFC2368FB
S214002C0043F4C05323604FF4A023C4F87431D4F8BF
S214002C10703143F00403C4F87031084B4FF400726F
S214002C20C3F8102C00232B7038BD00BF40410500B0
S214002C3000400E400035020000550A0000400240E9
S214002C4007B501F0F4FE054B01AA012118780BF038
S214002C5021F801F0EFFE03B05DF804FB341000200D
S214002C60034B1B6813B1034800F060BF704700BFFA
S214002C705C300200783002002DE9F84F044608B9AF
S214002C8000F0AEFF404E337A012B354602D10823C2
S214002C902370FEE7FF2B02D108232370FEE7717A2C
S214002CA03068013100F03CFEB17A8346013170682D
S214002CB000F036FE737A5B45814602D20823237005
S214002CC0FEE7B37A834202D208232370FEE7234648
S214002CD0F1682E482E4E0C2200F038FD2378306026
S214002CE00746002B4ED12A7AE968012302EB4202FE
S214002CF0036092002346274800F028FDB860277836
S214002D00002F3FD13368D3F808A02B7A5FFA87F8F4
S214002D1043451BD82968DAF800005A4600F00CFE36
S214002D20336869689B684A46986800F005FE35680F
S214002D301948AB684FF000425A601A68174B0021DA
S214002D401A60224600F072F968601BE00C2303FB51
S214002D5008F86A7AE9681248234600F0F7FC2378F8
S214002D604AF8080073B93368AA7A9B68E9680D4880
S214002D709844234600F0EAFC2378C8F80800013798
S214002D80002BBFD0BDE8F88F381000208930020035
S214002D90E011002095300200DF300200E411002030
S214002DA0AA300200C53002000023036070470368A3
S214002DB00B6001607047036813B90B6001607047D1
S214002DC01846F8E703681BB11A68026000221A600A
S214002DD0184670470B68036008607047036803B9BD
S214002DE0FEE78B4202D10B68036070471846F5E792
S214002DF0094B012210B51A70044608B900F0F0FE1F
S214002E000023237000F092FC00F0CCFA2046BDE8C8
S214002E10104000F0F5BD00BFEC110020014B186813
S214002E20704700BFE81100202DE9FF41044608B9AD
S214002E3000F0D6FE00232370204601F011FE237812
S214002E402BB1204604B0BDE8F04102F0E5BA2B4EA7
S214002E503368002BF5D1FFF7E1FF23460146054610
S214002E60B422274800F072FC237830600146002B1D
S214002E70E7D14FF0FF380427CDE901380394342317
S214002E8000972A461F4800F093FC2378002BD8D1E1
S214002E9031681D48CDE90073CDE9028428232A460F
S214002EA0243100F085FC2378002BCAD131681748FE
S214002EB0CDE90073CDE9028438232A466C3100F050
S214002EC077FC2378002BBCD131681148CDE900731C
S214002ED0CDE9028401232A46903100F069FC23786C
S214002EE0002BAED131680B48CDE90073CDE90284E2
S214002EF024232A46483100F05BFCA2E7F0110020AC
S214002F00EF30020001310200103102001D310200D4
S214002F102A3102003C31020016288CBF0020012016
S214002F20704700002DE9F7430A9D80460C46174679
S214002F301E460DB900F054FE3F2F02D808232B7012
S214002F40FEE716B107232B70FEE71A4B1B6843B942
S214002F502846FFF769FF2B781BB1002003B0BDE8B9
S214002F60F083FFF75BFFBA008146C4B90823014629
S214002F70CDE90045104800F001FC2B780646002BF2
S214002F80EBD12B46F82249460C4800F0DFFB2B78A5
S214002F90002BE2D1C0E93B67C0F8F480DEE714F00E
S214002FA0070324F0070618BF08231E441444A41B76
S214002FB0A708E6E7F0110020543102006131020054
S214002FC02DE9F0438BB0DDE9126504460F469046C6
S214002FD099460DB900F004FE17B90A232B70FEE7D8
S214002FE014B90A232B70FEE716B107232B70FEE7F1
S214002FF00323D4F8F0100391CDE90663CDE9046607
S2140030000A20089548436423B0FBF3F00290D4F8F6
S214003010EC30CDE900933A464346D4F8F410204607
S21400302003F0C0FC0BB0BDE8F08300002DE9F341CF
S21400303080460C4616460AB900F0D2FD164F3B688D
S21400304043B93046FFF7F0FE33781BB1002002B0DC
S214003050BDE8F0813146386800F0D0FB337805468D
S214003060002BF3D13246414602F0B4FD33783BB92B
S21400307014B1247804F0010485F830402846E6E7C9
S21400308001AA2946386800F01FFC9DF804300BB1F1
S21400309000F0A6FD0025F1E7F011002038B5054642
S2140030A00C4609B900F09CFD15B90A232370FEE70B
S2140030B022460021284602F081FE2378232B05D1E4
S2140030C095F83030DB0744BF0023237038BD00007E
S2140030D013B5044600B9FEE701AA012102F0E0FD9F
S2140030E09DF804300BB100F07BFD064B01AA186872
S2140030F0214600F0E9FB9DF804300BB100F070FDAE
S21400310002B010BDF0110020F7B507460D46144674
S2140031100AB900F065FD15B107232370FEE7144ECB
S21400312033683BB92046FFF77FFE237813B10020B3
S21400313003B0F0BD30682146243000F05FFB2278F3
S2140031400546002AF3D12346394603F0CDF8237806
S2140031505BB1306801AA2946243000F0B5FB9DF823
S21400316004300BB100F03CFD00252846E0E700BF28
S214003170F011002070B505460E4614460AB900F058
S2140031802FFD15B90A232370FEE716B10823237016
S214003190FEE7224631462846BDE8704002F0FEBFF4
S2140031A038B505460C4609B900F01AFD15B90A23CC
S2140031B02370FEE722464FF48071284602F09CFFFB
S2140031C02378242B04BF0023237038BD70B5054632
S2140031D00E4614460AB900F003FD15B90A232370FB
S2140031E0FEE7224631462846BDE8704003F034B874
S2140031F013B5044600B9FEE701AA012103F0C4F89E
S2140032009DF804300BB100F0EBFC074B186801AAE0
S2140032102146243000F058FB9DF804300BB100F036
S214003220DFFC02B010BD00BFF011002038B5044628
S21400323008B900F0D5FC204603F0AEFE237805461C
S2140032400BB100F0CDFC284638BD07B501A803F049
S214003250D9FD03B05DF804FB10B50446FFF7F5FF93
S21400326060434FF47A7300F2E730B0FBF3F010BD22
S214003270F0B5064685B00F4615461C460BB900F05D
S214003280AFFC16B90A232370FEE717F0FE0F02D034
S21400329008232370FEE728460DB1FFF7DDFF002F59
S2140032A04FF000030CBF1A464FF40042014600944C
S2140032B0304602F0B1FB2378232B06D196F8301067
S2140032C011F0010103D00023237005B0F0BD03AA5E
S2140032D0304602F073FD9DF80C30232BF5D000F03D
S2140032E07FFCF2E7F7B506460F4614461D460BB9B7
S2140032F000F076FC16B90A232B70FEE717F0FE0FD7
S21400330002D008232B70FEE720460CB1FFF7A4FF7F
S214003310002F4FF000030146009514BF4FF4004203
S2140033201A46304602F056FE03B0F0BD07B5FFF76A
S21400333093FF40B101AA002103F06CFD9DF8043014
S2140033400BB100F04DFC03B05DF804FB10B504466D
S214003350FEF73FFD024B1C60BDE81040FEF73FBD88
S214003360F411002010B5FEF734FD074B07491C6822
S21400337043F2390201FB042424F000441C60FEF7EB
S2140033802EFD204610BD00BFF41100206D4EC64134
S214003390034B43F2390203FB002020F00040704745
S2140033A06D4EC6410120FFF7D1BF2DE9F04780469C
S2140033B014469946DDE908768A4611B90823337023
S2140033C0FEE72AB1531E134202D008233370FEE7ED
S2140033D0FEF7FFFC002C08BF04244C4538BF4C46C3
S2140033E0D8F80850D8F80410631E62422B4202EA4E
S2140033F0050208BF00241444C9F10003A24403EAEE
S2140034000A0209F1FF3313EA0A0F08BF4FF000095A
S21400341002EB090301314A1B591B8A420FD20FB136
S214003420891A3960162333700024337863B1FEF7A7
S214003430D6FC1623337000242046BDE8F087C8F873
S214003440083000233370F0E7FEF7C9FCF4E72DE9F7
S214003450F04F87B0044688461E46DDF840B0129FFF
S214003460914612B908233B70FEE7119B591C04D005
S2140034705B4502D208233B70FEE73EB1731E334223
S21400348001D1032E03D808233B70FEE704262078DC
S21400349082075DD519F0030329F0030518BF04233E
S2140034A00435EB180393BBF1000F7DD010F001003C
S2140034B054D0D8F81020B24238BF3246039B039D42
S2140034C051421940531E2B4018BF134601EB030A06
S2140034D00AFB0B51A1EB0A0158B1D8F8103003F1E2
S2140034E0FF3C58421CEA010F00EA010008BF002317
S2140034F0C11800230093019701234046FFF755FFAC
S2140035003B78002B49D1237820619B0728D40346BB
S2140035101B1A02464FF001090593059BCB45134441
S21400352029D100211960D4F81C90B9F1000F05D0FC
S214003530236A41462046C84701282CD1039BC4F87D
S2140035400480C4E90236119B63610023A36123E073
S2140035504D46042D38BF04250395A4E73246ADE753
S21400356029F0030319F0030918BF4FF00409994422
S21400357000EB0903CCE702EB0A030493059B19460C
S214003580049B5350E3691D4653B1236A41462046C7
S214003590A847012804D01A233B7007B0BDE8F08F77
S2140035A009F10109049AB8E7C4F810B0C6E770B587
S2140035B0FAB1F0B110F0030303D01B1AC418042CA0
S2140035C013D141EA012341EA032341EA03230446D7
S2140035D08618351B032D0DD8930800EB8303104483
S2140035E0834206D003F8011BFAE7013A00F8011BF4
S2140035F0E4D170BD44F8043BEBE708B50A46002169
S214003600FFF7D5FF08BD70B572B368B361B30B1A88
S214003610032B14D900F0030401F003039C420ED1DF
S214003620B4B9041F0B468E18F51A032D1DD893083F
S2140036306FF0030404FB03229B001844194401386E
S2140036400A448A4210D011F8013B00F8013FF8E71F
S2140036500346241AE518042D1846E2D011F8010B8B
S21400366003F8010B013AF5D170BD53F8045B44F83A
S214003670045FD9E7F0B552B3A0B341B384188B18F2
S21400368003F0030004F00301814216D189B1651EE0
S214003690581E511A2C46034627781E78B74205F165
S2140036A0FF3500F1FF3002F1FF3210D10AB18A4235
S2140036B0F0D11946032A0B4601D8101B0FE054F828
S2140036C0040D51F8043D9842A2F10402F2D0002005
S2140036D008E014F8011D13F8012D9142F7D1C442F9
S2140036E0F7D10120F0BD000070B506460D4609B9B9
S2140036F000F076FA16B90A232B70FEE7FEF769FB90
S214003700094B1A6814462CB9F2601E60FEF767FB78
S2140037102C7005E0B44204D1FEF761FB15232B7034
S21400372070BDE468EFE700BF1057002007B50648F5
S21400373001A9FFF7D9FF9DF804300BB100F050FA4D
S21400374003B05DF804FB00BF4810002073B50C46BC
S21400375016461D460BB900F043FA074801950023AC
S2140037600093042201233146002C18BF2046FFF7A1
S2140037701CFE02B070BD00BF481000202DE9F041CD
S214003780DDE906850C4616461F460DB900F028FAF8
S2140037900648CDE906853A463146002C18BF204635
S2140037A00123BDE8F041FFF700BE00BF481000202F
S2140037B02DE9F047DDE90AA50C4616461F46DDE969
S2140037C008890DB900F00CFA14B90A232B70FEE72D
S2140037D00949CDF8209000202070C4E907008642F1
S2140037E018BF3146CDE909A543463A462046BDE80E
S2140037F0F047FFF72CBE00BF481000202DE9F3412C
S21400380004460E4609B900F0EBF914B90A233370E2
S214003810FEE7FEF7DEFA6169A3694D1C02460AD090
S214003820994208D8FEF7DBFA18233370002528469D
S21400383002B0BDE8F08125690133A3617DB123782C
S21400384099074ABFA3682B685B19104648BF53F810
S214003850043C2361FEF7C3FA00233370E7E7104603
S214003860FEF7BDFA2378E268D4E90101DB074FF0E2
S214003870000848BF0369019658BF0123CDF80080B1
S214003880FFF793FD377805463FB1FEF7A2FAA36926
S214003890013BA361FEF7A3FAC8E7D4F81C80B8F191
S2140038A0000FC4D00246236A61682046C04701283C
S2140038B0BDD0FEF78EFAA369013BA361FEF78FFA2F
S2140038C01A2333703D46B2E7F8B504460F4616464F
S2140038D00AB900F085F914B90A233370FEE717B960
S2140038E00A233370FEE7FEF774FAA36923B9FEF7DE
S2140038F076FA17233370F8BD013BA361FEF76FFA23
S21400390023789B0743BFA568043DED193D46FEF7A7
S21400391060FA23692B602761FEF761FA0023E9E766
S214003920431E00205A1C04D013F8012F0AB1884207
S21400393000D170470130F5E730B508B9002030BD3A
S2140039400029FBD00446002311F8015B4DB19A42D2
S214003950F5D004F8015B0133002CEFD00029F3D139
S214003960ECE79A42EBD92570E9E730B5B2B120B959
S214003970A1B10878404200B230BD037809B918B248
S214003980FAE7431C0131002413F8010C11F8015C1E
S214003990A84209D10028EFD0A24201D10020EBE7CF
S2140039A0013301310134EFE7A242F7D0401BE3E7D1
S2140039B04FF0FF32FFF7D9BFF8B50F2313700A4B4D
S2140039C01B681C6806460F46154654B139466068A3
S2140039D0B047012803D100232B702046F8BD246889
S2140039E0F3E70024F9E700BFF811002008B5FF222E
S2140039F04068FFF7BAFFB0FA80F0400908BD000043
S214003A00F0B5044685B008B900F0EAF8234F7B68A5
S214003A1000262670002B3ED031460220FFF77CFAA7
S214003A20314605460320FFF777FA31460540042065
S214003A30FFF772FAEDB22840012802D00623237061
S214003A40FEE7FFF7EBF92346014606462C2214480C
S214003A50144DFFF77BFE23782860E3B903947B6858
S214003A6002933B6801930423011D0093324608230A
S214003A700D48FFF79DFE217869B922460B482E684F
S214003A80FFF7D4FA2378B0622BB9286805B0BDE8F2
S214003A90F040FFF789B905B0F0BD00BF5C1000200C
S214003AA06A310200F81100207E31020096310200D1
S214003AB0F7B507460C4609B900F092F817B90A237D
S214003AC02370FEE7174D2868002223461146806AB9
S214003AD0FFF7CEFB2378A3B9224679681248FFF792
S214003AE06BFF23780F2B0ED0152323702B6801A9AC
S214003AF0986AFFF7D3FA9DF8043013B1227802B91A
S214003B00237003B0F0BD286821460430FFF776FE28
S214003B1026780146002EE9D147602868FFF747F966
S214003B202670E3E7F8110020ED39000007B501A97B
S214003B30FFF7BEFF9DF804300BB100F051F803B05C
S214003B405DF804FB2DE9F3410746884615460AB999
S214003B5000F046F817B90A232B70FEE7114E3068BE
S214003B6000222B461146806AFFF782FB2B78BBB9F2
S214003B702A4641463846FFF71FFF78B14468336847
S214003B8001A9986AFFF78AFA9DF8043013B12A78DB
S214003B9002B92B70204602B0BDE8F0810446EEE77D
S214003BA00024F7E7F811002038B505460C4609B999
S214003BB000F016F815B90A232370FEE722462946B8
S214003BC00248BDE83840FFF7BDBF00BFED39000032
S214003BD0024B00221A601AF0F3BE00BF14570220F0
S214003BE0FEE71AF007BF000000B9FEE7044B1B68AB
S214003BF0002B14BF0022092202701846704700BF2F
S214003C0014570220014B1860704700BF145702205B
S214003C1070B4A1F10B041546066D826D0A2C4ED8C1
S214003C20DFE804F006154D4D4D4D4D4D4D49440011
S214003C3015B90A221A70FEE7C26D12B90A221A7066
S214003C40FEE7946829461A46234670BC1847426D1C
S214003C50946AAA783AB1012A1AD0022A03D1626875
S214003C6042F0020262602A8872B1642A14D0B2F569
S214003C707A7F15D00A2A24D1626822F00102626097
S214003C80626822F4806262603268194670BC10472F
S214003C90626822F00202E5E7626842F00102EEE79F
S214003CA0626842F4806242F00102ECE792F8263045
S214003CB02B7070BC70472B7882F82630F9E72622E6
S214003CC01A700C29E0D0F4E71BB9009B0A221A7080
S214003CD0FEE79204406D02F4F80242F0C042C905C5
S214003CE0806A42F4003201F078610A43426342F28D
S214003CF010728168490701D4013AFAD1426B1A80E2
S214003D007047406D920443F0A04343F4003302F43E
S214003D10F802C9051A43806A01F078610A434263D3
S214003D2042F210738268520701D4013BFAD1704701
S214003D3013B500238DF80430836D416DDA688C6A04
S214003D40116821F001011160196991420CBF9A684F
S214003D500832DA60DB681B68DB0705D501A9407806
S214003D600AF022FB02B010BDBFF34F8F0223A362FE
S214003D70F8E7F8B5D0E9153691F800E0CF7891F875
S214003D8001C08A7808799D6A4B798EEA07044FEA63
S214003D908C0184EA920401F03C01120184EA930447
S214003DA041EA9E1102F0300242EA1C124C40544096
S214003DB0820002F03C021B0142EA971703F0300330
S214003DC043EA10137C405C4004F03F042644FEF7B0
S214003DD000F800231F2C86F827304FF001030CD97B
S214003DE0D5F88420203C03FA04F422EA0404C5F83B
S214003DF08440BDE8F840FDF7F2BFD5F8802003FA0E
S214003E0004F422EA0404C5F88040F2E7F8B5D0E9E5
S214003E10153691F800E0CF7891F801C08A780879D5
S214003E209D6A4B798EEA07044FEA8C0184EA920475
S214003E3001F03C01120184EA930441EA9E1102F06B
S214003E40300242EA1C124C405440820002F03C020F
S214003E501B0142EA971703F0300343EA10137C4035
S214003E605C4004F03F042644FDF7B3FF96F8273085
S214003E700133DBB2012B86F8273009D11F2C0BD972
S214003E80D5F88420203C03FA04F41443C5F8844093
S214003E90BDE8F840FDF7A3BFD5F8802003FA04F488
S214003EA01443C5F88040F3E72DE9F04F9A46836D3A
S214003EB0DE6887B03568059315F0010383460F4624
S214003EC0904607D113800B6029238AF8003007B08C
S214003ED0BDE8F08F7368C3F30C09B9F13B0F4FF0E0
S214003EE0000405D8FFF724FFA8F800403C60EBE785
S214003EF02346CDE9024ACDE9004440F2EA52642165
S214003F0006F020F99AF8003033B15846FFF710FF54
S214003F10A8F800403C60DAE7059BA8F800901B690B
S214003F20B34216BF20F0030040F0030040F001004B
S214003F3025F003053D600CBF18603060584607B09A
S214003F40BDE8F04FFFF7F4BE2DE9FF41466DF3885C
S214003F50DB0605460C4602D009230B70FEE73389C4
S214003F6013B109230B70FEE7F78A17B109230B700C
S214003F70FEE7036E13B90A230B70FEE7D0F85080F5
S214003F8040783B463A46642106F0B0FA40F2E953E0
S214003F90984202D809232370FEE703AB0093394604
S214003FA00194202368221848FFF7E8FB0746A86517
S214003FB030B3D8F800302146284698472378FBB916
S214003FC0D8F808302146284698472378C3B9D8F849
S214003FD0043021462846984723788BB9B28CB169BD
S214003FE00A482346D200FFF7B1FB237838603BB976
S214003FF0F28CB16906482346D200FFF7A7FB78602B
S21400400004B0BDE8F08100BFD4310200E531020003
S214004010F13102002DE9F04FD0E915738FB00E464E
S2140040200693F98C036D08930546BC6A0AF0DEFB1E
S214004030002333708DF82C3006238DF82F300DF1C9
S2140040402F020BAB0CA9687809F0F8FE9DF82C300F
S214004050DBB100230BAA0CA907F130008DF82C3039
S21400406005F0F0FB9DF82C30002B40F090800BAB59
S21400407006220CA9687809F01FFF9DF82C305BB16A
S214004080092333700FB0BDE8F08F0BAA0CA968782F
S2140040900AF01AF80128DCD10C9BC4F88830BDF869
S2140040A03430C4F88C306B6D05939B6A0993059B7E
S2140040B0D5F858809B8CD8F8007003F10053013B6C
S2140040C0C8E9027707EBC3034FF00009C8F81030C1
S2140040D0CB464FEAC90A07EB0A030793059B9A8C5F
S2140040E01FFA89F39A4254D8099AD8F8083093618F
S2140040F03378002BC6D1069A9384D5E91531D88C2F
S2140041004A68D3F828C00A6200F10053013B02EB6C
S214004110C303C1E90522CB6102EBC00011464FF094
S214004120004E88425AD1CCF81C206423069A236697
S214004130002382F82630636A4FF0FF3363622362FF
S21400414063618223A3620123E360636843F4003360
S21400415043F0C0036360636843F4806343F0030383
S21400416063602269224B13432361236923F0800393
S2140041702361BFF34F8F236843F01C032360BFF314
S2140041804F8F089B31461B68284698477AE72523B9
S21400419077E7079B40F2EA52C3F804B06421002395
S2140041A0CDE902B6CDE900BB284605F0CBFF337853
S2140041B0002B9DD147F80A0057F80A30079A23F0DB
S2140041C0010347F80A30D8F81030934202BF1A6845
S2140041D042F002021A6009F101097AE78B42C1F83F
S2140041E004E002BF5F6847F080475F60083198E7E9
S2140041F01F0818012DE9F74300238DF80430D0E995
S2140042001535D3F82880D8F8247017F0020406462F
S21400421006D001A9407802240AF0C6F8C8F82C4057
S21400422000233A068DF8043013D52F6A99463B686A
S214004230B3B9AA692B6A9A4209D195F82630012BA0
S21400424005D1736D9A6A136843F40023136044F033
S214004250800444F00104C8F8244003B0BDE8F083AD
S2140042607B68002BE5DA386801A90AF0A3F9304626
S2140042700AF0CEFAD5E9072393420CBF6B690833E0
S2140042802B62C7F800902F6AD1E7F0B5D0E9150584
S214004290846AA86947682668360342BF266826F4FB
S2140042A000262660002F1DDAEB6921F00301834209
S2140042B00160C2F30D020FD142F0804242F4004288
S2140042C06B694260AB61BFF34F8F236843F40073A2
S2140042D023608023A362F0BD42F4004242600830AF
S2140042E0A861F0E725221A70F5E72DE9F743D0E933
S2140042F01557AB6AD7F808901A6822F00C021A60B5
S214004300DA6A42F08202DA625A6A4FF0FF320646F2
S21400431088465A620024AA8CA3B29A424FEAC40185
S21400432004F101040ED898F8004044B97E69274687
S214004330E98CE3B2E2008B4206EB02000AD303B03C
S214004340BDE8F08359F80110707821F0030106F0FB
S21400435079F9E0E743688DF80470002B05DAB05869
S21400436001A920F003000AF025F90134E0E72DE961
S214004370F043D0E9123785B093F8068000921546D0
S2140043800DF10E038946002241467E6A0446B04778
S2140043902B7883B9BDF80E30B9F1000F0ED143F477
S2140043A00063ADF80E300095BDF80E30BD6A0022F1
S2140043B041462046A84705B0BDE8F08323F40063D5
S2140043C0EFE72DE9F043D0E9123785B093F8069071
S2140043D000238B700B801546009203AB0C4601221F
S2140043E049467E6A8046B0472B78002B4ED1009512
S2140043F0012203AB494640467E6AB0472A78002A27
S21400440044D1BDF80C30580740D500950DF10A038D
S214004410494640467E6AB0472B78002B36D1BDF819
S2140044200A30D90408D49A0454BF0A226422DB0551
S214004430228023D4012322E0009503AB04224946C0
S21400444040467E6AB0472B7803BB00950DF10E03FD
S2140044500522494640467E6AB0472B78B3B9BDF878
S2140044600E30BDF80C2003F47873ADF80E30134010
S214004470FF2BADF80C300CD9642323800223A370E5
S2140044803F6A2B4622460C214046B84705B0BDE899
S214004490F0837F2B02D964232380CBE73F2B4FF09A
S2140044A00A032380C6D9E9E72DE9FF47D0E912378A
S2140044B0B1F800A093F80680BAF10A0F0446154634
S2140044C002D0BAF1640F05D191F8029009F1FF33DA
S2140044D0012B17D9009500220DF10E034146204608
S2140044E07E6AB0472A7852B9BDF80E30009543F47C
S2140044F09053BD6AADF80E3041462046A84704B03A
S214004500BDE8F08700950DF10E03002241462046D7
S2140045107E6AB0472B78002BF1D1BDF80E20BAF199
S2140045200A0F22F480539BB205D0BAF1640F17D05D
S214004530ADF80E3003E022F44052ADF80E20BDF880
S2140045400E300095B9F1020F14BF23F4807343F4C4
S2140045508073ADF80E30BDF80E30BD6A0022CBE792
S21400456043F40053E4E700002DE9FF47036E1D788F
S214004570FF2D80460C46D0E912A76CD14FF00009FB
S21400458000945FFA89F503AB0222294640467E6A0C
S214004590B047237853B109F10109B9F1200FEFD1E3
S2140045A04D460F232370FFF71BFB23E000940DF10D
S2140045B00E030322294640467E6AB0472378002B26
S2140045C0E9D1BDF80C301BB143F6FF72934268D1B7
S2140045D0BDF80E20002ADED043F6FF71002B36D140
S2140045E08A42D8D0BDF80E204FF6FF739A42D2D03A
S2140045F01F2DD6D08AF806502378002B49D1009478
S21400460000224FF4004329464046BE6AB04722784F
S214004610002A3ED100940DF10E03294640467E6ADC
S214004620B0472378ABBBBDF80E30224A1340ADF836
S2140046300E304FF003099246BDF80E30B3F5004F2A
S21400464024D1B9F1000F09D12223237021E08B4237
S21400465022D19A42C5E78AF80650D0E70220FEF734
S21400466065FE00940DF10E030022294640467E6A40
S214004670B04723786BB9BDF80E3009F1FF3903EA6D
S2140046800A03ADF80E301FFA89F9D5E7B9F1000F25
S214004690DAD004B0BDE8F0874FF6FF729342A1D09F
S2140046A0A6E74FF6FF729342A2D1BDF80E30002B5C
S2140046B098D170E70080FFFF07B5104B1B78012BE1
S2140046C007D1FDF78FFBB0B94FF0FF3003B05DF8B0
S2140046D004FB01A800F0C0FA9DF804100029F3D1ED
S2140046E0012001AA00F054FF9DF80400003018BF16
S2140046F001204042EAE76FF00500E7E75557022041
S214004700084B187801280AD1074B1B78012B07D1D4
S214004710064B1B78002B14BF032002207047002096
S214004720704700BF585A0220555702204C570220A7
S21400473007B5FDF757FB48B9074B1B78012B02D08E
S21400474001A800F0B3F94FF0FF3001E06FF005006C
S21400475003B05DF804FB00BF5557022037B5054689
S214004760FDF740FB18B10024204603B030BDCDB99C
S21400477034201DF067F904460028F4D001231549BB
S21400478080F8303001AA204601F024FA9DF8043063
S214004790002BE9D094F83030012BE4D120461DF0F0
S2140047A059F9E0E7AC6874B934201DF04BF90446BB
S2140047B00028D8D0012384F830302968054B00291A
S2140047C008BF1946DEE7EB68332BCCD914F0030399
S2140047D0F1D0C8E7AF32020030B585B005460C46CA
S2140047E0FDF700FBF8B90DB39CB1631C024600D17F
S2140047F0044602AB0093214603AB284601F00CF9B1
S2140048009DF80830222B07D0232B00D043B9002078
S21400481004E04FF40042ECE76FF0010005B030BD55
S2140048206FF00200FAE76FF00500F7E76FF003009D
S214004830F4E713B50446FDF7D5FA014668B97CB12E
S21400484001AA204601F0BAFA9DF804305BB1232B8A
S21400485009D06FF0020002B010BD6FF00500FAE755
S2140048606FF00300F7E70020F5E737B50546FDF7DC
S214004870B9FA88B9A5B101AA0121284601F010FAB3
S2140048809DF804407CB995F83030012B02D12846BB
S2140048901DF0E0F8204601E06FF0050003B030BDE3
S2140048A06FF00300FAE76FF00200F7E773B504460F
S2140048B00E461546FDF796FA18B10024204602B0BB
S2140048C070BD002CF9D0D5B930201DF0BBF80446D9
S2140048D00028F2D00123164980F8283001AB324672
S2140048E0204601F001FD9DF80430002BE6D094F838
S2140048F02830012BE1D120461DF0ACF8DDE7AC688E
S21400490074B930201DF09EF804460028D5D0012347
S21400491084F828302968064B002908BF1946DDE7C9
S214004920EB682F2BC9D914F00303F1D0C5E700BFFD
S2140049301432020030B50C4685B0054618B96FF043
S214004940030005B030BD89B902AB00934FF40042B6
S21400495003AB01F03FFB9DF808000028F1D02228A9
S2140049600CBF6FF001006FF00200EAE7FDF73AFABD
S21400497002460028E3D1631C02AB009318BF214611
S21400498003AB08BF00212846E3E707B568B101AAD4
S214004990002101F003FC9DF80430002B0CBF002022
S2140049A06FF0020003B05DF804FB6FF00300F9E758
S2140049B010B5044620B1FDF705FA246AFDF706FA9D
S2140049C0204610BD37B50546FDF70CFA88B9A5B1E7
S2140049D001AA0121284601F0D7FC9DF804407CB9C5
S2140049E095F82830012B02D128461DF033F82046D2
S2140049F001E06FF0050003B030BD6FF00300FAE78A
S214004A006FF00200F7E7000008B5FDF7EBF930B9E4
S214004A10044B1B78012B01D1034B186808BD0020FE
S214004A20FCE700BF555702206C5A022070471CF066
S214004A30FFB8000008B5084B196841B1074B186865
S214004A4001F082FF012802D000201AF0C3F8BDE86A
S214004A5008401CF011B900BF04120020001200200C
S214004A6070B5044608B9FFF7BBF8FDF7BBF9064674
S214004A7010B120232370FEE70A4B1B78012B02D0CF
S214004A800223237070BD084D2B78F92B01D91E2305
S214004A90F7E7FDF79EF92B7801332B70FDF79FF9AA
S214004AA02670EFE7555702204C57022070B5044693
S214004AB008B9FFF795F8154B1E78012E02D0132380
S214004AC02370FEE7124B1B88022B02D809232370A3
S214004AD0FEE7104D2B7813B11F232370FEE701F07D
S214004AE039FA0D4B0D4A18700D4B2E7018700C23AA
S214004AF058430C4B1B5813600B4A136001F030FDF3
S214004B0019F09EFFBDE87040FFF76AB8585A0220B9
S214004B10865A0220555702205C5A0220745A0220F8
S214004B20645A0220585702206C5A022008B501F039
S214004B3011FAA0F140035842584108BD30B143680D
S214004B40C1F8E8308368DB68C361704791F830309D
S214004B50022B03D0072B05D0034B00E0034BC1F814
S214004B60E8307047024BFAE7B84902007C32020090
S214004B701A390200044BC1F8E83018B1826802B155
S214004B80D368C361704700BFB84902000023C0E97C
S214004B90003303817047036810B533B901220281E0
S214004BA0C1E90933016041601CE0028991F8334095
S214004BB00132028193F83320A2420CD85B6A002BA4
S214004BC0F8D14B6243688B625962ECE7C1E909325F
S214004BD05162996206E09A6A002AF7D1C1E9093261
S214004BE09962016010BDC36A5BB19A68526A4AB99D
S214004BF0C3E902221A8A013A1A820023C0E909335D
S214004C00C3627047D0E9092111B991629A60F1E751
S214004C104A620AB9D960EDE79162EBE738B5C46A33
S214004C20A3685B6A4BB1FFF7DEFFC462014604F17E
S214004C300800BDE83840FFF7AEBF38BD054B002280
S214004C4003F540711A81C3E900220C338B42F9D177
S214004C50704700BF58570220F8B5054608B9FEF75A
S214004C60BFFF9A4C6268D2B12368994E4BB92B4667
S214004C709200216B9748FEF769FD2B7830600BB1E8
S214004C80F8BD3360944B32681A60944A63681360C8
S214004C909349944A9B0013600A6813440B60228968
S214004CA0B2B12B461201216B8F48FEF74FFD8F4B9A
S214004CB018602B78002BE3D18D4B8E4A1860238921
S214004CC0138087498C4A1B0113600A6813440B60E3
S214004CD06269002A27D02369884E002B5CD12B46B8
S214004CE09200216B8648FEF731FD2B783060002B52
S214004CF0C6D1844B227E1A70834BE2691A60834BBE
S214004D0032681A606369E26864215A43B2FBF1F2C2
S214004D107F490A607F4A724913607F4A9B0013608E
S214004D200A6813440B60626A002A28D0236A7B4E06
S214004D30002B33D12B469200216B7948FEF706FDF7
S214004D402B783060002B9BD1764B94F828201A7075
S214004D50754B32681A60636AE26864215A43B2FB94
S214004D60F1F272490A60724AE16A1360714A9B0066
S214004D701360714A11605A490A6813440B606F4FFA
S214004D80636B3B6019F008FF1AF042FF3C4606468C
S214004D9030B101232B7073E73360AAE73360D3E7A3
S214004DA01BF05AF83B68984202D209232B70FEE7A4
S214004DB01BF052F83B68624F98426AD13E60226808
S214004DC0604CB2F57A7F4FF000036ED823605E4ADF
S214004DD0002313705D4A13705D4A13605D4A1360CA
S214004DE05D4A13705D4A13705D4A2846137002F0E0
S214004DF009F80A232978B0FBF3F05A4B186000290B
S214004E007FF43EAF354B1A6852B13348006838B16C
S214004E100446013A44F8041BFBD1196801F0B8FDBA
S214004E20514B00241C7001F08DF8FFF707FF4F4B25
S214004E301C604F4B1C802F4B1B88002B3ED14D4ACD
S214004E40002313604C4A13804C4A13604C4A13806C
S214004E504C4A13604C4A2846138001F01FFD2B78FD
S214004E60002B7FF40DAF284601F046FB2B78002B75
S214004E707FF406AF284602F0BDF82B78002B7FF4AF
S214004E80FFAE00F031FCFFF7D1FD404B01221A7057
S214004E90F6E61AF0E1FF33460246012100201CF038
S214004EA019FC23685843386089E7002001211CF06C
S214004EB011FC4FF47A735843206088E7284600F0C8
S214004EC05FFD2B78002BBAD0DAE600BF6410002016
S214004ED02457022024320200001200200412002070
S214004EE0FC11002008120020373202001C57022056
S214004EF00C12002010120020141200201857022056
S214004F0049320200181200201C1200202012002035
S214004F1024120020281200202C12002020570220E5
S214004F2062320200341200203C12002040120020A0
S214004F3044120020481200203812002030120020B0
S214004F40501200204C120020555702204C570220C9
S214004F506C5A0220745A0220645A02205C5A0220BC
S214004F60C85C0220885B022054570220C45B0220E3
S214004F70C25B0220CC5C0220CA5B0220805B02205F
S214004F80705A0220605A0220845B0220585A02207F
S214004F9090F833200B490C23534330B5CA58CC182D
S214004FA032B901252581C0E90422C850606030BDB1
S214004FB02589013525810024026144615061C8506D
S214004FC0F5E700BF5857022090F833300B490C2203
S214004FD05A4330B58C588B1834B901251D81C0E969
S214004FE004448850586030BD1A8901321A81002264
S214004FF002615A6842611061F4E700BF5857022008
S21400500010B5044690F8330000F0B4FF084B94F84F
S21400501033201B789A42204606D1FFF7D5FF20465C
S214005020BDE810401BF0E5B8FFF7B2FFF7E700BF9A
S214005030645A022070B5154690F83220072A0446B6
S2140050403CD80123934013F033021FD113F0C0065F
S2140050501DD113F00C0F31D04667A0F8786041647C
S214005060FFF7C1FD90F83230032B05D154301AF00B
S21400507009FE08B1FEF7B4FD2046FFF7C1FF002386
S21400508084F8323084F8315084F8303070BD42678E
S214005090A0F878204164FFF7A6FD90F83230072B81
S2140050A005D154301AF0EEFD08B1FEF799FD042341
S2140050B084F8323084F831500023E5E7BDE87040CC
S2140050C0FEF78EBD38B50C4691F832100529054618
S2140050D0049804D8042901D2012908D838BD072924
S2140050E024D9FF29FAD0BDE83840FEF779BD6267BB
S2140050F0A4F87830606415B12046FFF774FD2146A9
S2140051002846FFF737FD94F83230032B06D104F11A
S21400511054001AF0B7FD08B1FEF762FD2046FFF70F
S2140051206FFF0023238684F83230D7E76267A4F83F
S2140051307830606415B12046FFF755FD21462846B5
S214005140FFF718FD94F83230072B06D104F154000F
S2140051501AF098FD08B1FEF743FD002323860423CA
S214005160E1E7D0E90032934210B50FD01C69002168
S214005170A24215BF6161C3E90412C3E90412C2E981
S214005180043116BF136102600460436010BD000066
S21400519070B50446D4E9043190F83300124D0C2261
S2140051A0B1B942436BB9A918AB500B814B6000F004
S2140051B0F7FE0023C4E904332046BDE870401BF028
S2140051C02EB8AE183089013830815961AB50F0E7FF
S2140051D002FB00521089013810810B610BB9516037
S2140051E0E7E75961E5E700BF5857022013B50446C4
S2140051F070B1084B1B78012B0AD10023CDE9003390
S214005200054A016F034605481AF09AFD044B1C60D8
S21400521002B010BDC85C022071540000285702205E
S214005220405702202DE9F0410446B0B1104B1B78E0
S214005230012B12D1C56E0F4E8DB90F4BD3F80080DF
S2140052401AF00AFE32680027561E2B46E0FB086757
S214005250304639461CF03EFA2067BDE8F0811AF069
S214005260FBFD32680027561E0023E0FB0567EFE7CC
S214005270C85C022030120020885B02202DE9F7432C
S2140052805B4B1B78012B00D0FEE75A4B93F800804F
S214005290B8F1000F36D1FCF79CFD574E574C96F8E8
S2140052A00090574D074600F055FE4028307000F03D
S2140052B086800C23534A5843B9F1400F1358236095
S2140052C0904603D101F040FAAFF3008022682B68C5
S2140052D0DFF840919A4218D1002001F045FB0128E2
S2140052E002D0286819F076FC99F800303BB12068A7
S2140052F0036F0BB9FFF796FF2068FFF777FF384676
S214005300FCF76DFD03B0BDE8F08399F8003013B3E9
S2140053103D4B1A68126F9946EAB101A93B481AF04C
S21400532057FD30B9D9F80030019A1A6737481AF095
S214005330A9FCD9F800301A6F6AB993F8330000EB6D
S214005340400008EB8000FFF70CFF32780C23534335
S21400535058F8033023602268D2F8BC300133C2F814
S214005360BC302B4A1368013313603378402B31D09E
S2140053702B682268934215D0A3B119F03BFB2B682B
S214005380D3F8C43098421DD319F034FB2B68D3F8F9
S214005390C430C01A2B68D3F8C820C3F8C000104425
S2140053A0C3F8C800246819F025FBC4F8C40019F037
S2140053B086FB3846FCF713FDBFF36F8FA2E7C4F8F1
S2140053C00080CEE719F016FB2B68D3F8C430DB4319
S2140053D01844DFE701F0B0F92C681CB119F00AFB9D
S2140053E0C4F8C4001BF05AFCAFF30080DFE700BF30
S2140053F0555702204C5702205C5A0220745A02204D
S2140054006C5A022058570220405702202857022084
S214005410805A0220C85C022070B5054608B9FEF71F
S214005420DFFBFCF7DFFC10B120232B70FEE70E4BF2
S2140054301B78012B02D002232B7070BD0B4E3378E5
S2140054400BB91F23F8E7FCF7C4FC3478013CE4B240
S21400545034701CB1FCF7C3FC2D23EDE7FCF7BFFC52
S214005460FFF70CFF2C70E8E7555702204C57022038
S21400547038B50E4B1B78012B0D4616D1FCF7A9FC50
S21400548000232B670A4B1B68044693F83300094B2E
S21400549000EB400003EB8000FFF763FE2046FCF7BE
S2140054A09EFCBDE83840FFF7E9BE38BDC85C022068
S2140054B04057022058570220F8B50C46FCF789FCE6
S2140054C094F83230013B0746062B48D8DFE803F055
S2140054D0544704475B47040094F83030042B08BF59
S2140054E0E36A4FF0000608BF5D6A6667A4F8786056
S2140054F018BF354619F07EFA60642046FFF773FB46
S21400550094F83230032B31D1FFF77AFD84F83260FD
S2140055104FF44073238615B395F8333095F834204E
S2140055209A421CD094F833209A4218D1284600F0AC
S214005530A9FB95F8341095F83330814228BF014610
S214005540C9B28B420BD0284601F02CFB28461BF034
S21400555099F895F8332001462E201BF043FA38467A
S214005560FCF73DFCBDE8F840FFF788BE072B04BFFC
S214005570042384F83230CBE7002384F83230204608
S214005580FFF73EFDEBE7042384F83230E7E7000040
S2140055902DE9F0410646884614460AB9FEF720FB78
S2140055A000232370FCF715FC1A4F0546B8F1000FD0
S2140055B01CD0C7F80080184B012E1A781ED0012A7E
S2140055C00FD1164C16482168002670311E701AF04E
S2140055D0FFFB08B123681E6711481AF053FB00232F
S2140055E023602846BDE8F041FCF7F9BB204601F0F1
S2140055F009FC0A23B0FBF3F03860DCE7002AF0D1A0
S214005600084C1E702068FFF70DFE2068FFF7EEFDC1
S214005610E7E700BF885B0220C85C022040570220F4
S214005620285702206C5A0220F7B504460D4621B3CF
S2140056301AF012FC124B1A68002312F1FF3643F1DF
S214005640FF37E0FB0567304639461CF043F8002379
S214005650CDE90033014623460A4A04F154001AF005
S2140056606FFB08B1FEF7BCFA0323204684F83230FD
S21400567003B0BDE8F040FFF78BBD0223F5E700BF9F
S21400568030120020B954000070B51646124C134A6A
S214005690054612782068002380F8301080F83130F4
S2140056A02AB10F4A0F48126813671AF0EBFA314610
S2140056B02068FFF7B9FF5DB1216805F10800CD62EB
S2140056C0FFF769FA21682846BDE87040FFF736BA4A
S2140056D02368DD62F6E700BF6C5A0220C85C022031
S2140056E04057022028570220774B1B7882B0DBB247
S2140056F08DF80530754B1B68DBB28DF80730744BA0
S2140057001B78DBB28DF80530724B1B78DBB28DF858
S2140057100530714B1B68DBB28DF807306F4B1B6A88
S214005720DBB28DF807306E4B1B78DBB28DF8053098
S2140057306C4B1B78DBB28DF805306B4B1B88DBB2ED
S2140057408DF80630694B1B88DBB28DF80630684B47
S2140057501B78DBB28DF80530664B1B88DBB28DF804
S2140057600630654B1B88DBB28DF80630634B1B8812
S214005770DBB28DF80630624B93F82830DBB28DF83A
S2140057800730604B1B78DBB28DF805305E4B1B880C
S214005790DBB28DF806305D4B1B88DBB28DF8063029
S2140057A05B4B1B88DBB28DF806305A4B1B88DBB28E
S2140057B08DF80630584B1B88DBB28DF80630574BF9
S2140057C01B88DBB28DF80630554B5B8DDBB28DF84F
S2140057D00730544B1B78DBB28DF80530524B1B88D4
S2140057E0DBB28DF80630514B1B78DBB28DF80630F5
S2140057F04F4B1B6ADBB28DF807304E4B1B78DBB283
S2140058008DF805304C4B1B88DBB28DF806304B4BC1
S2140058101B88DBB28DF80630494B1B68DBB28DF86F
S2140058200730484B1B78DBB28DF80630464B1B78AA
S214005830DBB28DF80530454B1B78DBB28DF80530B2
S214005840434B1B78DBB28DF80530424B1B78DBB23E
S2140058508DF80530404B1B78DBB28DF805303F4B9A
S2140058601B78DBB28DF805303D4B1B88DBB28DF81C
S21400587006303C4B1B78DBB28DF805303A4B1B8864
S214005880DBB28DF80630394B1B88DBB28DF806305C
S214005890374B1B78DBB28DF80530364B1B88DBB2F6
S2140058A08DF80630344B9B8CDBB28DF80730334BCB
S2140058B01B88DBB28DF806309DF805309DF8063063
