S02400006275696C642F64656275672F6D69637269756D6F735F63616E6F70656E2E73333740
S2140000000010002001050000FD040000FD040000B3
S214000010FD040000FD040000FD040000FD040000D7
S214000020FD040000FD040000FD040000FD040000C7
S214000030FD040000FD0400006BB00000FD0400009D
S214000040FD040000FD040000FD0400009D09000002
S214000050FD040000D1370000FD040000FD04000090
S214000060FD040000FD040000FD040000FD04000087
S214000070FD040000C1090000FD040000FD040000AE
S214000080FD040000FD040000FD040000FD04000067
S214000090FD040000FD040000FD040000FD04000057
S2140000A0FD040000FD040000FD040000FD04000047
S2140000B0FD040000FD040000FD04000011C6000061
S2140000C0FD040000FD040000FD040000FD04000027
S2140000D0FD040000FD040000FD0400008DD50000B6
S2140000E099D50000FD040000FD040000FD0400009A
S2140000F0FD040000FD040000FD040000FD040000F7
S214000100FD040000FD040000FD040000FD040000E6
S214000110FD040000FD040000FD040000FD040000D6
S214000120FD040000FD040000FD040000FD040000C6
S21400013099370000B5370000FD040000FD040000FC
S214000140FD040000FD040000FD040000FD040000A6
S21400015010B5054C237833B9044B13B10448AFF3FC
S21400016000800123237010BD9012002000000000C4
S214000170180A010008B5034B1BB103490348AFF347
S214000180008008BD0000000094120020180A01003C
S214000190154B002B08BF134B9D46A3F5803A002154
S2140001A08B460F461348144A121A0DF078FD0F4B73
S2140001B0002B00D098470E4B002B00D0984700200D
S2140001C0002104000D000D48002802D00C48AFF3B3
S2140001D000800DF025FD200029000DF061FB0DF0DC
S2140001E00BFD00BF0000080000100020000000000B
S2140001F00000000090120020208200200000000076
S2140002000000000008B5042201231046194602F03B
S2140002106FFE002008BD08B5042201230921002036
S21400022002F066FE002008BD08B50121054800F072
S214000230D7FF0DF0F7F8FFF7E5FFBDE80840FFF73A
S214000240EABF00BF00550A000121014800F0C8BF00
S21400025000550A002DE9F0411A4E04468846174616
S2140002600FCE86B06D460FC596E8030085E80300FE
S21400027001211548256800F0B3FF6068012100F0F1
S214000280AFFF617B207B0023042202F031FE0023B7
S2140002900422617A207A02F02BFE28466946CDF8C1
S2140002A00880ADF8107003F0F7F8237CA27B1B06DD
S2140002B043EA0223AB6700200A236B6706B0BDE85B
S2140002C0F08100BF7CEB000000550A0070B50668A0
S2140002D00C468D18AC4201D1002070BD14F8011BED
S2140002E0304603F041F9F5E7026813699B06FCD532
S2140002F07047000013B504460CF054F8217B002329
S2140003000122CDE900324900034AB0FBF1F103486F
S2140003100BF0AAFF02B010BD21030000AC120020B3
S214000320024B4FF400629A61704700BF008008409D
S21400033073B50E4B0E4E4FF480441C600546407B52
S2140003400CF09AF902A9042321F8023D0222304655
S214000350FFF7BCFF3046FFF7C7FFA87B0CF08CF911
S214000360044B00201C6002B070BD00BF6C800846C5
S214000370001000206C80084438B50446012112485D
S214000380124D00F02DFFA16811480022FFF762FF12
S214000390002304220E21022002F0AAFD00230422DC
S2140003A00B21184602F0A4FD94E80F0085E80F0024
S2140003B0084B012220461A70FFF79CFF2046FFF7E5
S2140003C0B7FF002038BD00BF00550A00C812002045
S2140003D000100020C41200202DE9F04F9946057940
S2140003E00388DFF89CA05D43244B14464FF48042FC
S2140003F01A60013485B0A4B20646407B884604AF36
S2140004000CF03AF9230243F0010327F8023D0222DA
S21400041039461B48FFF75AFF09F1FF33ED104FF03E
S214000420000B01930134CB450DD11548FFF75CFF57
S214000430B07B0CF021F9134B4FF4804200201A6079
S21400044005B0BDE8F08F2A4641465046FFF73EFF0E
S214000450019B5B451BBF04EB0B0212024FF6FF72BB
S21400046042F0FF02ADF80E20394602225046A8445C
S214000470FFF72CFF0BF1010BD5E700BF6C80084699
S214000480001000206C800844034B04481B78002BA7
S21400049008BF0020704700BFC4120020C81200200A
S2140004A01FB5054B0FCB6C4684E80F002046FFF7C0
S2140004B063FF04B010BD00BF94EB00001FB51446E8
S2140004C052B16A460AF066F820609DF800000030D7
S2140004D018BF012004B010BD0120FBE7054A0649FD
S2140004E01368184488428CBF4FF0FF3310601846DC
S2140004F0704700BF1410002000000820FEE7000030
S21400050008B500F079F8064B0649074A8B4201D336
S214000510FFF73EFE52F8040F43F8040BF6E700BF61
S21400052000100020901200201C0A010000487047AE
S21400053000A24A04174AD2F8943003F00703023B9D
S214000540042B1FD8DFE803F00620031A0800124B1E
S2140005501B680AE0114BFBE79368C3F30443073BB1
S214000560072B14D80E4A52F823300A4AD2F8000154
S214000570C0F304200130B3FBF0F07047094B1B6852
S2140005805B08F2E7074BE3E74FF40043EDE7002391
S214000590EBE700BF00400E40241000201C10002097
S2140005A0A4EB00002010002008B5FFF7C3FF054BA2
S2140005B0D3F80831C3F308230133B0FBF3F0024B42
S2140005C0186008BD00400E4018100020014B186847
S2140005D0704700BF1C100020054B1860054BD3F871
S2140005E0943003F00703022B01D1FFF7DDBF7047FD
S2140005F01C10002000400E40044B054A9A60D3F8B9
S214000600882042F47002C3F88820704700ED00E0AE
S214000610000000004FF4004070474FF47A707047B7
S214000620014B1868704700BF2410002043680BB1C8
S2140006300068184722207047072838B505460C463C
S21400064015D908284FF6FF7318BF00232341DB0790
S21400065004D440F2B231074800F0C4F93020064B0B
S2140006606843034404EBC304A400206838BD4FF677
S214000670FF73EBE7C4EB00001C801842104B70B50C
S2140006801A78104E01460024E3B29A4200D870BD94
S21400069056F824301D686B798B420FD12B78022BCD
S2140006A00CD02879FFF7C8FFB0FA80F04009287010
S2140006B056F82400BDE870400DF0DEB80134E3E7DC
S2140006C09B040100FC10002013B5044601211248CB
S2140006D000F086FD002301226179207902F008FCF3
S2140006E061792079FFF7A8FFA379B0FA80F0400976
S2140006F0022B20700DD100F035F90849607900F022
S2140007003FF9627920790123CDE90033114602F0E2
S21400071089FB002002B010BD00550A007D060000CF
S2140007200078704710B50378022B044616D041793E
S2140007300079FFF781FFA279012A17D163885B0051
S21400074063F03F039BB200280CBF184643F001003D
S2140007504FF6E073984202D12270608010BD4FF6CB
S214000760DF73984204BF00232370F6E7002AF5D112
S214000770B0FA80F040092070F0E70278022A03D130
S21400078000224280FFF7A0BF704713B50378022B04
S214000790044610D08379022B0BD10021407900F05B
S2140007A0EFF8627920790023CDE90033114602F094
S2140007B039FB0223237002B010BDD0E900031847AE
S2140007C00369006818470000072838B504460D4638
S2140007D013D908284FF6FF7318BF00232B41DB07F9
S2140007E004D440F2E131064800F0FCF83020012144
S2140007F06043044BA940195038BD4FF6FF73EDE730
S214000800C4EB00000C800844072838B504460D46A3
S21400081013D908284FF6FF7318BF00232B41DB07B8
S21400082004D44FF48261064800F0DCF83020012141
S2140008306043044BA940195038BD4FF6FF73EDE7EF
S214000840C4EB00000C80084610B501210446094898
S21400085000F0C6FC0121084800F0C2FCA37820780E
S2140008606178B3FA83F35B09042202F041FB0020AF
S21400087010BD00BF4041050000550A000346007841
S21400088059789B780BB9FFF79FBFFFF7BDBF0346AC
S214000890007859789B780BB9FFF7B6BFFFF794BF7F
S2140008A038B504784578072C16D9082C4FF6FF7211
S2140008B018BF00222A41D30704D440F22B4108482F
S2140008C000F090F83023634303F18043012203F5E0
S2140008D00823AA409A6138BD4FF6FF72EAE700BFC8
S2140008E0C4EB000070B506784478072E05461BD981
S2140008F0082E4FF6FF7318BF00232341DB0704D4EE
S21400090040F2FB310A4800F06DF83022094B724382
S214000910134404EBC304A400AB782068C0B213B938
S214000920B0FA80F0400970BD4FF6FF73E5E700BFF0
S214000930C4EB00000C80184270B5094E0446012531
S21400094004B970BD94FAA4F0B0FA80F005FA00F38A
S21400095024EA030456F82030002BF1D09847EFE73E
S214000960D8120020054B4FF40052C3F880211A60BD
S2140009700822C3F880211A60704700BF00E100E03B
S21400098038B504460D4601F05CFE034B43F8245090
S214000990BDE8384001F05BBED8120020074BD3F804
S2140009A02804D3F81C24104020F42A5020F02A00F3
S2140009B04004400CC3F82404FFF7BEBF0080084084
S2140009C0074BD3F82804D3F81C24104020F4AA4080
S2140009D020F055000004000CC3F82404FFF7ACBF59
S2140009E000800840FEE700EB41118B6F1B04FCD42F
S2140009F070470000B0F1402F08B504D1074801F059
S214000A00F9F8400808BD064B984201D10548F6E7BC
S214000A1005488B21FFF7E6FF0020F3E7006E040091
S214000A2000440040007E0400F1EB000031B11B02E0
S214000A3043F0010343EA820202657047016570478E
S214000A402DE9F0471F46531E072B0546894692465A
S214000A50BDF82040BDF8248004D940F20B11304880
S214000A60FFF7C0FF7B1E072B04D94FF486712C4876
S214000A70FFF7B8FF661EB3B2072B04D940F20D117C
S214000A802748FFF7AFFFB9F1000F04D14FF4877185
S214000A902348FFF7A7FF474504D3444502D3B8F1E0
S214000AA0000F04D140F211111D48FFF79BFF2846A6
S214000AB0FFF7A0FF574401343C4404FB09F4B0FBA5
S214000AC0F4F424B94FF48E711548FFF78BFF013C00
S214000AD04FEA9419B9F10F0F04F03F0404D94FF40C
S214000AE093710F48FFF77EFF08F1FF3836032A6838
S214000AF02B6846EA8816013F46EA072743F041037B
S214000B003C432B60EC60C5F818902B68D20754BFA6
S214000B1023F0410323F040032B60BDE8F08700BFBD
S214000B20F1EB0000042915D8DFE801F003101519D1
S214000B301D00036843F080030360002343610368DD
S214000B4023F0800303600E23036070478E23036048
S214000B500423436170478E2303601023F9E78E2336
S214000B6003601823F5E78E2303600823F1E737B503
S214000B7000230D46117ACDE9003308290446A8BFA4
S214000B80082109328B420BD12046294604EB451436
S214000B90FFF729FF009B2367019B636703B030BD07
S214000BA012F8010B0DF803000133EBE7F8B51F460A
S214000BB0531E1F2B04460D46164604D940F29E319E
S214000BC00848FFF70FFF29462046FFF70CFF04EB07
S214000BD045139E6727B12946BDE8F840FFF703BFD7
S214000BE0F8BD00BFF1EB00002DE9F14F1C461B7865
S214000BF09DF82890013B1F2B05468846924604D94F
S214000C004FF4CD713448FFF7EDFE4FEA481B05EB75
S214000C100B0628464146FFF7E6FE30233366227869
S214000C2001234146FFF7C2FF336E43F0800333666D
S214000C30B36E23F00043B36622780123414628466C
S214000C40FFF7B4FF336E627843F0400333667301F8
S214000C5003F184435F46C3F8B0AD636832B3B3F1C3
S214000C60005F04D34FF4DA711B48FFF7BBFE2F4436
S214000C706368BA6E43F0404302F060421343BB66BB
S214000C80237E626923B322F060427266617E726ED2
S214000C90DB0743EA81731343736622784B4641466B
S214000CA0284601B0BDE8F04FFFF780BFB3F5006FF0
S214000CB004D34FF4DD710848FFF794FE2F446268B2
S214000CC0BB6E03F0604343EA824343F00043D6E73B
S214000CD0024901EA8242D8E7F1EB00000000FC1F5F
S214000CE02DE9F74F9B469DF838300193531E1F2B76
S214000CF006460F4691469DF830509DF834409DF8C4
S214000D003CA004D940F2FF111F48FFF76BFE06EB2C
S214000D10471830463946FFF766FE3023C8F860307D
S214000D204A4639460123FFF741FFD8F8603043F0C2
S214000D308003C8F86030D8F8683023F00043C8F85D
S214000D4068304A46394630460123FFF72FFFD8F869
S214000D5068306D0745EACB7B640223F02045019B93
S214000D6044F4406444EAC3144BEA050553464A4635
S214000D7039463046C8F86850C8F86C4003B0BDE83D
S214000D80F04FFFF713BF00BFF1EB00002DE9F0476F
S214000D9098461378013B1F2B04460F46164604D987
S214000DA04FF411714A48FFF71DFE337A0F2B04D912
S214000DB040F246214648FFF715FE39462046FFF723
S214000DC012FE01F037FC6268D34303F0070353407A
S214000DD004EB4719636001F031FC3023C9F860303A
S214000DE03278012339462046FFF7E0FED9F8603016
S214000DF043F08003C9F86030D9F8683023F0004328
S214000E00C9F868303946012332782046FFF7CEFE0F
S214000E10D9F86C3099054FEA471507D5D9F86C30E4
S214000E209A050ED5D9F868309B000AD5D9F86030F7
S214000E3043F00303C9F86030324639462046FFF7D0
S214000E4096FE6319DA6E900502D59B6E99000BD458
S214000E506319DA6E42F48072DA66DA6E92055EBF65
S214000E60DA6E42F40042DA666219317AD36E23F003
S214000E700F030B43D36672787368C2B1B3F1005F99
S214000E8004D340F275211248FFF7ACFD2544736881
S214000E90AA6E43F0404302F060421343AB663278DA
S214000EA0434639462046BDE8F047FFF77FBEB3F518
S214000EB0006F04D340F27B210548FFF793FD2544DD
S214000EC07368AA6E9B0443F0004302F00052E4E706
S214000ED0F1EB000070B51378013B1F2B04460D465E
S214000EE0164604D940F2A5212548FFF77BFD294682
S214000EF02046FFF778FDEB1C5B017F22E250294677
S214000F00012332786D01FFF751FE6319D86E10F495
S214000F1000401FD0DB6E03F00F03082B337204D99A
S214000F2040F2BE211648FFF75DFD73789BB163194A
S214000F309B6E23F060437360631906F10902196F14
S214000F40337A042B94BFD018101D824208D1032B8D
S214000F500AD8012070BD63199B6EC3F38A43EAE783
S214000F6002F8011B090AF0E72C440022616F043BDB
S214000F709342EED9B01801324173090AF8E700BF70
S214000F80F1EB000070B50E460546FFF72CFD00EBB2
S214000F904613F3221A666FF000525A6600229A66CB
S214000FA00124DA661A675A67E2B2012331462846F8
S214000FB00134FFF7FBFD212CF6D170BDB0F1402FB8
S214000FC0F7B504460D4606D0124B984203D05F2173
S214000FD01148FFF707FD04F1047676018022012709
S214000FE0376022606A780021616112B12046FFF7FF
S214000FF0C9FF2760E97A0191A97A6B7A00912A7A6B
S21400100069682046FFF71CFD2B7883F001033360E8
S21400101003B0F0BD00440040F1EB00000C4B9842DA
S21400102010D90C4B984210D9022201230A490B60B2
S2140010300A49D1F8003123F0407343EA0263C1F84D
S2140010400031704700221346F0E70122FBE700BF9D
S2140010500048E8010090D0034000C84300400E401E
S21400106038B54FF08043104C5B68C9B2002304EBE0
S214001070C30215798D4203D154F83350854211D2FC
S2140010800133072BF3D141F22A210848FFF7AAFCC7
S21400109003224FF080414B6823F0407343EA02631B
S2140010A04B6038BD5279F4E7A4EC000078EC000001
S2140010B01F2810B5044604D940F225110248FFF750
S2140010C091FC0120A04010BD49EC000038B54FF05F
S2140010D0804441F67133256C2364FFF727FA00211C
S2140010E0FFF7BEFF0DB10023236438BD044B1B6819
S2140010F05B0603D4034A1368002BFCD1704700BF7D
S2140011003C300E40C800C64308B5FFF7EFFF024B61
S2140011105868C0F3014008BD00300E40044BD3F8B9
S2140011204421D20703D4D3F840211042FBD17047A4
S21400113000400E40B0F5004F38B5054604D340F6E3
S214001140CB410A48FFF74EFC6C1CB4FA84F4C4F199
S2140011501F042046FFF7ACFF0138A84204D040F633
S214001160D1410248FFF73EFC204638BD1DEC00008A
S2140011704FF0804341F6713270B51E6C1A64054616
S2140011800C46FFF76DFF104B104A022C08BF1346A3
S2140011909D420F4B07D90F4A13600F4B9D4205D84F
S2140011A04FF0884306E00D4A1360F9E7002CF7D1AC
S2140011B04FF08C434FF480521A601EB14FF08043BC
S2140011C000221A6470BD00BF80D543020024F400DC
S2140011D0020202000001004680F0FA02000100440C
S2140011E038B5C0F30323013B0E2B39D8DFE803F0F4
S2140011F03F423838081A1D202435282D381732006B
S2140012001E4C0023C0F3043513B11846FFF786FFC3
S21400121004F1047405EBC404A400216038BD002367
S214001220174CEFE70123174CECE71023164CE9E7C1
S2140012304FF48073154CE5E74FF48033144CE1E728
S21400124081F001010023134CDCE781F0010100234B
S214001250114CD7E70023114CD4E70023104CD1E7FC
S21400126041F2C7710F48BDE83840FFF7BBBB00230B
S2140012700D4CC7E700230D4CC4E700BFB0400E403E
S214001280C4400E40E0400E40E8400E40EC400E40A9
S214001290F0400E4060410E4064410E40F0410E406A
S2140012A050410E4078EC000000400E40C0400E401A
S2140012B008B5C0F30313013B0B2B00F2AB80DFE84D
S2140012C003F0060C101A2024282C668692A5534B91
S2140012D0D3F80001C0F3042008BD504BD3F8140126
S2140012E0F8E74E4BD3F80001C0F301600130FFF77A
S2140012F0DFFE0138F0E7494BD3F80C01C0F30820B5
S214001300EAE7464BD3F81801F8E7444BD3F81C013C
S214001310F4E7424BD3F80801F0E7414B98422AD055
S2140013200ED8A3F5BA2398422BD003F57033984213
S21400133015D041F66B113B48FFF754FB0020CBE776
S214001340394B984205D0394B98420ED0384B9842CC
S214001350EFD1324BD3F82001C0F30230C7E72F4B52
S214001360D3F8200100F00F00C1E72C4BD3F8200182
S214001370C0F30120BBE7294BD3F82001C0F30310CC
S214001380B5E7264BD3F82001C0F30340AFE7294B5F
S21400139098420CD003F5A11398420ED0264B9842E3
S2140013A012D11E4BD3F8280100F003009FE71B4B19
S2140013B0D3F82801C0F3011099E7184BD3F8280199
S2140013C0C0F30130043092E741F68F11B3E71B4BB0
S2140013D0984205D1114BD3F8300100F003007BE7AB
S2140013E041F69E11A7E7164B984205D0154B98423A
S2140013F006D041F6B6119EE7084BD3F85C01ECE741
S214001400064BD3F85C01C0F3014065E7034BD3F805
S214001410040173E741F6C3118DE700BF00400E409C
S2140014208016180078EC000000362C0080262E006F
S21400143080002A0090171C0090071A00A0091400CC
S214001440B8003200B900340008B5FFF731FF0130AC
S21400145008BD0000C0F30313013B10B50C460B2B70
S21400146000F21482DFE813F00C00340045005C0044
S214001470700084009800B8005E01CA01D601FE0123
S2140014801F2904D941F6EB11D048FFF7ABFAFFF756
S2140014901DFECF48FFF7C2FD00F006FACD4AD2F88F
S2140014A0003123F4F85343EA0424C2F80041FFF75E
S2140014B07BF80446FFF728FE01462046FFF758FE55
S2140014C0FFF738F8FFF7AAFDBDE8104000F002BAB3
S2140014D01F2904D941F60121BC48FFF783FABD4A0B
S2140014E0D2F8143123F4F85343EA0424C2F8144122
S2140014F010BD4B1EB3F5004F04D340F6DE31B648A0
S214001500FFF770FAB34AB4FA84F3D2F80041C3F195
S2140015101F0324F0407444EA0364C2F80041E7E77E
S214001520B1F5007F04D341F60E21A848FFF75AFA1A
S214001530A84AD2F80C3123F4FF3323F4807343EA2D
S2140015400424C2F80C41D3E7B1F5007F04D341F67A
S21400155015219E48FFF746FA9E4AD2F8183123F422
S214001560FF3323F4807343EA0424C2F81841BFE72C
S214001570B1F5007F04D341F61D219448FFF732FAF7
S214001580944AD2F81C3123F4FF3323F4807343EAE1
S2140015900424C2F81C41ABE7B1F5007F04D341F642
S2140015A024218A48FFF71EFAFFF790FD894AD2F8F1
S2140015B0083123F4FF3323F4807343EA0424C2F88B
S2140015C00841FEF7F1FF0446FFF79EFD0146204660
S2140015D0BDE81040FFF7CCBD804B98426ED023D8B4
S2140015E07F4B984240D07F4B984251D0A3F5703342
S2140015F0984240F09080B1F5004F04D941F636216C
S2140016007248FFF7EFF92046FFF794FD01460420E5
S214001610FFF784FD6F4BD3F8200120F4702040EADA
S2140016200140C3F8200163E76F4B984205D06F4B2B
S21400163098425AD06E4B98426DD1B4F5004F04D9FB
S21400164041F692216148FFF7CDF92046FFF772FD7B
S21400165001460420FFF762FD5E4BD3F8200120F41C
S214001660E04040EA0130DCE7022904D941F6472190
S2140016705648FFF7B7F94FF48020FFF74FFD554A5D
S214001680D2F8303123F003031C43C2F830412FE771
S214001690B1F5004F04D941F664214C48FFF7A2F992
S2140016A02046FFF747FD01460420FFF737FD494B6C
S2140016B0D3F8200120F00F000843B2E7B1F5004F41
S2140016C004D941F673214148FFF78CF92046FFF70D
S2140016D031FD01460420FFF721FD3E4BD3F82001E3
S2140016E020F0F00040EA01109BE7082904D941F6F3
S2140016F082213648FFF776F92046FFF71BFD0146A4
S2140017000420FFF70BFD334BD3F8200120F4407084
S21400171040EA012085E74FF4D5512C48BDE810403B
S214001720FFF760B9334B98421DD003F5A1139842DA
S2140017302FD0314B984245D1082904D941F6A9212A
S2140017402248FFF74FF92046FFF7F4FC01464020F9
S214001750FFF7E4FC1F4BD3F8280120F003000843F2
S214001760C3F82801C4E6082904D941F6B821174869
S214001770FFF738F92046FFF7DDFC01464020FFF76B
S214001780CDFC144BD3F8280120F0300040EA0110BD
S214001790E6E7A1F10F03702B04D941F6C7210B48E9
S2140017A0FFF720F92046FFF7C5FC01464020FFF76B
S2140017B0B5FC084BD3F82801043920F4405040EA21
S2140017C00130CDE741F6D621A7E700BF78EC000050
S2140017D00148E80100400E401DEC0000801618008D
S2140017E0A00914008006160000362C0080262E0065
S2140017F080002A0090171C0090071A00254B98427C
S21400180005D102297FF637AF4FF4D75130E741F6BE
S214001810F02182E7204B984205D0204B984212D008
S21400182041F6093179E7032904D941F6FB211C4822
S214001830FFF7D8F81B4AD2F85C3123F003031C43A9
S214001840C2F85C4154E6032904D941F60331144832
S214001850FFF7C8F8134AD2F85C3123F4403343EA62
S2140018600444EDE7B1F5007F04D341F611310C488E
S214001870FFF7B8F80B4AD2F8043123F4FF3323F409
S214001880807343EA0424C2F8044131E641F6183175
S21400189043E700BFA0091400B8003200B9003400C6
S2140018A078EC000000400E4008B503210648FFF71C
S2140018B0D1FD03210548FFF7CDFD03210448BDE80F
S2140018C00840FFF7C7BD00BF404105005041070074
S2140018D06041090038B5FEF72DFE0546FFF714FCFB
S2140018E0022814D1164C174B2C44B4FBF3F404B165
S2140018F0013C21461448FFF7ADFD21461348FFF78B
S214001900A9FD13482146BDE83840FFF7A3BD114C9A
S214001910114B2C44B4FBF3F404B1013C21460A48B5
S214001920FFF798FD21460A48FFF794FD0B490C4B3C
S2140019302944B1FBF3F101B101390448E3E700BFE4
S214001940FF2C3101002D31014041050050410700B8
S214001950604109007FF0FA0280F0FA02FFA14A0413
S21400196000A24A0400F00F00013808B50B2800F268
S2140019708C80DFE800F006172638343C8A45526231
S2140019807074494BD3F8943003F00703023B052BE1
S21400199077D8DFE803F08387780372050D2008BD4B
S2140019A00E20FCE7404BD3F8800000F0070002282A
S2140019B0F5D0042870D0012808BF032018BF0120E6
S2140019C0EDE7394BD3F8843003F00703013B032BD4
S2140019D055D8DFE803F0675802610620DFE7324B90
S2140019E0D3F88800E1E7304BD3F88C00DDE72E4BC8
S2140019F01B6F13F0030353D0012B08BF0920DDE74C
S214001A00294BD3F85C3103F03003202B46D0302B23
S214001A1011D0102B08BF0720D0E7234BD3F85C313A
S214001A2003F44013B3F5001F38D0B3F5401F02D0BF
S214001A30B3F5801FEEE70820B1E71B4BD3F8603103
S214001A4003F00303022B2BD0032B16D0012B0CBF65
S214001A5004200520A3E7144BD3F86431F0E7124BBB
S214001A60D3F8F03103F00703052B08D8DFE803F0BE
S214001A70051603090B1A0B2091E70A208FE70120B1
S214001A808DE705208BE7022089E7084841F61751C5
S214001A90FEF7A8FF002082E70C2080E704207EE700
S214001AA007207CE703207AE700400E4078EC000031
S214001AB0314B984210B5044608D018D82F4B9C429C
S214001AC004D041F22A312E48FEF78CFF2046FFF75D
S214001AD049FF294B9C4225D00ED8284B9C4215D056
S214001AE0044641F259312648FEF77CFF13E0254BA9
S214001AF09842EBD0244BE2E7224B9C4216D0224B76
S214001B009C42EDD1214BD3F8884002E01F4BD3F81E
S214001B10804004F00704042C27D8DFE804F0240BE8
S214001B200F171300194BD3F88440F2E7174BD3F87E
S214001B308C40EEE7BDE81040FEF76CBDBDE81040F7
S214001B40FEF76EBDBDE81040FEF767BDFEF7F2FC7F
S214001B500E4B0446D3F80001C0F301600130FFF7D6
S214001B60A7FAB4FBF0F4204610BD41F2AB310448AE
S214001B70FEF738FF0024F6E70300200002001E00F0
S214001B8078EC0000040022000500240000400E400F
S214001B90012808B514BF12481248FFF7E3FE0138C3
S214001BA0072816D8DFE800F01A1515071515040BD8
S214001BB00D4B186808BDBDE80840FEF707BDFEF7E8
S214001BC0B9FC0A4BD3F80031C3F3042303FB00002F
S214001BD0F0E741F223110648FEF704FF0020E9E78C
S214001BE0B8003200B90034002810002000400E4033
S214001BF078EC000038B500F47813B3F5D01F05462E
S214001C0000F0088147D8B3F5402F00F0C4801FD8F5
S214001C10B3F5802F00F0A28009D8002B00F01881C1
S214001C20B3F5003F00F0B18041F6F70116E1B3F5D9
S214001C30002F00F09E80B3F5202F00F0A080B3F5B3
S214001C40C02FF1D1FEF776FCB44BD3F818318AE0FA
S214001C50B3F5901F00F0A78009D8B3F5602F00F009
S214001C60EF80B3F5801FDFD1AD4B186880E0B3F589
S214001C70B01F00F0A280B3F5C01F00F0AC80B3F533
S214001C80A01FD1D1A748FFF713FFA44BD3F83031DC
S214001C9003F003038FE0B3F5381F00F0B0801DD8C3
S214001CA0B3F5001F00F0B4800BD8B3F5E01F00F0CA
S214001CB0BB80B3F5F01FB7D19B48BDE83840FFF7AF
S214001CC0F7BEB3F5201F00F0B980B3F5281F00F06B
S214001CD08C80B3F5101FA7D19248EEE7B3F5581FD6
S214001CE000F0D38015D8B3F5481F00F0BC80B3F5DC
S214001CF0501F00F0C180B3F5401F95D18B48FFF709
S214001D00D7FE864B0446D3F82801C0F301300430D2
S214001D105CE0B3F5681F00F0D580B3F5781F00F0DF
S214001D20F580B3F5601F7FF47FAF8148FFF71AFE9A
S214001D300438062800F2C38001A353F820F000BF41
S214001D40E31E0000F31E0000BF1E0000691C00001A
S214001D50BF1E0000BF1E0000DF1E0000FEF7EAFBED
S214001D606E4BD3F80C31C3F308230133B0FBF3F00A
S214001D7038BDFEF7DFFB694BD3F81C31F3E7FEF7FF
S214001D80D9FB664BD3F80431EDE7FEF7D3FB634B84
S214001D90D3F80831E7E7FEF7CDFB604BD3F81431F4
S214001DA0C3F30423E1E76048FFF782FE5B4BD3F8FA
S214001DB02031C3F30343D840DAE75B48FFF778FEE9
S214001DC0564B0446D3F8200100F00F00FFF770F9D9
S214001DD0B4FBF0F0CCE75448FFF76AFE4F4B0446DE
S214001DE0D3F82001C0F30310F0E74F48FFF760FE7A
S214001DF04A4B0446D3F82001C0F30230E6E74A48CF
S214001E00FFF756FE454BD3F82031C3F30123D2E744
S214001E10464852E74548FFF74BFE404B0446D3F88A
S214001E20280100F00300D1E74048FFF741FE3B4B96
S214001E300446D3F82801C0F30110C7E73D483CE745
S214001E403D48FFF78FFD07283FF40EAF092803D162
S214001E50BDE83840FEF76EBB41F2EC013748FEF7AE
S214001E60C1FD002084E70020FFF792FE2B4BD3F83D
S214001E705C3103F0030378E70120FFF789FE274B68
S214001E80D3F85C31C3F301436FE72D48FFF76AFDD3
S214001E900438062810D801A353F820F0E31E0000EB
S214001EA0F31E0000B91E0000691C0000B91E0000E9
S214001EB0B91E0000DF1E000041F24D11CEE741F2D0
S214001EC07F11CBE71F48FFF74DFD023809281AD8C7
S214001ED0DFE800F01115070F19191919050B1A4B31
S214001EE0C3E6BDE83840FEF771BBFEF76FFB400067
S214001EF03EE7164BB9E6BDE83840FEF791BBBDE8B5
S214001F003840FEF787BB41F2D611A7E7FEF712FB73
S214001F1004462846FFF798FA5AE700BF00400E40EE
S214001F20281000200500240002001E0003002000E8
S214001F300B7C38000400220006000E0078EC00003F
S214001F400A7B36000C7F3A0030100020201000205C
S214001F50014B1880704700BF2C100020022838B5AF
S214001F600D4604D042F27F510C48FEF73BFD0C4C68
S214001F70626AC2F30112012A0DD065B142F29A518B
S214001F800648FEF72FFD074BD4F8902033EA0202EE
S214001F90FAD1012038BD4FF48003F5E778EC000055
S214001FA000400E40FF3F473A2DE9F04107460E46F7
S214001FB09046052814D8DFE800F003961F1A910C07
S214001FC04FF400704FF4807408210923002E70D05F
S214001FD066E04FF400604FF480640A210B23F5E7B7
S214001FE042F264414248BDE8F041FEF7FBBC0124E2
S214001FF0022000212346E9E7002957D03D4C636ABA
S214002000C3F30113012B48D13B4BDB6B5B0504D4B8
S21400201042F273413648FEF7E5FC636A03F00303B9
S214002020032B3FD1626A22F0300242F02002626245
S21400203002210424314D2F4A2944146689000A6877
S214002040002AFCD0B8F1000F25D01D44AD002B6847
S214002050002BFCD0022F1ED1EEB1264B5B6A03F09C
S2140020600303032B03D000213846FFF777FF42F225
S214002070F0411F48FEF7B6FC012200210220FFF7C0
S21400208093FF42F267511A48FEF7ACFC194B1C66E8
S2140020902B68002BFCD0BDE8F0810424022103232A
S2140020A00026C7E7042402210323C3E708200221F1
S2140020B00323104A1066012000FA01F1D2F89000BE
S2140020C00842FBD1B8F1000FE5D00122094902FA17
S2140020D003F3D1F890201A42FBD1DCE7202010242D
S2140020E00421052372E780204024062107236DE79C
S2140020F078EC000000400E4000300E408004F210E5
S214002100112870B506460C4636D104291BD1FEF7B9
S2140021105DFA0546F0B10021284600F08DFB06F07A
S2140021200F06013E0B2E00F2F781DFE816F02700BF
S2140021307F00C1009B00BD00D900F501E7000E013D
S21400214033017701A701052904D1AA4B1D68AA4BC4
S2140021509D42E0D8023C0C2C57D8DFE814F01B0058
S2140021605D004100480056005600560056006100CB
S21400217056004F005900E2010025D0E7023C0C2C27
S21400218043D8DFE804F0084A2E35424242424E4227
S2140021903B46510000250020042401221146FFF78B
S2140021A003FFFEF793FFFFF77FFB0DB1FEF79EFFE1
S2140021B0924B5C67FEF7F8F90446FEF7BBF9FEF7AC
S2140021C02DFFFEF7A1FF01462046FEF7D1FF1DB901
S2140021D00121284600F030FBBDE87040FFF77ABBCF
S2140021E000258748FEF71AFF02200446D5E700259B
S2140021F08348FEF713FF01240320CEE741F6D851AB
S2140022008048BDE87040FEF7EDBB41F6DD51F7E7CC
S214002210002503200524C0E7002501200324BCE791
S214002220002505200624B8E70724BAE7062C40F068
S214002230768141F61C617348734DFEF7D3FB41F679
S21400224024617048FEF7CEFB41F62C616D48FEF720
S214002250C9FBFEF76FF9FEF7E1FE6C4B01221A6030
S214002260032328E0062C6A4DE9D0013C0B2C32D81B
S21400227001A353F824F000BFDD220000BB220000BB
S214002280C9220000D7220000D722000053220000F7
S214002290D7220000D7220000D7220000D722000055
S2140022A0D7220000B5220000062C5A4DDDD1CBE720
S2140022B0594DDAE704232B6070BD01221146002039
S2140022C0FFF772FE0223F6E7012211461046FFF7DB
S2140022D06BFE0123EFE741F6576191E70023EAE73B
S2140022E0072C04D0092C06D041F6E16188E7434B61
S2140022F000221A67E0E7414B0122FAE7013C072C6F
S2140023001ED8DFE804F0201D1D161D1D0F04032235
S2140023103A49D1F85C3123F0300343EA0213C1F89E
S2140023205C31C9E7012211460420FFF73DFE012279
S214002330EEE7012211460220FFF736FE0222E7E70B
S21400234041F63F715CE70022E2E7013C072C1CD80F
S214002350DFE804F01E1B1B141B1B0D040322274979
S214002360D1F85C3123F4401343EA0253D7E7012245
S21400237011460420FFF718FE0122F0E7012211465D
S2140023800220FFF711FE0222E9E741F6627137E705
S2140023900022E4E7043C062C29D8DFE804F0130406
S2140023A0281A28282100012211460320FFF7FCFDE9
S2140023B000221249D1F8603123F003031343C1F819
S2140023C0603179E7012211460220FFF7EDFD012278
S2140023D0EFE7012211460420FFF7E6FD0222E8E7B8
S2140023E0012211460520FFF7DFFD0322E1E741F653
S2140023F0897105E720100020002D310100400E40B5
S2140024000148E80178EC000080400E400016C84302
S2140024108C400E4088400E4084400E40043C062C03
S21400242029D8DFE804F01304281A282821000122FE
S21400243011460320FFF7B8FD00223D49D1F864316C
S21400244023F003031343C1F8643135E70122114634
S2140024500220FFF7A9FD0122EFE701221146042022
S214002460FFF7A2FD0222E8E7012211460520FFF74A
S2140024709BFD0322E1E741F6B071C1E6023C092C60
S21400248047D8DFE804F0383F143146464646051B79
S214002490012211460520FFF787FD00232449D1F8C5
S2140024A0F02122F007021343C1F8F03104E70122BD
S2140024B011460220FFF778FD0123EFE7FEF786F8C6
S2140024C01C4B984204D941F6CB711B48FEF78AFA9A
S2140024D0174A536A43F0080353620122114602204A
S2140024E0FFF762FD0223D9E7012211460320FFF71A
S2140024F05BFD0323D2E7012211460020FFF754FDBF
S2140025000423CBE7012211461046FFF74DFD0523B5
S214002510C4E741F6EA7173E642F2160170E6074D2B
S214002520A3E6FEF7D3FD0025FFF7BEF907243FE636
S21400253000400E4040787D0178EC000080400E4060
S21400254038B505461120FFF70DFA042804D142F2EB
S214002550FF211F48FEF746FA012200210220FFF75E
S21400256023FDEB7A012B03D030D3022B29D1032392
S214002570184C626A22F0030213436362FEF726F8E1
S214002580154B2A88984294BF08200020636A23F0DF
S21400259008031843AB88606243EAC223E362236BF6
S2140025A0EA881B0D1B0513436A8843EAC22323638C
S2140025B06B7A2A7A1B0143EA0233AA7A13436363CF
S2140025C038BD42F213310248FEF70CFA0023CFE77B
S2140025D078EC000000400E4040787D0170B505465E
S2140025E01120FFF7BFF9022804D142F2BD310E4890
S2140025F0FEF7F8F90D4E0E4BB26B2C7813401C43C9
S2140026006B7844EAC324AB7844EA0364EB7844EA84
S2140026100324B36BA34205D0002101220846FFF72E
S214002620C3FCB46370BD00BF78EC000000400E40F1
S21400263080E4FFF8EFF3108072B6704700B962B618
S2140026407047EFF31180602383F31188704780F39F
S21400265011887047034B5868C0F30800003018BF55
S2140026600120704700ED00E0034B186880F0400042
S214002670C0F38010704700BF3C300E4038B542EAC9
S214002680032340F20112934205460C4630D0B3F5C0
S214002690817F0DD2012B22D035D3B3F5807F36D083
S2140026A040F639111E48FEF79DF9002213461CE03D
S2140026B040F20122934222D006D8B3F5007FEFD134
S2140026C0184BD3F870310DE0B3F5407F23D040F2BD
S2140026D001329342E4D1134BD3F878310BE0114B1F
S2140026E0D3F87431C3F30722DBB22B60226038BD07
S2140026F00C4BD3F874311A0EC3F30743F5E7094BB6
S214002700D3F87831EEE7074BD3F86C31EAE7054BA0
S214002710D3F86C31EFE7034BD3F87031EBE700BF2B
S214002720DCEC0000B081E00F08B5FFF79DFF18B1A4
S214002730024A1368002BFCD108BD00BFC800C64380
S2140027401A4B022810B5D3F880310C4612D0032855
S21400275013D0012814BFDBB2C3F307231B0323F4F3
S2140027607042ECB95AB140F6C8011148FEF73AF982
S214002770002010BDC3F30743F0E71B0EEEE70D493C
S214002780CA6E22F470421343CB660120F1E7094972
S214002790D1F8EC2022F470421343C1F8EC30F4E791
S2140027A0002AF4D040F6D401DFE700BFB081E00F86
S2140027B0DCEC000000300E40F8B504460F46FFF78C
S2140027C053FF78B3FFF7B0FF174B5B68C3F30143C3
S2140027D09C4227D0154BD3F80051FDF7ABFE022CD8
S2140027E006460FD1C5F30425114B05FB00059D4297
S2140027F004D940F2DC510F48FEF7F4F802213046C7
S214002800FEF7B6FCC4F1020210239340064A136199
S2140028100FB1FFF789FF2CB921463046BDE8F840D6
S214002820FEF7A6BCF8BD00BF00300E4000400E40CC
S214002830002D3101DCEC000038B502460D46FFF7EE
S21400284013FFB8B142B90C4BD3F80041FDF772FE46
S214002850C4F3042202FB0002084B1B7829463BB156
S214002860074B9A4204D80220BDE83840FFF7A4BFC1
S2140028700020F9E738BD00BF00400E401E130020C0
S214002880002D31010378134A002B437870B514BF2E
S21400289004260026002B8378946914BF02250025A1
S2140028A0002B037924F03F0443EA0403C47814BFE2
S2140028B008210021012C08BF43F0010333432B43BA
S2140028C00B4393611368417923F4403343EA014391
S2140028D0136070BD00300E40224B4AF6E85210B529
S2140028E0596B5A639A6FD407FCD41B6C13F003031E
S2140028F01EBF1D4A01241460834203D108B91A4B37
S214002900186010BD032B17D0B3B1164A1446936F48
S214002910DB07FCD4136C23F0030303431364A36F99
S21400292013F00103FBD100300F4A18BF0120012924
S214002930106008BF6363E4E7431E012BE5D8094B2C
S2140029404FF40022DA629A6FD207FCD41A6C22F097
S214002950030242F001021A64024A536A1C03FCD5C1
S214002960D3E700BF00300E40B40AC6432DE9F04F4F
S214002970A0F5E16389B00027B3F5966F054601918F
S2140029809346CDE90277CDE90477CDE9067705D9F8
S21400299040F699215548FEF725F859E0544BB0F516
S2140029A0E16F8CBF4FF0010A4FF0000AD3F8683190
S2140029B052D01A0EC3F30743079204934FF4966956
S2140029C04FF4E164DFF82C81D8F84C70C7F3017738
S2140029D03B46524605A902A8FFF750FED8F8EC6021
S2140029E0C6F301263346524606A903A8FFF746FE5D
S2140029F00798049A2C1B811A6143B1FBF9F3D1188E
S214002A002CBF0123002388421CD3DBB9069A039807
S214002A10131A6343B3FBF9F310EB030A2CBF01232D
S214002A20002352450ED36BB9059B029A981A44436D
S214002A30B4FBF9F912EB09092CBF012000204B4525
S214002A4000D398B140F6E7212848FDF7CBFF0027D2
S214002A50384609B0BDE8F08FC3F30722DBB2079211
S214002A6004934FF416794FF49664ABE7BBF1000F6E
S214002A700ED0D8F85C3023F4FE4323F00203B5F5FD
S214002A80E16F43EA012318BF02200343C8F85C3015
S214002A90019B43B338460021FFF752FE074610B9A4
S214002AA040F6F62176E701213046FFF749FE074655
S214002AB010B940F6FE216DE70E4A536ED14538BF79
S214002AC0D14623F4FF73B9F1E70F23F0010328BFC3
S214002AD04FF0E709B5F5E16F18BF43F0010343EA8D
S214002AE049035366B4E70127B2E700BFDCEC0000F9
S214002AF0B081E00F00300E40324A08B5136FD16C3B
S214002B00C90703F0070342D5012B40D9132857D92C
S214002B10143813288CBF102308232A49013BCA6C9B
S214002B20180322F47F4240EA03231343CB64264B68
S214002B30CA6C1B88C2F303222833013202EB8200E0
S214002B4003EB5303B3FBF0F3C86C013B072B20F0F9
S214002B50EE6028BF072340F4801040EA0363CB648E
S214002B601A4BB3F90030002B10DB2833500800EB6B
S214002B70420203EB5303B3FBF2F30A6D072B28BFA5
S214002B80072322F0700242EA03130B6508BDD26CDD
S214002B90D10706D4012B04D8092811D90A380928E8
S214002BA0B8E7084AD26CD20703D5012B01D82728EC
S214002BB0B0E740F63C310648FDF714FF0023ACE7CB
S214002BC00423AAE700300E401A1300201C1300202E
S214002BD0DCEC00000B4B1B6810B5044633B901282B
S214002BE004D940F65B310848FDF7FCFE074B186F2A
S214002BF020F0070020431867054BBDE810401888F2
S214002C00FFF77ABF8009C643DCEC000000300E40B8
S214002C101813002038B50389C82B044604D94FF48E
S214002C2020614F48FDF7DEFEA28823899A4204D928
S214002C3040F601214A48FDF7D5FEB4F90C30C82B02
S214002C4004DD40F602214648FDF7CCFE6378012BF2
S214002C5054D1A388C82B04D940F606214048FDF776
S214002C60C1FEE28842F210739A4204D940F613215C
S214002C703B48FDF7B7FEE3884A2B47D9B3F5FA7F02
S214002C8046D340F6C3118B4294BF4FF000514FF02D
S214002C9040513448B4F90C50C36CA28823F040531A
S214002CA023F00103002DA8BF43F001030B43C364C8
S214002CB0D0F8EC3043F44073C0F8EC302A4B1A805E
S214002CC0C36E43F08073C366284B186800B10420B7
S214002CD0FFF780FF264B21891980264BB4F90C207C
S214002CE0A0881A80FFF708FFA37BA3B1012B23D08F
S214002CF040F679011A48FDF775FE0FE0022BB0D1B9
S214002D00A3880A2BADD940F60B21A7E70021C0E720
S214002D104FF08051BDE7134B174A9A6501221146C2
S214002D206088FFF723FE054648B940F64A210C485E
S214002D30FDF758FE284638BD0A4B104AEDE7094A0B
S214002D406078D36B43F48063D363FFF7C5FDA37A43
S214002D50A3F1200253425341094A1360EAE700BF39
S214002D60DCEC000000300E40181300208009C6433B
S214002D701A1300201C13002077402057372110B765
S214002D809407C643072838B504460D4613D90828C5
S214002D904FF6FF7318BF00232B41DB0704D44FF414
S214002DA082610648FDF71EFE302001216043044B79
S214002DB0A940195038BD4FF6FF73EDE7C4EB00008D
S214002DC00C800846072838B504460D4613D908284F
S214002DD04FF6FF7318BF00232B41DB0704D440F2E5
S214002DE0E1310648FDF7FEFD302001216043044B2B
S214002DF0A940195038BD4FF6FF73EDE7C4EB00004D
S214002E000C80084470B505460E461446FFF712FCC3
S214002E102A68544004EA060151402960BDE8704023
S214002E20FFF70CBC07282DE9F04180460E461446F5
S214002E301F463CD908284FF6FF7318BF00233341BE
S214002E40DB0703D4BF212348FDF7CCFD86EA040345
S214002E5033F0030303D0C1211E48FDF7C3FD072C42
S214002E6006F003064FF00F0124D8A50008FA05F275
S214002E70A9401948FFF7C6FF0321184806FA05F2CD
S214002E80A940FFF7BFFF164B9DF8182023449B0070
S214002E901F60C3F88020012202FA04F4114AC2F827
S214002EA024449DF81C20C3F80023BDE8F0814FF6AB
S214002EB0FF73C4E7A4F10805AD0008FA05F2A940BF
S214002EC00948FFF79FFF032106FA05F2A9400748C5
S214002ED0D7E700BF08ED00000084084008840840DB
S214002EE08020C41000800840048408400C840840F9
S214002EF00728F8B504460D4616461F462CD908285E
S214002F004FF6FF7318BF00232B41DB0704D440F2B3
S214002F101D111E48FDF766FD26B129462046F7B16D
S214002F20FFF730FF3023634303F18043072D03F59B
S214002F30082317D85A68A9000F20884022EA000202
S214002F4006FA01F10A435A60F6B929462046BFB18F
S214002F50BDE8F840FFF716BF4FF6FF73D4E7FFF75C
S214002F6031FFDFE705F18042083A996892000F20AA
S214002F70904021EA000106FA02F20A439A60E3E76B
S214002F80BDE8F840FFF71EBFF8BD00BF08ED000023
S214002F90022838B504460D4603D94C211048FDF7E3
S214002FA021FD6B791F2B03D951210D48FDF71AFD22
S214002FB0AB786A789B0143EA82032A781343EA785F
S214002FC043EA02132A7943EAC2236A7943EA0233C0
S214002FD0AA79043443EA42432401024A135138BD15
S214002FE035ED000000200640014B1860704700BF1A
S214002FF00000C442427801790378002A827870B5CE
S21400300014BF04260026002AC27814BF1025002507
S214003010002A42794FEA023242EA012242EA0302D9
S214003020837942EA8332C37914BF20240024002B1C
S214003030037A42EA034343EA0603427A43EA050375
S21400304014BF4FF4004100212343002A14BF4FF45D
S214003050003200220B431343014A136070BD00BFC9
S21400306000200640174B984229D003F5806398420B
S21400307025D003F58063984221D003F580639842FB
S2140030801DD003F58063984219D003F580639842FB
S21400309015D003F58063984211D003F5006398427B
S2140030A00DD003F58063984209D003F580639842FB
S2140030B005D003F58063C31A584258417047012073
S2140030C0704700BF008001402DE9F84F05460C46CA
S2140030D0FFF7C8FF18B99A212A48FDF783FC217824
S2140030E009B902236B606078E27894F808B094F827
S2140030F006A094F8079000284FF00003607A6B62F1
S214003100A37814BF4FF040084FF0000812040028C0
S214003110A07A42EA036314BF4FF0800E4FF0000E11
S21400312043EA0B030028E07A43EA8A2314BF4FF0F1
S214003130200C4FF0000C43EA09230028207B43EACA
S214003140080314BF1027002743EA0E03002820793F
S214003150647943EA0C0314BF082600263B43002884
S21400316014BF4FF4005000203343002C14BF4FF020
S21400317080540024034323432B6009B101236B6072
S214003180BDE8F88F62ED00002DE9F041064688465E
S2140031901D46174622B94FF4A1713048FDF722FCB0
S2140031A0B8F1000F07D12E4B9E420CBF2D482E487B
S2140031B0FEF720FD8046202D3AD007D8A5B140F274
S2140031C089112648BDE8F041FDF70CBC402D39D0EA
S2140031D0602DF4D1B7EB980F04D940F283111F4845
S2140031E0FDF700FC042208E0B7EB181F04D94FF4E3
S2140031F0BA711A48FDF7F6FB10227A43540804EB1E
S21400320048141A4FB4FBF2F4203CE400BC4204D944
S21400321040F29F111148FDF7E5FB336823F0600389
S214003220336033683C401D4335607461BDE8F0810F
S214003230B7EBD80F04D940F279110848FDF7D2FB56
S2140032400822DAE70624B8FBF4F3BB4204D24FF4B4
S214003250BF710248FDF7C6FB2246CEE790ED0000A0
S214003260000801405041070040410500F8FF7F007C
S21400327070B506460C46154622B940F286210D4822
S214003280FDF7B0FB3CB90C4B9E420CBF0B480C48FC
S214003290FEF7B0FC0446013C6D00B4FBF5F42402D6
S2140032A0E30DDB0523B140F2A3210248FDF79AFBAC
S2140032B0746170BD90ED00000008014050410700A9
S2140032C04041050038B5164B984204460D4620D0BE
S2140032D003F5806398421CD003F58063984218D0AB
S2140032E003F58063984214D003F58063984210D0AB
S2140032F003F5806398420CD003F53053984208D00B
S21400330003F58063984204D040F2BE210548FDF7DD
S21400331069FBEB435B0003F00A03E360E56038BD3E
S2140033200000014090ED000038B5254B254D984231
S21400333004461ED0A8421CD003F50063984218D05D
S21400334003F58063984214D003F58063984210D04A
S21400335003F5806398420CD003F53053984208D0AA
S21400336003F58063984204D040F22B411648FDF7DF
S21400337039FB40F6AA63E36041F2050200232360AE
S2140033806260124AA3606361E364A2640C4A236627
S21400339094426367A367E36703D002F50062944232
S2140033A000D12365AC42A36506D0094B9C4203D0EE
S2140033B003F580639C4201D10023E36538BD00BF5E
S2140033C0000001400004014090ED0000F9FF0100FC
S2140033D0000C014038B52E4B984204460D4620D0CE
S2140033E003F5806398421CD003F58063984218D09A
S2140033F003F58063984214D003F58063984210D09A
S21400340003F5806398420CD003F53053984208D0F9
S21400341003F58063984204D040F2EF211D48FDF783
S214003420E1FA2046FFF780FFAB7C1BB1236843F030
S21400343080432360EB7C1BB12B7D43F08003A365A8
S2140034402A8A6B7B1343EA8913436360D5E901122A
S2140034502B7B2046FFF798FE6B7D1BB1236843F459
S21400346080332360AB7DEA7D1B07120502F4E00281
S21400347003F0E04313432366636F23F03003636770
S214003480626F2B7E134363672B78E36038BD00BF03
S2140034900000014090ED000038B52E4B98420446DF
S2140034A00D4618D003F58063984214D003F5806368
S2140034B0984210D003F5806398420CD003F58063E1
S2140034C0984208D003F58063984204D040F2563103
S2140034D02148FDF787FA2046FFF726FFA97B2A8AB0
S2140034E02368002942F0010214BF4FF480610021D6
S2140034F013430B432A7D23602368002A14BF4FF032
S2140035000052002213432360AB7C1BB1EB7C43F0DC
S2140035108003A3652B7B43F480536360D5E90112D7
S2140035202046FFF7A5FE6B7B0BB11023E3606B7D97
S2140035301BB1236843F480332360AB7DEA7D1B0711
S214003540120503F0E04302F4E002134323662B78EF
S214003550E36038BD0000014090ED000003691B06E3
S214003560FCD5C069C0B2704703695B06FCD54163F1
S2140035707047000010B501210F48FDF731FE01210C
S2140035800E48FDF72DFE01210D48FDF729FE00230C
S214003590194601220220FFF7ABFC0023042201217A
S2140035A00220FFF7A5FC00231A4601214FF0402019
S2140035B0BDE81040FDF73ABA40410500006E040031
S2140035C000550A0010B501210F48FDF709FE01213C
S2140035D00E48FDF705FE01210D48FDF701FE00230C
S2140035E0184601220C21FFF783FC0023184604220C
S2140035F00D21FFF77DFC05231A4601210548BDE88D
S2140036001040FDF713BA00BF40410500007E0400DD
S21400361000550A0000440040034B1860034B4FF06F
S21400362000525A60704700BF6455002000E100E079
S21400363008B500210948FDF7D3FD05231A460021E9
S2140036400748FDF7F3F9074B4FF00052C3F8842004
S214003650BFF34F8FBFF36F8F08BD00BF007E04001F
S2140036600044004000E100E02DE9FF4706460D2239
S214003670002168460AF013FB0123632E8DF8003004
S2140036801C4601D804F068FD032301218DF8004094
S21400369029488DF8063000248DF807308DF8014053
S2140036A08DF802408DF803408DF808408DF80B40E9
S2140036B08DF80C40FDF794FD204B1F48DFF8848002
S2140036C020221A601E4A936943F001039361FEF7B5
S2140036D091FA9DF802501B4A8246E8400023A0FB60
S2140036E006010AF009F94FF000090746B7F5803FD2
S2140036F017D30A2D08D10CB18DF8025040F276414E
S2140037001148FDF76FF90FE00135EDB22AFA05F022
S21400371042464B46A0FB06010AF0EEF80124074697
S214003720E4E70CB18DF8025005486946C761FFF71B
S214003730CBFC04B0BDE8F0870002060000E100E024
S2140037400080014040420F00E0ED0000034B18608F
S214003750034B4FF080525A60704700BF6055002000
S21400376000E100E008B500210948FDF739FD002317
S2140037701A4619464FF04020FDF758F9054B4FF012
S2140037808052C3F88420BFF34F8FBFF36F8F08BDFE
S214003790006E040000E100E008B504F0A6FE044B4D
S2140037A0186800F0A5FBBDE8084004F0A1BE00BF05
S2140037B06055002008B504F098FE044B186800F029
S2140037C097FBBDE8084004F093BE00BF6455002098
S2140037D038B5054C04F089FEE56800F0B9FB656174
S2140037E0BDE8384004F084BE0080014008B50448B7
S2140037F004F03EFC0348BDE8084004F039BC00BFB6
S21400380030EE00003CEE00002DE9F041044608B919
S21400381004F0A2FC4FF0000874231B4F1B4EA3605D
S214003820414684F800806760E660062003F076FD77
S21400383041460546072003F071FD41460540082035
S21400384003F06CFDEDB2054201D104F085FC234681
S214003850082200210E4804F0B3F9237805462BB160
S21400386080236760C4E90236BDE8F081082104F0D1
S21400387021F9284603F0A8FCFEF7E3FE054B1D6081
S214003880BDE8F041FEF7E3BE80EE0000CFEE00009C
S214003890B9EE0000201300202DE9F04104468846CA
S2140038A015460AB904F058FC2946204604F02EFCBA
S2140038B02F7806464FB1204B6B60AC23AB601F4B96
S2140038C0EB6000242046BDE8F08100B9FEE70378EF
S2140038D00E2B00D0FEE739462B462422184804F06B
S2140038E06FF92978044619B1134B6B60B823E5E7E6
S2140038F0D6E9012342601A68C260DA6802611A7A61
S21400390002775B7A4377C0E90511C0F820802A4623
S2140039100C4803F01DFE2B78A0600BB104F01CFCD5
S214003920FEF78FFE084B05462146186803F04FFC4D
S2140039302846FEF78CFEC5E780EE0000DBEE0000B2
S2140039405CEE000071EE0000201300202DE9F74F1A
S2140039500E9CBDF83090BDF834A005468B46174641
S21400396098460CB904F0F8FB002323702149224A3C
S21400397061604FF4A373A360E2602DB90B2323703C
S2140039804FF4A473A360FEE7EE6809F1010308EBA9
S21400399007053046CDE900121D44FDF72BF80BFB5A
S2140039A005F3DDE90012B0FBF3F34BB908232370EF
S2140039B061604FF4AA73C4E9023203B0BDE8F08F29
S2140039C0B0FBFBF0013BB0FBF3F3093B112B05D931
S2140039D00823237061604FF4AE73ECE743463A4623
S2140039E059463046CDE90C9A03B0BDE8F04FFDF7D6
S2140039F027B800BF80EE0000F3EE000038B505469D
S214003A000C4609B904F0A8FB002323700B4B636037
S214003A1040F27B13A3600A4BE3602DB908232370A2
S214003A2040F27D13A360FEE7FEF70BFE054B1B6816
S214003A305D60BDE83840FEF70ABE00BF80EE0000BD
S214003A4004EF00002013002084B02DE9F0418CB074
S214003A50054613A880E80E00179CDDE914760CB91D
S214003A6004F07AFB274A626040F2E5120023A26067
S214003A70254A2370E2602DB90B23237040F2E7132A
S214003A80A360FEE7B7F1005F02D2B6F1005F09D38C
S214003A900823237040F2ED13A3600CB0BDE8F0419C
S214003AA004B07047B7F5006F28BF0123B6F5006F66
S214003AB08DF815309DF85800D5F80C809DF84C20F0
S214003AC0297F8DF8142034BF002301238DF82C3075
S214003AD00023C01A4FF0010418BF0120CDE90130C1
S214003AE08DF82D30009340462346039406970A9699
S214003AF0FDF7F6F8297F009405AB22464046FDF711
S214003B0073F8CAE780EE000018EF000070B50546AF
S214003B100E4614460AB904F01FFB002323700B4B15
S214003B2063604FF40A73A360094BE3602DB90B235F
S214003B30237040F22A23A360FEE72EB908232370E1
S214003B404FF40B73A360FEE76E6170BD80EE00005D
S214003B5029EF000030B587B00546059114460AB92E
S214003B6004F0FAFA00232370124B636040F24623F7
S214003B70A360114BE3602DB90B2323704FF412732F
S214003B80A360FEE79DF816009DF81420697F0030BC
S214003B9018BF012002909DF8150000304FF0010379
S214003BA018BF0120CDE900300393E868FDF798F8C8
S214003BB007B030BD80EE00003CEF00002DE9F0437A
S214003BC089B0DDE9106481460D46174698460CB963
S214003BD004F0C2FA002323702A4B63604FF41E736E
S214003BE0A360294BE360B9F1000F05D10B232370C6
S214003BF040F27A23A360FEE72EB90A2323704FF41F
S214003C001F73A360FEE72FB90A23237040F27E23BA
S214003C10A360FEE72DB90A2323704FF42073A36038
S214003C20FEE7B8F1000F05D10A23237040F2822385
S214003C30A360FEE7D9F80C4099F81C902B7808AAE8
S214003C40494602F81C3D2046FDF744F99DF80C3025
S214003C50337004EB491140468B6E13F0804F8B6E29
S214003C6014BF23F06043C3F38A433B6032780DF100
S214003C700D0103F025FF9DF804302B7009B0BDE858
S214003C80F08300BF80EE00004DEF000038B505461B
S214003C900C4609B904F060FA002323700C4B6360ED
S214003CA040F2AD23A3600B4BE3602DB90B232370CA
S214003CB040F2AF23A360FEE7EC68697F2046FDF77D
S214003CC061F9297F2046BDE83840FDF75BB900BFA3
S214003CD080EE000057EF00002DE9F04F8BB0054650
S214003CE0169CBDF8548092462CB9CDE9001304F01A
S214003CF033FADDE900134FF00009324F324E84F8F4
S214003D00009040F2DD206760A060E6602DB90B23CE
S214003D10237040F2DF23A360FEE7149A2AB90A2331
S214003D20237040F2E123A360FEE7B8F1080F05D93F
S214003D300823237040F2E323A360FEE72348834270
S214003D4005D90823237040F2E523A360FEE70AF1B5
S214003D50FF301F28D5F80CB007D90823237040F28F
S214003D60EB23A3600BB0BDE8F08FA961424614991F
S214003D7004930DF115008DF814808DF80CA003F057
S214003D809FFE049BA868B3F5006F24BF01238DF83F
S214003D900D304FF4FA7223464FF0000138BF8DF80D
S214003DA00D9003F0C5FC23782BB14FF44173676088
S214003DB0C4E90236D6E7012303AA697F5846FCF712
S214003DC0E5FFCFE780EE000067EF0000FEFFFF1F75
S214003DD02DE9F04180460F4614460AB904F0BCF9B6
S214003DE000232370154E164D66604FF44973A3608A
S214003DF0E560B8F1000F01D104F0AEF9D8F80C80F8
S214003E00042F10D8DFE807F01803090B0D00012176
S214003E104046BDE8F041FCF785BE0221F8E70321E5
S214003E20F6E70421F4E7082323704FF45073666026
S214003E30C4E9023504F090F90021E9E780EE0000BD
S214003E4071EF00002DE9F04F9146264A05468A4656
S214003E5007CA85B00DF1040888E807001C460BB9B0
S214003E6004F07AF9002323701F4F204E6760EE237C
S214003E70A360E66025B90B232370F023A360FEE75A
S214003E80D5E903B313B11B6803B198472B691BB17F
S214003E90DB680BB15046984741465846CDF8089027
S214003EA0FDF78CF801212246A86803F0BBFB2178B9
S214003EB039B14FF48373C4E90236676005B0BDE8D4
S214003EC0F08F22462846FFF783FF2378002BF5D194
S214003ED02B69002BF2D09B68002BEFD02846984722
S214003EE0ECE700BF50EE000080EE0000E6EE0000BB
S214003EF0F0B5054685B008B904F02EF9EC6866689A
S214003F00E76B236B26F00706310707EA03070DD594
S214003F10AB690BB1284698476A460021A86803F0AB
S214003F2059FB9DF800300BB104F016F9F20608D5DF
S214003F3023699B0605D06B691BB12169286AC9B243
S214003F409847636823EA06066660A76305B0F0BD77
S214003F50024B1B685B6803B11847704720130020AC
S214003F602DE9F04FDFF870918DB04FF000084F4606
S214003F7000226B461146D9F8180003F0D9FB9DF8CD
S214003F8000300BB104F0E8F8FEF75BFBBC68E368B2
S214003F90227C1A776368BB6003B9FB60FEF757FBA9
S214003FA0237A032B4FD8DFE803F07C8A5D02E568AE
S214003FB0464B099305F1140B40F239330A9308AACD
S214003FC0434B8DF8208004A958460B9300F0BAFCAA
S214003FD09DF820A0BAF1000F35D195F83860B106EB
S214003FE010D504A905F1640002F094FE50B108A9AA
S214003FF003F09AF8012804D808AA04A9584600F045
S214004000B1FC5646F20710D505F12C0A08AA04A9F9
S214004010504601F029FD002806DA08AA04A95046F1
S21400402001F032FB002800DB002673060BD5C835EE
S21400403004A9284601F0C6FF011E04DB04AA89B2C3
S214004040284602F06BF884F81080C4F80C80FEF75F
S214004050F8FA214605461F4803F0B9F82846FEF749
S214004060F6FA85E7FEF7EDFA3D6815B9FEF7EFFAC2
S214004070E9E705F13C06FEF7EAFA6946304601F044
S2140040805BF89DF8003082460BB104F065F8BAF193
S214004090010F02D1304601F07FF8FEF7D2FA2D6804
S2140040A0E3E7E0686269617C6B46203001F03AFE27
S2140040B09DF80030002BC6D004F04EF8C3E7E06849
S2140040C0617C6A46203001F052FEF1E7DAEF00002C
S2140040D06DF0000028130020241300202DE9F7437C
S2140040E0474DEA681821034604464A434548A968EE
S2140040F003F066FD23780646A8460BB104F02CF8BC
S2140041004148DFF8049103F05FF800251827D8F837
S2140041100C30AB4242D83D483D4F3E4E03F054F87B
S214004120002540F29A2325706760A360E660294662
S214004130284603F0F3F8C0B12946062003F0EEF84F
S21400414098B12946072003F0E9F870B129460820FF
S21400415003F0E4F848B12946022003F0DFF820B166
S2140041602946032003F0DAF8F8B903F0F5FF00213A
S21400417022462948254D03F0EBF92178A861D9B1EC
S214004180676040F2A923C4E9023623780BB103F036
S214004190E3FF01232B7403B0BDE8F08307FB056142
S2140041A0484603F014F80135B1E72946042003F029
S2140041B0B5F80028DBD1D8E7224603F033FA237897
S2140041C01BB1676040F2B123DDE70094D8E9002117
S2140041D0124803F0ABF8227868611AB1676040F2C3
S2140041E0BB23D0E70923CDE900240D4903F0FEF8F0
S2140041F02378002BC9D0676040F2C623C3E700BF10
S2140042003410002080EF0000281300202413002024
S214004210DAEF000059F0000093EF0000A2EF000074
S214004220613F0000002370B50B70144B4B604FF4D9
S214004230CA730C468B60124BCB600546084600F0EE
S214004240D5FB2378CBB92146284600F09BFB237884
S2140042509BB905F12C0622462946304601F06BFB39
S214004260237853B9284601F063FB012805D121467F
S2140042703046BDE8704001F075BB70BDDAEF000057
S21400428031F000002DE9F74F144602AA4FF0000B5C
S214004290254F264D02F801BD40F2F713A36088466D
S2140042A0234684F800B06760E5602149064600F0C2
S2140042B0A5F92378B946AA4683B340F2FF13C4E9AA
S2140042C0023584F800B0676003B0BDE8F08F0135B2
S2140042D0EDB29DF80730AB42F6D3224647EA0521F9
S2140042E0584600F0F9F82378002BF0D181680B7B54
S2140042F04345ECD1D6F81C31002BE8D05B69002B87
S214004300E5D0304698470128E1D0012323704FF4CA
S2140043100473C4F80490C4E9023AD5E70125044FB3
S21400432006F1080BD5E700BFDAEF000043F0000007
S214004330000010102DE9F347914600221A70464AF5
S2140043405A60464F40F20F129A60454ADA601D46A0
S21400435082460E464FF49072B968424803F030FC2D
S21400436095F800800446B8F1000F03D0002002B094
S214004370BDE8F0874FF4907103F09CFBB369C4F876
S214004380C4307368C4F80831337884F80C3102A955
S2140043904FF6FF73E3863B6963600127C4F810A1FC
S2140043A0C4F81881C4F81C9101F8047D2A462E48EA
S2140043B003F06AF82B78C4F81401002BD6D1B38A20
S2140043C03269214604F13C0000F053FF2A4621469C
S2140043D004F1140000F09AFA2B78002BC6D12B4675
S2140043E0B268214604F1080000F064F82B78002B30
S2140043F0BCD139462A462046FFF744FF29780029D3
S214004400B4D12A462046FFF73DFF2B78002BADD1CE
S2140044102A46214604F1640002F060FC2B78002B4B
S214004420A4D1214604F1DC0002F078F9214604F11B
S214004430C80001F0C1FCF26842B12B46214604F1E7
S214004440200001F033FC2B78002B8FD10748214643
S21400445002F0BDFE20468AE7DAEF000034100020A6
S21400446021F00000B6EF0000C3EF00002413002088
S214004470F0B50F4D044685B0281D02F0ACFE074689
S21400448006460FCC0FC694E80300EA68002386E8C9
S21400449003007B602B4602B157609A68DF6002B962
S2140044A09F606A460021986903F094F805B0F0BD55
S2140044B02413002070B500230C265C1C06FB042188
S2140044C09DB251F80C1C21B902600581416018B2FA
S2140044D070BD2346F1E70000F0B5134C54604FF46E
S2140044E0F874002394600589104C07681370D46034
S2140044F021F0FF014FF00C0CEC1A03EB64040CFBEC
S21400450004F6B819BE5926F0FF068E420BD08CBFB3
S21400451004F1FF35631CAB42EEDD0F23137040F24F
S214004520032393600020F0BD81F00000C8F0000077
S2140045302DE9F04786B099460E9CC6682D4FE76079
S2140045400023237040F23123A3603368924623F0A1
S214004550FF03294A626099420546904607D02246E4
S2140045600830FFF7B9FF237806468BB9E86049465E
S2140045702246304600F040FA217849B981450AD0F3
S21400458036232370C4F8048040F24623C4E9023779
S21400459006B0BDE8F087336803F00303012B0DD0A7
S2140045A02346D5F81821D5F8140103F06DF82378C2
S2140045B023B1C4F8048040F24F23E7E7019495F84E
S2140045C00C31009352464B463146284600F00EFB0F
S2140045D0336803F00303012BDAD002A9D5F81401DF
S2140045E002F08AFF9DF80830002BD1D003F0B4FD0E
S2140045F0CEE700BFD9F0000081F0000007B50093B9
S2140046000123FFF795FF03B05DF804FB07B50093A1
S2140046100223FFF78DFF03B05DF804FB07B5009398
S2140046200423FFF785FF03B05DF804FB2DE9F04394
S21400463089B09946109CC66803920023237040F206
S2140046408323A36033682A4A2A4F626023F0FF035D
S21400465099420546E760904607D022460830FFF7A5
S2140046603BFF237806468BB9E8604946224630462B
S21400467000F0C2F9217849B981450AD03623237063
S214004680C4F804804FF42673C4E9023709B0BDE8C5
S214004690F083336803F00303012B0DD02346D5F8CF
S2140046A01821D5F8140102F0EFFF237823B1C4F8DF
S2140046B0048040F2A123E7E7019495F80C310093BB
S2140046C003AA4B463146284600F07CFB336803F0CD
S2140046D00303012BDAD004A9D5F8140102F00CFF6D
S2140046E09DF81030002BD1D003F036FDCEE700BF8A
S2140046F081F00000ECF0000007B500930123FFF7FF
S21400470095FF03B05DF804FB07B500930423FFF79D
S2140047108DFF03B05DF804FB8368586811B18842CA
S21400472028BF0846704770B58D68D5E90140241A41
S2140047309C4228BF1C462B68164618442246314623
S21400474003F0BEF9AB682344AB6070BD38B58D6826
S214004750D5E90141641A9C4228BF1C462B681046C6
S2140047601944224603F0ACF9AB682344AB6038BD6D
S214004770012A009802D18A6893607047012303706B
S214004780034B43604FF4AA738360024BC3607047C9
S21400479010F1000057F100007FB5002303908DF85C
S2140047A011300593684603238DF810108DF80830F5
S2140047B0FFF75EFE07B05DF804FB7FB500230393AA
S2140047C0ADF810300593684602238DF80830FFF7E1
S2140047D04FFE07B05DF804FBF0B589B001270D4623
S2140047E0ADF80C708DF80E700A460646039980697F
S2140047F0FFF7B0F92B78002B40F0858072698DF8B2
S2140048001C3092F80C2105927F220692079B019598
S2140048100A220492009304AC94E80E00B069FFF7F5
S21400482013F92B78002B6ED1059340F2FF73069395
S21400483002230493079B0195009394E80E00B06949
S214004840FFF702F92B78002B5DD103238022CDE9F8
S2140048500432079B0195009394E80E00B069FFF7B9
S214004860F3F82B78002B4ED14FF4007E4FF4F06314
S214004870CDE905E304230493079B0195009394E890
S2140048800E00B069FFF7E0F82B78002B3BD105232C
S2140048904FF4407CCDE9043C079B0195009394E8D7
S2140048A00E00B069FFF7D0F82B7863BB06234FF4F1
S2140048B08060CDE90430079B0195009394E80E00D4
S2140048C0B069FFF7C1F82B78EBB907234FF4A06166
S2140048D0CDE90431079B0195009394E80E00B0697A
S2140048E0FFF7B2F82B7873B909234FF4E062CDE9ED
S2140048F004328DF81C70079B0195009394E80E0017
S214004900B069FFF7A1F809B0F0BD000070B5054624
S2140049101446296010460E46FEF776FF237873B9D4
S21400492022463146D6F81001FEF7B6FF23786860B7
S2140049302BB922460249BDE87040FFF7E7B870BDC4
S2140049409947000007B5037A4B7301F10C030192F7
S21400495000930A460B1D40680D31FFF72FF903B090
S2140049605DF804FB1FB501244C7302920B7B019388
S2140049700B1D00930B68406822460021FFF7ACF938
S21400498004B010BD30B50D460B46D0F8082141687E
S21400499085B004468069FFF755FA2B78A3B9022341
S2140049A00122CDE9003208231A460295D4F80811F0
S2140049B0A069FEF7CBFF2B7833B92946204605B011
S2140049C0BDE83040FFF708BF05B030BD38B50D462E
S2140049D004464068FFF75AF92B782BB92946206819
S2140049E0BDE83840FFF7F8BE38BD00000146014874
S2140049F0FFF704B8BB47000010B4446803462CB168
S214004A0024681CB123465DF8044B18471B685DF804
S214004A10044BC3F3011301209840704730B44D682F
S214004A20029C25B1AC685CB1A44630BC60470C2340
S214004A302370044B636040F2BF13A360024BE36035
S214004A4030BC70476AF10000C6F1000030B4029C2A
S214004A50002525700A4D65604FF40375A560094D65
S214004A60E5604D6825B1EC683CB1A44630BC6047B3
S214004A700C23237040F21B23A36030BC704700BF9A
S214004A806AF10000F1F1000030B50468250618D57B
S214004A90012A02D183680B7030BD022A02D18368D6
S214004AA00B80F9E7042A02D183680B60F4E708223A
S214004AB01A70294A5A6040F243229A60274ADA60FE
S214004AC0EAE7806830B906221A70234A5A604FF423
S214004AD01272F2E7C4F301140125A540012AEDB2D3
S214004AE011D10CB90378D6E7012C01D10388D2E79F
S214004AF0042D01D10368CEE708221A70164A5A60C0
S214004B0040F25222D9E7022A11D10CB90378C7E73E
S214004B10012C01D10388C3E7042D01D10368BFE748
S214004B2008221A700C4A5A6040F25D22C5E7042A31
S214004B30B2D10CB90378B8E7012C01D10388B4E7E9
S214004B40042D01D10368B0E708221A70024A5A60A1
S214004B504FF41A72B1E700BF6AF1000006F20000D7
S214004B60F7B502AD002445F8044D164613460F6807
S214004B7004222946FFF788FF33782BB90198C31B18
S214004B805842584103B0F0BD2046FBE72DE9F347F5
S214004B904D680A9C82460E4690461F463DB1AB685D
S214004BA0DBB1D5F80490B9F1000F03D157B902B0C4
S214004BB0BDE8F087002300940122C8472378002B25
S214004BC0F4D0F4E70A94AC683B4642463146504679
S214004BD0A44602B0BDE8F047604723463A46414641
S214004BE0304602B0BDE8F047FFF74EBF2DE9FF4163
S214004BF004AD1F46002345F8043D4B680B9C8846D1
S214004C001646ABB1009404232A46FFF7BFFF23786D
S214004C105BB9D8F800305B0611D4022F15D0042FEC
S214004C2016D0012F17D1039B337004B0BDE8F08176
S214004C302346042229464046FFF726FFE7E7039B64
S214004C409DF8282013440393E7E7039B3380ECE7A3
S214004C50039B3360E9E703F07FFAE6E730B44D687C
S214004C60029C15B130BCFFF791BF0C232370044B98
S214004C7063604FF4C873A360024BE36030BC7047B8
S214004C806AF10000B0F1000030B50468250616D5BC
S214004C90012A02D10B78836030BD022A01D10B882D
S214004CA0F9E7042A01D10B68F5E708221A702B4AA7
S214004CB05A6040F292229A60294ADA60ECE78068ED
S214004CC030B906221A70254A5A6040F29722F2E757
S214004CD0C4F301149CB9012A02D10B780370DBE7F8
S214004CE0022A01D10B88F9E7042A01D10B68F5E7FF
S214004CF008221A70194A5A6040F2A122DBE7012501
S214004D00A540012CEDB213D1012A02D10B78038005
S214004D10C2E7022A01D10B88F9E7042A01D10B6801
S214004D20F5E708221A700D4A5A604FF42B72C2E754
S214004D30042DB1D1012A02D10B780360ACE7022A18
S214004D4001D10B88F9E7042A01D10B68F5E70822A0
S214004D501A70024A5A6040F2B722ACE76AF10000C5
S214004D601AF200002DE9F3474D680A9C82460E466B
S214004D7090461F463DB1EB68DBB1D5F80490B9F11B
S214004D80000F03D157B902B0BDE8F08700230094A6
S214004D900122C8472378002BF4D0F4E70A94EC6885
S214004DA03B46424631465046A44602B0BDE8F04770
S214004DB0604723463A464146304602B0BDE8F047D3
S214004DC0FFF762BFF0B585B00D46022B4FF000012D
S214004DD007460B9E039131D0042B31D0012B31D1E5
S214004DE0137803932C68630641BF039B9DF8282025
S214004DF09B1A039314F0040407D0324603A92846EE
S214004E00FFF7AEFE33780446B3B96B68EBB1009695
S214004E10042303AA29463846FFF7A4FF64B933786B
S214004E2053B96B68104A934216D1009601225E6809
S214004E30234629463846B04705B0F0BD1388D0E76C
S214004E401368CEE703F088F9CCE73346042203A9BB
S214004E502846FFF719FFE1E7044A9342ECD1009693
S214004E6002225E682346E4E7C8F50000D8F5000095
S214004E7030B44D68029C15B130BCFFF773BF0C23ED
S214004E802370044B63604FF4F573A360024BE3603A
S214004E9030BC70476AF10000DBF10000F0B58469B1
S214004EA094B1456A00238D422FD2CBB92668CEB97D
S214004EB043691F6847614F1BDF60C3E901221E601C
S214004EC0236026463446EEE743691D684561056A59
S214004ED0D9600D44C3E901221C608361416205620A
S214004EE00120F0BDF7683D44A942EBD243691F6834
S214004EF047611E6023601F68FE680E44761BDE60F6
S214004F006E1AC3E90122FE60DBE7002BE8D18D4272
S214004F1003D1A3685A60A260E2E70FD943696D1A0D
S214004F201E684661D960C3E901221C608361E560A2
S214004F30DA68036A426213440362D1E71846D0E790
S214004F402DE9F74F0D9DDFF87C90DFF87C80C5F8E3
S214004F5004900646924600278822B94208BF51466A
S214004F60AA602F70C5F80C8001930091FDF769FBCD
S214004F703469019B62683261A3600C9B676083465C
S214004F80C4E9033A224600993046FFF787FF012816
S214004F9015D0336963601123C4E90377A7603461D1
S214004FA02B70A323C5E90238C5F804904FF0FF34F0
S214004FB05846FDF74CFB204603B0BDE8F08FB4F929
S214004FC00040F5E72EF2000074F200002DE9F047ED
S214004FD0CA2305460024DFF85891DFF8588193600D
S214004FE01470C2F80490C2F80C800F461646FDF7FF
S214004FF028FBAB691FFA87FA1A46002B41D0CCB1C2
S2140050000021C4E90311A160296961602C61002BAD
S2140050105ED0596800295DD00124FDF718FB3CB925
S214005020012333704FF49273C6E90238C6F8049031
S214005030BDE8F087D3F804E0BEF80010DEF804C040
S214005040514514D1C3F804C07446D6E7BCF8001026
S214005050514509D1DCF80410CEF80410DCF8041031
S21400506009B9C3F808E06446E646DCF804C0BCF1BB
S214005070000F02D0002CE9D0BFE7002CBDD11B6882
S214005080BBE7002CBCD1EB691FFA87FCF3B1002C00
S214005090B6D15F68B7F800E07968E6450ED159608A
S2140050A03C46F3E7B1F800E0E64505D14C687C6085
S2140050B04C6804B99F600C460F46496811B1002C35
S2140050C0F0D0E3E7002CE1D11B68DFE7002C97D196
S2140050D00024A2E79A429960144612D1146834B9A3
S2140050E0C5E90844AC616B6913606A6194E7E368DC
S2140050F0696A0B44296AE3606B620B44AC612B62FD
S214005100F1E722689A420BD11F6827601A681AB125
S214005110FA68D9680A44FA606A691A606B61002303
S2140051202468002C3FF478AF002BEAD174E700BF68
S2140051302EF2000086F20000002310B50B70144B10
S2140051404B6040F23F1304468B60124BCB60FDF77A
S21400515078FA636A23B90024FDF779FA204610BD71
S214005160013B6362002BF6D1A2691168A16113604E
S21400517049B1C968236A61620B442362E3692BB9AB
S214005180E2610124E8E7C4E90811F7E71360F7E7EE
S2140051902EF2000095F200002DE9F04705460026A5
S2140051A0EB690BB9BDE8F087FDF74BFAEB691A68B7
S2140051B0EA616A695C68DE60C3E901661A606B6171
S2140051C0FDF745FA002CEBD0236967686660D4E9E2
S2140051D0028963B9C4E90233FDF733FA2B696360C9
S2140051E02C61FDF734FA4846C0473C46EAE7FDF72F
S2140051F028FA2246216982462846FFF74FFE0446D3
S2140052005046FDF724FA012CEDD002F0A5FFEAE7A0
S214005210F8B50446D0E90265FDF713FAE268626164
S2140052200023A2686362C4E906332261D4F804C08E
S21400523031461C464FF0240E9FB27A1C92B262454D
S21400524003D9BDE8F840FDF702BA3FBF0EFB026285
S2140052504A6014322A6024BF4C602C6001330F80F1
S214005260C1E902440C61EC60C5E9014449682D6857
S214005270E2E710B4C0E9001302F11403C0E9022308
S2140052805DF8044BFFF7C4BF7FB500238DF80030F0
S214005290294B0193046840F2FD130293274B0393B6
S2140052A00546FDF7CEF9B4F936100029064608DBA8
S2140052B06A462846FFF78AFE9DF800300BB102F0DA
S2140052C04BFF4FF6FF73E3863046FDF7C0F9B4F99F
S2140052D0EC30002B14DBFDF7B4F96A460646B4F949
S2140052E0EC102846FFF772FE9DF800300BB102F076
S2140052F033FF4FF6FF73A4F8EC303046FDF7A7F9FE
S214005300B4F9F030002B14DBFDF79BF96A4606462D
S214005310B4F9F0102846FFF759FE9DF800300BB19F
S21400532002F01AFF4FF6FF73A4F8F0303046FDF790
S2140053308EF904B070BD00BF2EF20000A5F200008A
S21400534013B58868847A018902A841EA044140F8C6
S214005350041D00218B4201D0042901D102B010BDEA
S2140053600C5C54540131F5E730B587B0184B046B2C
S214005370039340F2E9130493164B059323890546DD
S2140053804FF47A7140685943002288428DF808200D
S2140053901CD8B1FBF0F102ABCDE9004305F13C00AF
S2140053A00D4BFFF7CDFD9DF80830E0800BB102F005
S2140053B0D3FEE37AFF2B1CBF0133E372D5F81C3112
S2140053C023B1DB6813B1A17A2846984707B030BDF1
S2140053D0B4F2000053F30000695300002DE9F041D9
S2140053E006464068069D0C460027014651B9A37242
S2140053F04FF6FF732281E380E172217112B32060C1
S21400540074602FE091F80A80984520D00F4609680E
S214005410ECE7B4F90610002908DB30682A463C3071
S214005420FFF7D4FD2B780BB102F096FE00234FF663
S214005430FF722381E372237184F80A80E280236876
S2140054401FB97360002323600CE03B60FAE7002A74
S214005450DFD08F232B70044B6B604FF4AA73AB60C6
S214005460024BEB60BDE8F081B4F2000022F30000CE
S2140054702DE9F0418F6886B005460E460C9C5FB954
S21400548008232370264B636040F22B23A360254B32
S214005490E36006B0BDE8F081042B06D00823237035
S2140054A01F4B636040F22F23F0E70B68D2F80080B2
S2140054B003F00303012B0ED02346D0F81821D0F8B2
S2140054C01401002102F0E0F8237823B1144B636046
S2140054D04FF40F73DAE7C8F3074300941FFA88F215
S2140054E0394605F12C00FFF779FF336803F0030314
S2140054F0012BCED000238DF80830094B03934FF4D0
S2140055001373049302A9074BD5F81401059301F011
S214005510F3FF9DF80830002BBBD002F01DFEB8E765
S214005520B4F200006CF300002DE9F04F0568DFF8D8
S21400553050B1DFF850A18BB0002343608DF81830CF
S214005540E12205F108030C46089206460A4618466C
S2140055504A49CDF81CB0CDF824A00393FEF7BCFF53
S214005560217881465F46D04691B9036803F003036D
S214005570012B10D02346D5F81821D5F8140102F0D7
S21400558083F823783BB1F323C4E9023AC4F804B0A5
S2140055900BB0BDE8F08F00230093019401230DF1BA
S2140055A0170249462846FFF721FBD9F8003003F0DA
S2140055B00303012B09D006A9D5F8140101F09CFFBE
S2140055C09DF818300BB102F0C7FD2378002BDFD111
S2140055D09DF81730002BDBD0DFF8A0B09DF8171031
S2140055E00029D5D022464BEA01210398FEF774FF26
S2140055F0814630B9207067604FF48573C4E902387D
S214005600C6E7D0F808A0BAF1000F05D18A232370A8
S214005610676040F20F13F1E7036803F00303012B02
S2140056200CD0002223461146D5F8140102F02CF8BF
S21400563023781BB1676040F21913DFE79AF80A3047
S214005640BAF80820009451463046FFF7C7FED9F84E
S214005650003003F00303012B09D006A9D5F8140186
S21400566001F04AFF9DF818300BB102F075FD9DF869
S2140056701730013B8DF81730B0E700BF000016105A
S214005680B4F200000CF30000F7B544680B68064659
S2140056900F46154654B1A3F5E0627F2A06D8DBB262
S2140056A0A27A9A4205D02468002CF9D14FF0FF3038
S2140056B035E0B4F90610002908DB30682A463C308D
S2140056C0FFF784FC2B780BB102F046FD3068238987
S2140056D0D0F804C04FF47A7159438C4521D8B1FBF9
S2140056E0FCF1CDE90005144B00223C30FFF728FC06
S2140056F02B78E0800BB102F02FFD387900F0E7F947
S21400570023798342054608D03068D0F81C3123B18F
S2140057101B6913B12A46A17A9847A07A257103B06F
S214005720F0BD08232B70054B6B604FF4D973AB604C
S214005730034BEB60BAE700BF69530000B4F2000009
S2140057403CF300007FB50E46B0F936101368089C8F
S214005750ADF80E30002905460ADB22463C30FFF73E
S21400576035FC23780BB102F0F7FC4FF6FF73EB869F
S214005770BDF80E3043B34FF47A725A436B689342C7
S21400578018D8B2FBF3F205F12C0300930194104BEA
S214005790114605F13C00FFF7D3FB2378E8860BB1F2
S2140057A002F0DAFC234602220DF10E013046FFF726
S2140057B06BFA07E008232370064B6360F323A360AD
S2140057C0054BE36004B070BD4FF6FF73EB86E9E768
S2140057D0DD57000080F3000004F4000010B588B028
S2140057E000238DF81030104B0593AA2306930F4B19
S2140057F00793037BDB07044613D5007A00F078F99D
S21400580024688DF8040094F80C3103F5E0630093E7
S21400581004AA0123694604F114008DF80C30FFF742
S214005820A1F808B010BD00BF80F30000EEF3000042
S2140058307FB506680C460B4605460DF10E021B4961
S2140058403046FEF7E3FE237803BBB5F90A100029BD
S21400585008DB224606F13C00FFF7B8FB23780BB1C5
S21400586002F07AFCBDF80E30DBB14FF47A725A4380
S214005870736893420CD8B2FBF3F2CDE900540C4B9C
S214005880114606F13C00FFF75BFB688104B070BD73
S21400589008232370074B63608923A360064BE360ED
S2140058A0F4E74FF6FF736B81F0E700BF00001710B8
S2140058B0DD57000080F30000D8F30000002370B529
