S02300006275696C642F64656275672F6D69637269756D6F735F7765626D69632E733337AE
S2140000000010002001050000FD040000FD040000B3
S214000010FD040000FD040000FD040000FD040000D7
S214000020FD040000FD040000FD040000FD040000C7
S214000030FD040000FD04000083310200FD04000002
S214000040FD040000FD0400002D070000FD04000074
S214000050FD040000FD040000FD040000FD04000097
S214000060FD040000FD040000FD040000FD04000087
S214000070FD040000FD040000FD040000FD04000077
S214000080FD040000FD040000FD040000FD04000067
S214000090FD040000FD040000FD040000FD04000057
S2140000A0FD040000FD040000FD040000FD04000047
S2140000B0FD040000FD040000FD04000049480200A5
S2140000C0FD040000FD040000FD040000FD04000027
S2140000D0FD040000FD040000FD040000B15702000E
S2140000E0BD570200FD040000FD040000FD040000F2
S2140000F0FD040000FD040000FD040000FD040000F7
S214000100FD040000FD040000FD040000FD040000E6
S214000110FD040000FD040000FD040000FD040000D6
S214000120FD040000FD040000FD040000812E000018
S214000130FD040000FD040000FD040000FD040000B6
S214000140FD040000FD040000FD040000FD040000A6
S21400015010B5054C237833B9044B13B10448AFF3FC
S21400016000800123237010BD143F00200000000013
S2140001706000060008B5034B1BB103490348AFF304
S214000180008008BD00000000183F00206000060048
S214000190154B002B08BF134B9D46A3F5803A002154
S2140001A08B460F461348144A121A26F07AFC0F4B59
S2140001B0002B00D098470E4B002B00D0984700200D
S2140001C0002104000D000D48002802D00C48AFF3B3
S2140001D0008026F027FC2000290025F05FFD26F091
S2140001E00DFC00BF0000080000100020000000000A
S2140001F000000000143F002038F506200000000034
S2140002000000000008B5042201231046194602F03B
S214000210BBF9002008BD08B50422012309210020EF
S21400022002F0B2F9002008BD08B50121054800F02B
S21400023099FB25F00FFAFFF7E5FFBDE80840FFF74A
S214000240EABF00BF00550A000121014800F08ABB42
S21400025000550A002DE9F0411A4E04468846174616
S2140002600FCE86B06D460FC596E8030085E80300FE
S21400027001211548256800F075FB6068012100F033
S21400028071FB617B207B0023042202F07DF90023B2
S2140002900422617A207A02F077F928466946CDF87A
S2140002A00880ADF8107002F077FC237CA27B1B065A
S2140002B043EA0223AB6700200A236B6706B0BDE85B
S2140002C0F08100BF8023050000550A0070B506685F
S2140002D00C468D18AC4201D1002070BD14F8011BED
S2140002E0304602F001FDF5E7026813699B06FCD56F
S2140002F07047000013B5044624F056F9217B00230E
S2140003000122CDE900324900034AB0FBF1F103486F
S21400031024F088F802B010BD21030000303F002012
S214000320024B4FF400629A61704700BF008008409D
S21400033073B50E4B0E4E4FF480441C600546407B52
S21400034024F0B6FA02A9042321F8023D0222304620
S214000350FFF7BCFF3046FFF7C7FFA87B24F0A8FADC
S214000360044B00201C6002B070BD00BF6C800846C5
S214000370001000206C80084438B50446012112485D
S214000380124D00F0EFFAA16811480022FFF762FF55
S214000390002304220E21022002F0F6F80023042295
S2140003A00B21184602F0F0F894E80F0085E80F00DD
S2140003B0084B012220461A70FFF79CFF2046FFF7E5
S2140003C0B7FF002038BD00BF00550A004C3F002094
S2140003D000100020483F00202DE9F04F994605798F
S2140003E00388DFF89CA05D43244B14464FF48042FC
S2140003F01A60013485B0A4B20646407B884604AF36
S21400040024F056FA230243F0010327F8023D0222A5
S21400041039461B48FFF75AFF09F1FF33ED104FF03E
S214000420000B01930134CB450DD11548FFF75CFF57
S214000430B07B24F03DFA134B4FF4804200201A6044
S21400044005B0BDE8F08F2A4641465046FFF73EFF0E
S214000450019B5B451BBF04EB0B0212024FF6FF72BB
S21400046042F0FF02ADF80E20394602225046A8445C
S214000470FFF72CFF0BF1010BD5E700BF6C80084699
S214000480001000206C800844034B04481B78002BA7
S21400049008BF0020704700BF483F00204C3F0020A8
S2140004A01FB5054B0FCB6C4684E80F002046FFF7C0
S2140004B063FF04B010BD00BF982305001FB51446A7
S2140004C052B16A4607F02CFC20609DF80000003010
S2140004D018BF012004B010BD0120FBE7054A0649FD
S2140004E01368184488428CBF4FF0FF3310601846DC
S2140004F0704700BF1410002000000820FEE7000030
S21400050008B500F079F8064B0649074A8B4201D336
S214000510FFF73EFE52F8040F43F8040BF6E700BF61
S21400052000100020143F00206400060000487047BA
S21400053000A24A04174AD2F8943003F00703023B9D
S214000540042B1FD8DFE803F00620031A0800124B1E
S2140005501B680AE0114BFBE79368C3F30443073BB1
S214000560072B14D80E4A52F823300A4AD2F8000154
S214000570C0F304200130B3FBF0F07047094B1B6852
S2140005805B08F2E7074BE3E74FF40043EDE7002391
S214000590EBE700BF00400E40241000201C10002097
S2140005A0A82305002010002008B5FFF7C3FF054B61
S2140005B0D3F80831C3F308230133B0FBF3F0024B42
S2140005C0186008BD00400E4018100020014B186847
S2140005D0704700BF1C100020054B1860054BD3F871
S2140005E0943003F00703022B01D1FFF7DDBF7047FD
S2140005F01C10002000400E40044B054A9A60D3F8B9
S214000600882042F47002C3F88820704700ED00E0AE
S214000610000000004FF4004070474FF47A707047B7
S214000620014B1868704700BF2410002038B5104BE7
S2140006301B780546BBB1C0B101F0C5FB0D490023D0
S21400064001EB0312147B3CB92B6001231373146077
S21400065001F0BFFB204638BD0133182BF0D101F066
S214000660B8FB0548F7E70548F5E70548F3E700BF98
S214000670DC4300205C3F0020048000F0028000F095
S214000680018000F013B5134B1868019000238DF815
S214000690043001F098FB104B1C7824B101F099FB54
S2140006A00E4802B010BD01221A7001F092FB0C48F1
S2140006B023462146C2181033B3F5C07F1173F9D113
S2140006C004230DEB03008DF8073001F0ADFF00208A
S2140006D0E7E700BFC8230500DC430020038000F0E6
S2140006E05C3F0020F8B50C4D2D787DB117280FDC47
S2140006F00A4E040135192F7B67B13351069B6B6098
S2140007000024AC6001F0D0FF2046F8BD0448FCE7AA
S2140007100448FAE70448F8E7DC4300205C3F002082
S214000720028000F0018000F0078000F02DE9F84319
S214000730174E326EF36E12EA030800D5FEE7154C2C
S214000740DFF854900127002518EA070F16D0236813
S214000750B7669BB1A16862680131A16028469847D8
S214000760637B012B0AD148B909EB4513197B1A7F25
S21400077060F3410160F3410219731A770135182DB1
S2140007804FEA470704F11004DED1BDE8F88300BF46
S214000790002000405C3F0020DC400020FEE7000018
S2140007A00C4B984210D90C4B984210D902220123C8
S2140007B00A490B600A49D1F8003123F0407343EA36
S2140007C00263C1F80031704700221346F0E70122A9
S2140007D0FBE700BF0048E8010090D0034000C84394
S2140007E000400E4038B54FF08043104C5B68C9B2ED
S2140007F0002304EBC30215798D4203D154F833501D
S214000800854211D20133072BF3D141F22A21084841
S214000810FFF7C4FF03224FF080414B6823F040737C
S21400082043EA02634B6038BD5279F4E7542405006E
S214000830272405001F2810B5044604D940F22511C8
S2140008400248FFF7ABFF0120A04010BDF8230500CB
S21400085038B54FF0804441F67133256C2364FFF7BA
S21400086065FE0021FFF7BEFF0DB10023236438BDEF
S214000870044B1B685B0603D4034A1368002BFCD1A9
S214000880704700BF3C300E40C800C64308B5FFF7AF
S214000890EFFF024B5868C0F3014008BD00300E4021
S2140008A0044BD3F84421D20703D4D3F84021104296
S2140008B0FBD1704700400E40B0F5004F38B50546F6
S2140008C004D340F6CB410A48FFF768FF6C1CB4FA25
S2140008D084F4C4F11F042046FFF7ACFF0138A84299
S2140008E004D040F6D1410248FFF758FF204638BDF5
S2140008F0CC2305004FF0804341F6713270B51E6C74
S2140009001A6405460C46FFF76DFF104B104A022C82
S21400091008BF13469D420F4B07D90F4A13600F4B73
S2140009209D4205D84FF0884306E00D4A1360F9E76C
S214000930002CF7D14FF08C434FF480521A601EB152
S2140009404FF0804300221A6470BD00BF80D543027A
S2140009500024F400020202000001004680F0FA02C1
S2140009600001004438B5C0F30323013B0E2B39D8F1
S214000970DFE803F03F423838081A1D202435282DBA
S214000980381732001E4C0023C0F3043513B1184646
S214000990FFF786FF04F1047405EBC404A40021608D
S2140009A038BD0023174CEFE70123174CECE7102364
S2140009B0164CE9E74FF48073154CE5E74FF48033A7
S2140009C0144CE1E781F001010023134CDCE781F0D1
S2140009D001010023114CD7E70023114CD4E7002374
S2140009E0104CD1E741F2C7710F48BDE83840FFF719
S2140009F0D5BE00230D4CC7E700230D4CC4E700BF4F
S214000A00B0400E40C4400E40E0400E40E8400E406D
S214000A10EC400E40F0400E4060410E4064410E40F7
S214000A20F0410E4050410E402724050000400E4085
S214000A30C0400E4008B5C0F30313013B0B2B00F279
S214000A40AB80DFE803F0060C101A2024282C6686FC
S214000A5092A5534BD3F80001C0F3042008BD504BB9
S214000A60D3F81401F8E74E4BD3F80001C0F3016049
S214000A700130FFF7DFFE0138F0E7494BD3F80C01F1
S214000A80C0F30820EAE7464BD3F81801F8E7444BD2
S214000A90D3F81C01F4E7424BD3F80801F0E7414BCA
S214000AA098422AD00ED8A3F5BA2398422BD003F545
S214000AB07033984215D041F66B113B48FFF76EFE37
S214000AC00020CBE7394B984205D0394B98420ED0E0
S214000AD0384B9842EFD1324BD3F82001C0F30230A6
S214000AE0C7E72F4BD3F8200100F00F00C1E72C4BCF
S214000AF0D3F82001C0F30120BBE7294BD3F820012F
S214000B00C0F30310B5E7264BD3F82001C0F303402B
S214000B10AFE7294B98420CD003F5A11398420ED0AC
S214000B20264B984212D11E4BD3F8280100F0030042
S214000B309FE71B4BD3F82801C0F3011099E7184B29
S214000B40D3F82801C0F30130043092E741F68F1144
S214000B50B3E71B4B984205D1114BD3F8300100F098
S214000B6003007BE741F69E11A7E7164B984205D097
S214000B70154B984206D041F6B6119EE7084BD3F8BF
S214000B805C01ECE7064BD3F85C01C0F3014065E777
S214000B90034BD3F8040173E741F6C3118DE700BF9A
S214000BA000400E40801618002724050000362C0052
S214000BB080262E0080002A0090171C0090071A003E
S214000BC0A0091400B8003200B900340008B5FFF7D9
S214000BD031FF013008BD0000C0F30313013B10B520
S214000BE00C460B2B00F21482DFE813F00C003400E6
S214000BF045005C00700084009800B8005E01CA01E1
S214000C00D601FE011F2904D941F6EB11D048FFF7A3
S214000C10C5FDFFF71DFECF48FFF7C2FD00F006FA40
S214000C20CD4AD2F8003123F4F85343EA0424C2F83C
S214000C300041FFF7B9FC0446FFF728FE01462046B0
S214000C40FFF758FEFFF776FCFFF7AAFDBDE8104059
S214000C5000F002BA1F2904D941F60121BC48FFF76B
S214000C609DFDBD4AD2F8143123F4F85343EA042418
S214000C70C2F8144110BD4B1EB3F5004F04D340F626
S214000C80DE31B648FFF78AFDB34AB4FA84F3D2F8E9
S214000C900041C3F11F0324F0407444EA0364C2F821
S214000CA00041E7E7B1F5007F04D341F60E21A848DE
S214000CB0FFF774FDA84AD2F80C3123F4FF3323F46F
S214000CC0807343EA0424C2F80C41D3E7B1F5007FF1
S214000CD004D341F615219E48FFF760FD9E4AD2F8E0
S214000CE0183123F4FF3323F4807343EA0424C2F854
S214000CF01841BFE7B1F5007F04D341F61D219448A3
S214000D00FFF74CFD944AD2F81C3123F4FF3323F44A
S214000D10807343EA0424C2F81C41ABE7B1F5007FB8
S214000D2004D341F624218A48FFF738FDFFF790FDEB
S214000D30894AD2F8083123F4FF3323F4807343EA58
S214000D400424C2F80841FFF72FFC0446FFF79EFD77
S214000D5001462046BDE81040FFF7CCBD804B9842C8
S214000D606ED023D87F4B984240D07F4B984251D0CC
S214000D70A3F57033984240F09080B1F5004F04D947
S214000D8041F636217248FFF709FD2046FFF794FD2D
S214000D9001460420FFF784FD6F4BD3F8200120F4B2
S214000DA0702040EA0140C3F8200163E76F4B984289
S214000DB005D06F4B98425AD06E4B98426DD1B4F521
S214000DC0004F04D941F692216148FFF7E7FC204620
S214000DD0FFF772FD01460420FFF762FD5E4BD3F875
S214000DE0200120F4E04040EA0130DCE7022904D983
S214000DF041F647215648FFF7D1FC4FF48020FFF715
S214000E004FFD554AD2F8303123F003031C43C2F895
S214000E1030412FE7B1F5004F04D941F664214C4824
S214000E20FFF7BCFC2046FFF747FD01460420FFF70E
S214000E3037FD494BD3F8200120F00F000843B2E7F6
S214000E40B1F5004F04D941F673214148FFF7A6FCDF
S214000E502046FFF731FD01460420FFF721FD3E4BFB
S214000E60D3F8200120F0F00040EA01109BE70829A3
S214000E7004D941F682213648FFF790FC2046FFF75A
S214000E801BFD01460420FFF70BFD334BD3F8200172
S214000E9020F4407040EA012085E74FF4D5512C48F5
S214000EA0BDE81040FFF77ABC334B98421DD003F5DF
S214000EB0A11398422FD0314B984245D1082904D926
S214000EC041F6A9212248FFF769FC2046FFF7F4FC0B
S214000ED001464020FFF7E4FC1F4BD3F8280120F022
S214000EE003000843C3F82801C4E6082904D941F6DC
S214000EF0B8211748FFF752FC2046FFF7DDFC0146F5
S214000F004020FFF7CDFC144BD3F8280120F030002A
S214000F1040EA0110E6E7A1F10F03702B04D941F671
S214000F20C7210B48FFF73AFC2046FFF7C5FC0146F1
S214000F304020FFF7B5FC084BD3F82801043920F40D
S214000F40405040EA0130CDE741F6D621A7E700BF82
S214000F50272405000148E80100400E40CC23050088
S214000F6080161800A00914008006160000362C0013
S214000F7080262E0080002A0090171C0090071A007A
S214000F80254B984205D102297FF637AF4FF4D7514B
S214000F9030E741F6F02182E7204B984205D0204BFF
S214000FA0984212D041F6093179E7032904D941F66F
S214000FB0FB211C48FFF7F2FB1B4AD2F85C3123F0FA
S214000FC003031C43C2F85C4154E6032904D941F6E6
S214000FD003311448FFF7E2FB134AD2F85C3123F4DE
S214000FE0403343EA0444EDE7B1F5007F04D341F60D
S214000FF011310C48FFF7D2FB0B4AD2F8043123F428
S214001000FF3323F4807343EA0424C2F8044131E634
S21400101041F6183143E700BFA0091400B8003200BB
S214001020B90034002724050000400E4008B503210F
S2140010300648FFF7D1FD03210548FFF7CDFD032144
S2140010400448BDE80840FFF7C7BD00BF40410500A3
S214001050504107006041090038B5FFF76BFA0546B6
S214001060FFF714FC022814D1164C174B2C44B4FB83
S214001070F3F404B1013C21461448FFF7ADFD2146C8
S2140010801348FFF7A9FD13482146BDE83840FFF78F
S214001090A3BD114C114B2C44B4FBF3F404B1013C3A
S2140010A021460A48FFF798FD21460A48FFF794FDB7
S2140010B00B490C4B2944B1FBF3F101B1013904484B
S2140010C0E3E700BFFF2C3101002D31014041050050
S2140010D050410700604109007FF0FA0280F0FA02F2
S2140010E0FFA14A0400A24A0400F00F00013808B528
S2140010F00B2800F28C80DFE800F006172638343C18
S2140011008A4552627074494BD3F8943003F0070353
S214001110023B052B77D8DFE803F083877803720558
S2140011200D2008BD0E20FCE7404BD3F8800000F0F1
S21400113007000228F5D0042870D0012808BF032035
S21400114018BF0120EDE7394BD3F8843003F00703CE
S214001150013B032B55D8DFE803F0675802610620F1
S214001160DFE7324BD3F88800E1E7304BD3F88C004A
S214001170DDE72E4B1B6F13F0030353D0012B08BF84
S2140011800920DDE7294BD3F85C3103F03003202B30
S21400119046D0302B11D0102B08BF0720D0E7234BAA
S2140011A0D3F85C3103F44013B3F5001F38D0B3F521
S2140011B0401F02D0B3F5801FEEE70820B1E71B4BB7
S2140011C0D3F8603103F00303022B2BD0032B16D089
S2140011D0012B0CBF04200520A3E7144BD3F8643181
S2140011E0F0E7124BD3F8F03103F00703052B08D8CD
S2140011F0DFE803F0051603090B1A0B2091E70A2017
S2140012008FE701208DE705208BE7022089E7084855
S21400121041F61751FFF7C2FA002082E70C2080E75C
S21400122004207EE707207CE703207AE700400E4094
S21400123027240500314B984210B5044608D018D82C
S2140012402F4B9C4204D041F22A312E48FFF7A6FAD3
S2140012502046FFF749FF294B9C4225D00ED8284B45
S2140012609C4215D0044641F259312648FFF796FABB
S21400127013E0254B9842EBD0244BE2E7224B9C42EE
S21400128016D0224B9C42EDD1214BD3F8884002E089
S2140012901F4BD3F8804004F00704042C27D8DFE85F
S2140012A004F0240B0F171300194BD3F88440F2E711
S2140012B0174BD3F88C40EEE7BDE81040FFF7AAB90D
S2140012C0BDE81040FFF7ACB9BDE81040FFF7A5B980
S2140012D0FFF730F90E4B0446D3F80001C0F3016067
S2140012E00130FFF7A7FAB4FBF0F4204610BD41F238
S2140012F0AB310448FFF752FA0024F6E7030020005B
S21400130002001E0027240500040022000500240019
S21400131000400E40012808B514BF12481248FFF7D7
S214001320E3FE0138072816D8DFE800F01A1515077F
S2140013301515040B0D4B186808BDBDE80840FFF7EF
S21400134045B9FFF7F7F80A4BD3F80031C3F3042387
S21400135003FB0000F0E741F223110648FFF71EFAF0
S2140013600020E9E7B8003200B90034002810002059
S21400137000400E402724050038B500F47813B3F576
S214001380D01F054600F0088147D8B3F5402F00F07F
S214001390C4801FD8B3F5802F00F0A28009D8002B98
S2140013A000F01881B3F5003F00F0B18041F6F70178
S2140013B016E1B3F5002F00F09E80B3F5202F00F065
S2140013C0A080B3F5C02FF1D1FFF7B4F8B44BD3F833
S2140013D018318AE0B3F5901F00F0A78009D8B3F55E
S2140013E0602F00F0EF80B3F5801FDFD1AD4B18689B
S2140013F080E0B3F5B01F00F0A280B3F5C01F00F088
S214001400AC80B3F5A01FD1D1A748FFF713FFA44BBC
S214001410D3F8303103F003038FE0B3F5381F00F044
S214001420B0801DD8B3F5001F00F0B4800BD8B3F51C
S214001430E01F00F0BB80B3F5F01FB7D19B48BDE8B6
S2140014403840FFF7F7BEB3F5201F00F0B980B3F5BC
S214001450281F00F08C80B3F5101FA7D19248EEE746
S214001460B3F5581F00F0D38015D8B3F5481F00F029
S214001470BC80B3F5501F00F0C180B3F5401F95D176
S2140014808B48FFF7D7FE864B0446D3F82801C0F3F7
S214001490013004305CE0B3F5681F00F0D580B3F58A
S2140014A0781F00F0F580B3F5601F7FF47FAF8148AA
S2140014B0FFF71AFE0438062800F2C38001A353F88B
S2140014C020F000BF671600007716000043160000E5
S2140014D0ED130000431600004316000063160000DC
S2140014E0FFF728F86E4BD3F80C31C3F3082301330B
S2140014F0B0FBF3F038BDFFF71DF8694BD3F81C318D
S214001500F3E7FFF717F8664BD3F80431EDE7FFF77C
S21400151011F8634BD3F80831E7E7FFF70BF8604B99
S214001520D3F81431C3F30423E1E76048FFF782FEE3
S2140015305B4BD3F82031C3F30343D840DAE75B486C
S214001540FFF778FE564B0446D3F8200100F00F0054
S214001550FFF770F9B4FBF0F0CCE75448FFF76AFEEB
S2140015604F4B0446D3F82001C0F30310F0E74F4872
S214001570FFF760FE4A4B0446D3F82001C0F3023062
S214001580E6E74A48FFF756FE454BD3F82031C3F34B
S2140015900123D2E7464852E74548FFF74BFE404B4B
S2140015A00446D3F8280100F00300D1E74048FFF7CF
S2140015B041FE3B4B0446D3F82801C0F30110C7E7B1
S2140015C03D483CE73D48FFF78FFD07283FF40EAF48
S2140015D0092803D1BDE83840FEF7ACBF41F2EC0164
S2140015E03748FFF7DBF8002084E70020FFF792FE7D
S2140015F02B4BD3F85C3103F0030378E70120FFF7A9
S21400160089FE274BD3F85C31C3F301436FE72D48BF
S214001610FFF76AFD0438062810D801A353F820F017
S21400162067160000771600003D160000ED13000058
S2140016303D1600003D1600006316000041F24D11F5
S214001640CEE741F27F11CBE71F48FFF74DFD02388A
S21400165009281AD8DFE800F01115070F191919190B
S214001660050B1A4BC3E6BDE83840FEF7AFBFFEF7E2
S214001670ADFF40003EE7164BB9E6BDE83840FEF742
S214001680CFBFBDE83840FEF7C5BF41F2D611A7E789
S214001690FEF750FF04462846FFF798FA5AE700BFC1
S2140016A000400E40281000200500240002001E0006
S2140016B0030020000B7C38000400220006000E0009
S2140016C0272405000A7B36000C7F3A0030100020E5
S2140016D020100020014B1880704700BF2C100020FF
S2140016E0022838B50D4604D042F27F510C48FFF769
S2140016F055F80C4C626AC2F30112012A0DD065B18E
S21400170042F29A510648FFF749F8074BD4F8902062
S21400171033EA0202FAD1012038BD4FF48003F5E720
S2140017202724050000400E40FF3F473A2DE9F041D0
S21400173007460E469046052814D8DFE800F00396C4
S2140017401F1A910C4FF400704FF48074082109237F
S214001750002E70D066E04FF400604FF480640A21DB
S2140017600B23F5E742F264414248BDE8F041FFF73B
S21400177015B80124022000212346E9E7002957D0A6
S2140017803D4C636AC3F30113012B48D13B4BDB6B23
S2140017905B0504D442F273413648FEF7FFFF636AE6
S2140017A003F00303032B3FD1626A22F0300242F0BB
S2140017B02002626202210424314D2F4A2944146615
S2140017C089000A68002AFCD0B8F1000F25D01D4415
S2140017D0AD002B68002BFCD0022F1ED1EEB1264B9D
S2140017E05B6A03F00303032B03D000213846FFF7A0
S2140017F077FF42F2F0411F48FEF7D0FF012200219A
S2140018000220FFF793FF42F267511A48FEF7C6FF21
S214001810194B1C662B68002BFCD0BDE8F081042415
S214001820022103230026C7E7042402210323C3E77B
S214001830082002210323104A1066012000FA01F155
S214001840D2F890000842FBD1B8F1000FE5D0012293
S214001850094902FA03F3D1F890201A42FBD1DCE7DB
S214001860202010240421052372E78020402406212E
S21400187007236DE72724050000400E4000300E4089
S2140018808004F210112870B506460C4636D104299D
S2140018901BD1FEF79BFE0546F0B10021284600F05E
S2140018A08DFB06F00F06013E0B2E00F2F781DFE8F7
S2140018B016F027007F00C1009B00BD00D900F5018F
S2140018C0E7000E0133017701A701052904D1AA4BD1
S2140018D01D68AA4B9D42E0D8023C0C2C57D8DFE886
S2140018E014F01B005D0041004800560056005600EC
S2140018F05600610056004F005900E2010025D0E76F
S214001900023C0C2C43D8DFE804F0084A2E3542424D
S21400191042424E423B46510000250020042401224C
S2140019201146FFF703FFFEF793FFFFF77FFB0DB1AE
S214001930FEF79EFF924B5C67FEF736FE0446FEF708
S214001940F9FDFEF72DFFFEF7A1FF01462046FEF744
S214001950D1FF1DB90121284600F030FBBDE87040DC
S214001960FFF77ABB00258748FEF71AFF02200446D9
S214001970D5E700258348FEF713FF01240320CEE7B2
S21400198041F6D8518048BDE87040FEF707BF41F6E3
S214001990DD51F7E7002503200524C0E700250120D8
S2140019A00324BCE7002505200624B8E70724BAE789
S2140019B0062C40F0768141F61C617348734DFEF7A5
S2140019C0EDFE41F624617048FEF7E8FE41F62C6114
S2140019D06D48FEF7E3FEFEF7ADFDFEF7E1FE6C4B4D
S2140019E001221A60032328E0062C6A4DE9D0013C48
S2140019F00B2C32D801A353F824F000BF611A000064
S214001A003F1A00004D1A00005B1A00005B1A000027
S214001A10D71900005B1A00005B1A00005B1A000072
S214001A205B1A00005B1A0000391A0000062C5A4D9B
S214001A30DDD1CBE7594DDAE704232B6070BD0122D8
S214001A4011460020FFF772FE0223F6E70122114638
S214001A501046FFF76BFE0123EFE741F6576191E76B
S214001A600023EAE7072C04D0092C06D041F6E161F2
S214001A7088E7434B00221A67E0E7414B0122FAE76A
S214001A80013C072C1ED8DFE804F0201D1D161D1D86
S214001A900F0403223A49D1F85C3123F0300343EABD
S214001AA00213C1F85C31C9E7012211460420FFF792
S214001AB03DFE0122EEE7012211460220FFF736FE28
S214001AC00222E7E741F63F715CE70022E2E7013CCD
S214001AD0072C1CD8DFE804F01E1B1B141B1B0D0470
S214001AE003222749D1F85C3123F4401343EA02531A
S214001AF0D7E7012211460420FFF718FE0122F0E77F
S214001B00012211460220FFF711FE0222E9E741F604
S214001B10627137E70022E4E7043C062C29D8DFE8A8
S214001B2004F01304281A2828210001221146032055
S214001B30FFF7FCFD00221249D1F8603123F00303C1
S214001B401343C1F8603179E7012211460220FFF7FE
S214001B50EDFD0122EFE7012211460420FFF7E6FD26
S214001B600222E8E7012211460520FFF7DFFD0322E7
S214001B70E1E741F6897105E720100020002D3101CC
S214001B8000400E400148E8012724050080400E4032
S214001B900016C8438C400E4088400E4084400E40DD
S214001BA0043C062C29D8DFE804F01304281A282859
S214001BB02100012211460320FFF7B8FD00223D490F
S214001BC0D1F8643123F003031343C1F8643135E7D9
S214001BD0012211460220FFF7A9FD0122EFE70122AC
S214001BE011460420FFF7A2FD0222E8E70122114673
S214001BF00520FFF79BFD0322E1E741F6B071C1E641
S214001C00023C092C47D8DFE804F0383F143146463A
S214001C104646051B012211460520FFF787FD0023D7
S214001C202449D1F8F02122F007021343C1F8F0311D
S214001C3004E7012211460220FFF778FD0123EFE7B3
S214001C40FEF7C4FC1C4B984204D941F6CB711B48E6
S214001C50FEF7A4FD174A536A43F0080353620122B5
S214001C6011460220FFF762FD0223D9E70122114642
S214001C700320FFF75BFD0323D2E701221146002075
S214001C80FFF754FD0423CBE7012211461046FFF769
S214001C904DFD0523C4E741F6EA7173E642F21601EC
S214001CA070E6074DA3E6FEF7D3FD0025FFF7BEF965
S214001CB007243FE600400E4040787D0127240500BB
S214001CC080400E4038B505461120FFF70DFA04286F
S214001CD004D142F2FF211F48FEF760FD01220021D9
S214001CE00220FFF723FDEB7A012B03D030D3022B23
S214001CF029D10323184C626A22F00302134363625D
S214001D00FEF764FC154B2A88984294BF08200020F2
S214001D10636A23F008031843AB88606243EAC22371
S214001D20E362236BEA881B0D1B0513436A8843EAAC
S214001D30C22323636B7A2A7A1B0143EA0233AA7A08
S214001D401343636338BD42F213310248FEF726FDA3
S214001D500023CFE72724050000400E4040787D0191
S214001D6070B505461120FFF7BFF9022804D142F2EC
S214001D70BD310E48FEF712FD0D4E0E4BB26B2C78A1
S214001D8013401C436B7844EAC324AB7844EA0364EC
S214001D90EB7844EA0324B36BA34205D0002101226A
S214001DA00846FFF7C3FCB46370BD00BF27240500D8
S214001DB000400E4080E4FFF8EFF3108072B67047E4
S214001DC000B962B67047EFF31180602383F3118881
S214001DD0704780F311887047034B5868C0F30800BB
S214001DE0003018BF0120704700ED00E0034B186874
S214001DF080F04000C0F38010704700BF3C300E40BB
S214001E0038B542EA032340F20112934205460C46D7
S214001E1030D0B3F5817F0DD2012B22D035D3B3F568
S214001E20807F36D040F639111E48FEF7B7FC0022F8
S214001E3013461CE040F20122934222D006D8B3F5A6
S214001E40007FEFD1184BD3F870310DE0B3F5407F2B
S214001E5023D040F201329342E4D1134BD3F87831C9
S214001E600BE0114BD3F87431C3F30722DBB22B60BF
S214001E70226038BD0C4BD3F874311A0EC3F30743F7
S214001E80F5E7094BD3F87831EEE7074BD3F86C311A
S214001E90EAE7054BD3F86C31EFE7034BD3F8703124
S214001EA0EBE700BF8C240500B081E00F08B5FFF714
S214001EB09DFF18B1024A1368002BFCD108BD00BF75
S214001EC0C800C6431A4B022810B5D3F880310C461A
S214001ED012D0032813D0012814BFDBB2C3F30723A4
S214001EE01B0323F47042ECB95AB140F6C8011148FE
S214001EF0FEF754FC002010BDC3F30743F0E71B0EAB
S214001F00EEE70D49CA6E22F470421343CB660120F9
S214001F10F1E70949D1F8EC2022F470421343C1F8E6
S214001F20EC30F4E7002AF4D040F6D401DFE700BF37
S214001F30B081E00F8C24050000300E40F8B5044652
S214001F400F46FFF753FF78B3FFF7B0FF174B5B68FA
S214001F50C3F301439C4227D0154BD3F80051FEF73C
S214001F60E9FA022C06460FD1C5F30425114B05FBF2
S214001F7000059D4204D940F2DC510F48FEF70EFCE6
S214001F8002213046FEF7B6FCC4F10202102393404D
S214001F90064A13610FB1FFF789FF2CB92146304678
S214001FA0BDE8F840FEF7A6BCF8BD00BF00300E4006
S214001FB000400E40002D31018C24050038B5024645
S214001FC00D46FFF713FFB8B142B90C4BD3F80041EA
S214001FD0FEF7B0FAC4F3042202FB0002084B1B789B
S214001FE029463BB1074B9A4204D80220BDE8384048
S214001FF0FFF7A4BF0020F9E738BD00BF00400E4041
S214002000E4430020002D31010378134A002B437867
S21400201070B514BF04260026002B8378946914BF7D
S21400202002250025002B037924F03F0443EA04032D
S214002030C47814BF08210021012C08BF43F0010317
S21400204033432B430B4393611368417923F44033A6
S21400205043EA0143136070BD00300E40224B4AF63F
S214002060E85210B5596B5A639A6FD407FCD41B6CB0
S21400207013F003031EBF1D4A01241460834203D1DC
S21400208008B91A4B186010BD032B17D0B3B1164A07
S2140020901446936FDB07FCD4136C23F0030303434F
S2140020A01364A36F13F00103FBD100300F4A18BF6F
S2140020B001200129106008BF6363E4E7431E012B7B
S2140020C0E5D8094B4FF40022DA629A6FD207FCD4A7
S2140020D01A6C22F0030242F001021A64024A536AA2
S2140020E01C03FCD5D3E700BF00300E40B40AC6433D
S2140020F02DE9F04FA0F5E16389B00027B3F5966FA0
S214002100054601919346CDE90277CDE90477CDE9FE
S214002110067705D940F699215548FEF73FFB59E06A
S214002120544BB0F5E16F8CBF4FF0010A4FF0000A38
S214002130D3F8683152D01A0EC3F3074307920493BC
S2140021404FF496694FF4E164DFF82C81D8F84C70B0
S214002150C7F301773B46524605A902A8FFF750FE93
S214002160D8F8EC60C6F301263346524606A903A803
S214002170FFF746FE0798049A2C1B811A6143B1FBB1
S214002180F9F3D1182CBF0123002388421CD3DBB9F6
S214002190069A0398131A6343B3FBF9F310EB030A8A
S2140021A02CBF0123002352450ED36BB9059B029A20
S2140021B0981A4443B4FBF9F912EB09092CBF012025
S2140021C000204B4500D398B140F6E7212848FEF79B
S2140021D0E5FA0027384609B0BDE8F08FC3F30722BA
S2140021E0DBB2079204934FF416794FF49664ABE78C
S2140021F0BBF1000F0ED0D8F85C3023F4FE4323F07A
S2140022000203B5F5E16F43EA012318BF022003433A
S214002210C8F85C30019B43B338460021FFF752FEF6
S214002220074610B940F6F62176E701213046FFF75B
S21400223049FE074610B940F6FE216DE70E4A536E7A
S214002240D14538BFD14623F4FF73B9F1E70F23F029
S214002250010328BF4FF0E709B5F5E16F18BF43F05B
S214002260010343EA49035366B4E70127B2E700BF18
S2140022708C240500B081E00F00300E40324A08B5CD
S214002280136FD16CC90703F0070342D5012B40D961
S214002290132857D9143813288CBF102308232A492B
S2140022A0013BCA6C180322F47F4240EA032313431F
S2140022B0CB64264BCA6C1B88C2F303222833013238
S2140022C002EB820003EB5303B3FBF0F3C86C013B55
S2140022D0072B20F0EE6028BF072340F4801040EA6A
S2140022E00363CB641A4BB3F90030002B10DB2833A2
S2140022F0500800EB420203EB5303B3FBF2F30A6D04
S214002300072B28BF072322F0700242EA03130B654F
S21400231008BDD26CD10706D4012B04D8092811D9E0
S2140023200A380928B8E7084AD26CD20703D5012B29
S21400233001D82728B0E740F63C310648FEF72EFACB
S2140023400023ACE70423AAE700300E40E043002059
S214002350E24300208C2405000B4B1B6810B5044696
S21400236033B9012804D940F65B310848FEF716FA5F
S214002370074B186F20F0070020431867054BBDE891
S21400238010401888FFF77ABF8009C6438C240500E2
S21400239000300E40DE43002038B50389C82B0446C3
S2140023A004D94FF420614F48FEF7F8F9A288238934
S2140023B09A4204D940F601214A48FEF7EFF9B4F9EB
S2140023C00C30C82B04DD40F602214648FEF7E6F93D
S2140023D06378012B54D1A388C82B04D940F6062174
S2140023E04048FEF7DBF9E28842F210739A4204D9BD
S2140023F040F613213B48FEF7D1F9E3884A2B47D92C
S214002400B3F5FA7F46D340F6C3118B4294BF4FF024
S21400241000514FF040513448B4F90C50C36CA288B8
S21400242023F0405323F00103002DA8BF43F001031F
S2140024300B43C364D0F8EC3043F44073C0F8EC3080
S2140024402A4B1A80C36E43F08073C366284B186805
S21400245000B10420FFF780FF264B21891980264B08
S214002460B4F90C20A0881A80FFF708FFA37BA3B15D
S214002470012B23D040F679011A48FEF78FF90FE0BA
S214002480022BB0D1A3880A2BADD940F60B21A7E7C3
S2140024900021C0E74FF08051BDE7134B174A9A65FD
S2140024A0012211466088FFF723FE054648B940F62C
S2140024B04A210C48FEF772F9284638BD0A4B104AE6
S2140024C0EDE7094A6078D36B43F48063D363FFF784
S2140024D0C5FDA37AA3F1200253425341094A136073
S2140024E0EAE700BF8C24050000300E40DE430020E3
S2140024F08009C643E0430020E2430020774020578F
S214002500372110B79407C643072838B504460D464A
S21400251013D908284FF6FF7318BF00232B41DB079B
S21400252004D44FF482610648FEF738F930200121C2
S2140025306043044BA940195038BD4FF6FF73EDE7D2
S214002540E52405000C800846072838B504460D46E5
S21400255013D908284FF6FF7318BF00232B41DB075B
S21400256004D440F2E1310648FEF718F93020012184
S2140025706043044BA940195038BD4FF6FF73EDE792
S214002580E52405000C8008440728F8B504460D46E7
S21400259016461F462CD908284FF6FF7318BF00238F
S2140025A02B41DB0704D440F21D111E48FEF7F6F857
S2140025B026B129462046F7B1FFF7A6FF302363432E
S2140025C003F18043072D03F5082317D85A68A9009E
S2140025D00F20884022EA000206FA01F10A435A60F8
S2140025E0F6B929462046BFB1BDE8F840FFF78CBFD4
S2140025F04FF6FF73D4E7FFF7A7FFDFE705F180424A
S214002600083A996892000F20904021EA000106FAE5
S21400261002F20A439A60E3E7BDE8F840FFF794BF8A
S214002620F8BD00BFB824050010B5044618B98F21C0
S2140026301A48FEF7B3F823781B0613F0604F03D052
S21400264091211648FEF7AAF8E378072B03D9A121B3
S2140026501248FEF7A3F801214FF4EA40FEF782F98C
S214002660B4F8013022785BBA9BB243EA02630C4AA4
S214002670136000231362D36253634FF00043D366A4
S2140026804FF0FF339366074A0421C2F88011E378BF
S2140026905B01DBB282F80233116010BD1225050023
S2140026A00020004000E100E02DE9F041C3B2012621
S2140026B0172807460C46904606FA03F603DDE9217E
S2140026C03948FEF76BF81CB9EA213748FEF766F87A
S2140026D0236823F47C1323F00F031BB1EF21324849
S2140026E0FEF75CF8A37A1B0413F47C0F04D040F2C8
S2140026F007112D48FEF752F8E37A1B0513F07E6F9C
S21400270004D040F209112848FEF748F8237B5B0501
S21400271013F0FE5F04D040F20B112348FEF73EF89C
S214002720224D637B2268302000FB0750C0F88020D3
S214002730C0F88830E37AA27A1B0543EA0243227B7C
S21400274043EA4253C0F8843028F00303C0F89830B8
S214002750AE66FFF738FBEB6E3343EB66237A13B1B6
S2140027606B6B33436B63637A13B1EB6A3343EB6291
S21400277022792B6822B1D243120262F47F421340C0
S21400278062790AB143EA0223A2790AB123EA020374
S214002790E27902B11343054A1360054B1E60D66307
S2140027A0BDE8F041FFF715BB1225050000200040EC
S2140027B028200044022838B504460D4603D94C218B
S2140027C01048FDF7EBFF6B791F2B03D951210D48FD
S2140027D0FDF7E4FFAB786A789B0143EA82032A7828
S2140027E01343EA7843EA02132A7943EAC2236A7952
S2140027F043EA0233AA79043443EA42432401024AF4
S214002800135138BD3F25050000200640014B1860D7
S214002810704700BF0000C442427801790378002A5E
S214002820827870B514BF04260026002AC27814BF2A
S21400283010250025002A42794FEA023242EA012298
S21400284042EA0302837942EA8332C37914BF202422
S2140028500024002B037A42EA034343EA0603427A43
S21400286043EA050314BF4FF4004100212343002A26
S21400287014BF4FF4003200220B431343014A136087
S21400288070BD00BF002006402DE9F0410646884690
S2140028901D46174622B94FF4A1713048FDF77EFF5A
S2140028A0B8F1000F07D12E4B9E420CBF2D482E4884
S2140028B0FEF762FD8046202D3AD007D8A5B140F23B
S2140028C089112648BDE8F041FDF768BF402D39D094
S2140028D0602DF4D1B7EB980F04D940F283111F484E
S2140028E0FDF75CFF042208E0B7EB181F04D94FF48D
S2140028F0BA711A48FDF752FF10227A43540804EBC7
S21400290048141A4FB4FBF2F4203CE400BC4204D94D
S21400291040F29F111148FDF741FF336823F0600332
S214002920336033683C401D4335607461BDE8F08118
S214002930B7EBD80F04D940F279110848FDF72EFFFF
S2140029400822DAE70624B8FBF4F3BB4204D24FF4BD
S214002950BF710248FDF722FF2246CEE76C25050030
S214002960000801405041070040410500F8FF7F0085
S21400297070B506460C46154622B940F286210D482B
S214002980FDF70CFF3CB90C4B9E420CBF0B480C48A5
S214002990FEF7F2FC0446013C6D00B4FBF5F424029D
S2140029A0E30DDB0523B140F2A3210248FDF7F6FE56
S2140029B0746170BD6C250500000801405041070099
S2140029C04041050038B5164B984204460D4620D0C7
S2140029D003F5806398421CD003F58063984218D0B4
S2140029E003F58063984214D003F58063984210D0B4
S2140029F003F5806398420CD003F53053984208D014
S214002A0003F58063984204D040F2BE210548FDF7E6
S214002A10C5FEEB435B0003F00A03E360E56038BDE8
S214002A20000001406C25050038B5254B254D984221
S214002A3004461ED0A8421CD003F50063984218D066
S214002A4003F58063984214D003F58063984210D053
S214002A5003F5806398420CD003F53053984208D0B3
S214002A6003F58063984204D040F22B411648FDF7E8
S214002A7095FE40F6AA63E36041F205020023236058
S214002A806260124AA3606361E364A2640C4A236630
S214002A9094426367A367E36703D002F5006294423B
S214002AA000D12365AC42A36506D0094B9C4203D0F7
S214002AB003F580639C4201D10023E36538BD00BF67
S214002AC000000140000401406C250500F9FF0100EC
S214002AD0000C014038B52E4B984204460D4620D0D7
S214002AE003F5806398421CD003F58063984218D0A3
S214002AF003F58063984214D003F58063984210D0A3
S214002B0003F5806398420CD003F53053984208D002
S214002B1003F58063984204D040F2EF211D48FDF78C
S214002B203DFE2046FFF780FFAB7C1BB1236843F0D9
S214002B3080432360EB7C1BB12B7D43F08003A365B1
S214002B402A8A6B7B1343EA8913436360D5E9011233
S214002B502B7B2046FFF798FE6B7D1BB1236843F462
S214002B6080332360AB7DEA7D1B07120502F4E0028A
S214002B7003F0E04313432366636F23F03003636779
S214002B80626F2B7E134363672B78E36038BD00BF0C
S214002B90000001406C25050038B52E4B98420446CF
S214002BA00D4618D003F58063984214D003F5806371
S214002BB0984210D003F5806398420CD003F58063EA
S214002BC0984208D003F58063984204D040F256310C
S214002BD02148FDF7E3FD2046FFF726FFA97B2A8A5A
S214002BE02368002942F0010214BF4FF480610021DF
S214002BF013430B432A7D23602368002A14BF4FF03B
S214002C000052002213432360AB7C1BB1EB7C43F0E5
S214002C108003A3652B7B43F480536360D5E90112E0
S214002C202046FFF7A5FE6B7B0BB11023E3606B7DA0
S214002C301BB1236843F480332360AB7DEA7D1B071A
S214002C40120503F0E04302F4E002134323662B78F8
S214002C50E36038BD000001406C2505001D4B98421E
S214002C6070B505460C460CD003F50063984208D0B4
S214002C7003F58063984204D04FF479711648FDF747
S214002C808DFD00232146267823702846FFF784FF13
S214002C90237F228B1A43A37E002B18BF1021E37ECE
S214002CA008BF002142F001020A43617F002B14BFD7
S214002CB008230023002914BF0221002113430B43DD
S214002CC0EB652EB131462846BDE87040FFF77ABE68
S214002CD070BD00BF000401406C25050003691B069B
S214002CE0FCD5C069C0B2704703695B06FCD541637A
S214002CF070470000034B42781A70034B4FF0006297
S214002D005A6070473410002000E100E0044B4B602E
S214002D104FF4D07300208B60024B0870CB60704776
S214002D20AC250500912605001FB50C4600230122A0
S214002D300B210320FFF728FC00230422072105208F
S214002D40FFF722FC0023042206210520FFF71CFCC7
S214002D500023042208210520FFF716FC0023012289
S214002D6009210320FFF710FC00230122092105207A
S214002D70FFF70AFC002301220C210320FFF704FCC6
S214002D80184B194AC3F80C2C1122C3F8002C0D213D
S214002D90C3F8002C032000230422FFF7F5FB0023D2
S214002DA004220E210320FFF7EFFB012304220A2151
S214002DB00820FFF7E9FB0721012308460422FFF756
S214002DC0E3FB6A4600211E2005F09EFB00232370CD
S214002DD0064B636040F28713A360054BE36004B0C4
S214002DE010BD00BF0040024000000101AC250500F8
S214002DF07C26050038B51B481B4C0D460121FDF707
S214002E00B1FD01211948FDF7ADFD01211848FDF778
S214002E10A9FDD4F890301B0701D401F02BFC002349
S214002E2004220A210320FFF7AFFB236843F4C053B4
S214002E3023604FF4A023C4F87431D4F8703143F003
S214002E400403C4F870310B4B4FF40072C3F8102C17
S214002E5000232B70084B6B604FF48F73AB60074BEF
S214002E60EB6038BD4041050000400E4000350200D2
S214002E7000550A0000400240AC2505006826050003
S214002E801FB502F06AFB054B6A460121187810F060
S214002E902FF902F065FB05B05DF804FB3410002046
S214002EA0034B1B6813B1034801F070BB704700BFAB
S214002EB04C260500AC260500002303607047036817
S214002EC00B6001607047036813B90B6001607047C0
S214002ED01846F8E703681BB11A68026000221A60F9
S214002EE0184670470B68036008607047036803B9AC
S214002EF0FEE78B4202D10B68036070471846F5E781
S214002F000C4B012210B51A70044608B901F0B2FB4A
S214002F1000232370084B6360B323A360074BE36072
S214002F2000F022FE00F0B4FB2046BDE8104001F0A1
S214002F3067BA00BFEC430020BD260500FF2605004B
S214002F40014B1868704700BFE84300202DE9FF4199
S214002F50044608B901F08EFB00232370344B6360EF
S214002F604FF40D63A360334BE360204602F00EFB84
S214002F7023782BB1204604B0BDE8F04103F02CB80E
S214002F802D4E3368002BF5D1FFF7DAFF23460146B6
S214002F900546B422294800F049FE237830600146F1
S214002FA0002BE7D14FF0FF380427CDE90138039412
S214002FB0342300972A46224800F06AFE2378002B26
S214002FC0D8D131681F48CDE90073CDE902842823A3
S214002FD02A46243100F05CFE2378002BCAD13168E3
S214002FE01948CDE90073CDE9028438232A466C31AE
S214002FF000F04EFE2378002BBCD131681348CDE993
S2140030000073CDE9028401232A46903100F040FE89
S2140030102378002BAED131680D48CDE90073CDE999
S214003020028424232A46483100F032FEA2E700BF7D
S2140030300B27050045280500F04300204E27050015
S214003040602705006F2705007C27050089270500F7
S2140030509B27050016288CBF002001207047000023
S2140030602DE9F7430A9C80460D4617461E460CB9C6
S21400307001F000FB3F2F09D808232370234B636021
S2140030804FF4C173A360224BE360FEE74EB1072303
S21400309023701E4B636040F28513A3601C4BE360F5
S2140030A0FEE71C4B1B6843B92046FFF74FFF23780B
S2140030B01BB1002003B0BDE8F083FFF741FFBA0064
S2140030C08146C5B908230146CDE90054124800F0F0
S2140030D0C5FD23780646002BEBD12346F822494649
S2140030E00E4800F0A3FD2378002BE2D1C0E93B6731
S2140030F0C0F8F480DEE715F0070325F0070618BFD2
S21400310008231E441544AD1BAF08E6E70B27050051
S214003110C6270500F0430020B0270500BD270500A0
S2140031202DE9F0438BB0DDE9126405460F46904664
S21400313099460CB901F09EFA4FB90A2323701D4B2D
S21400314063604FF4EE73A3601B4BE360FEE74DB97C
S2140031500A232370174B63604FF4EF73A360164B7C
S214003160E360FEE74EB107232370124B636040F224
S214003170E113A360104BE360FEE70323D5F8F010DD
S2140031800391CDE90663CDE904660A200894484316
S2140031906423B0FBF3F00290D5F8EC30CDE9009351
S2140031A03A464346D5F8F410284604F013FF0BB011
S2140031B0BDE8F0830B270500D42705002DE9FF4165
S2140031C080460C4616460AB901F054FA164F3B687C
S2140031D043B93046FFF7BAFE33781BB1002004B07F
S2140031E0BDE8F0813146386800F082FD3378054648
S2140031F0002BF3D13246414603F010FE33783BB93C
S21400320014B1247804F0010485F830402846E6E737
S2140032106A462946386800F0F1FD9DF800300BB18B
S21400322001F028FA0025F1E7F043002038B50546FE
S2140032300C4609B901F01EFA4DB90A2323700F4B4C
S214003240636040F21A33A3600D4BE360FEE722464C
S2140032500021284603F01EFF2378232B0CD195F877
S2140032603030DB0708D500232370044B636040F240
S2140032702633A360024BE36038BD00BF0B27050072
S214003280F32705001FB5044600B9FEE76A4601218C
S21400329003F03EFE9DF800300BB101F0EBF9064B53
S2140032A06A461868214600F0A9FD9DF800300BB16B
S2140032B001F0E0F904B010BDF0430020F0B5074679
S2140032C085B00D4614460AB901F0D4F94DB107236E
S2140032D02370184B636040F28533A360164BE3609F
S2140032E0FEE7164E33683BB92046FFF72FFE2378DD
S2140032F013B1002005B0F0BD30682146243000F040
S214003300F7FC22780546002AF3D12346394604F016
S2140033106BFA23785BB130686A462946243000F0A1
S2140033206DFD9DF800300BB101F0A4F9002528468C
S214003330E0E700BF0B27050003280500F043002048
S21400334070B505460E4614460AB901F093F94DB914
S2140033500A2323700C4B636040F21443A3600B4BAC
S214003360E360FEE74EB108232370074B636040F22C
S2140033701643A360054BE360FEE722463146284627
S214003380BDE8704004F034B90B2705001D28050081
S21400339038B505460C4609B901F06CF94DB90A2353
S2140033A023700D4B636040F23E43A3600B4BE3601B
S2140033B0FEE722464FF48071284604F091F8237801
S2140033C0242B08D100232370034B636040F246434E
S2140033D0A360024BE36038BD0B27050029280500D3
S2140033E070B505460E4614460AB901F043F94DB9C4
S2140033F00A232370074B636040F26C43A360064BBE
S214003400E360FEE7224631462846BDE8704004F0F9
S21400341081B900BF0B2705003A2805001FB50446F2
S21400342000B9FEE76A46012104F042FA9DF8003032
S2140034300BB101F01FF9074B18686A462146243085
S21400344000F0DCFC9DF800300BB101F013F904B07D
S21400345010BD00BFF043002038B5044608B901F09F
S21400346009F9204605F03EF9237805460BB101F030
S21400347001F9284638BD1FB5684605F033F805B093
S2140034805DF804FB10B50446FFF7F5FF60434FF404
S2140034907A7300F2E730B0FBF3F010BDF0B50646E5
S2140034A087B00F4615461C460BB901F0E3F84EB937
S2140034B00A232370214B63604FF43373A360204BC1
S2140034C0E360FEE717F0FE0F09D0082323701B4BBE
S2140034D0636040F2CE23A360194BE360FEE7284604
S2140034E00DB1FFF7CFFF002F4FF000030CBF1A46B9
S2140034F04FF4004201460094304603F055FB237813
S214003500232B0DD196F8301011F001010AD00023BC
S21400351023700A4B636040F2EB23A360084BE36022
S21400352007B0F0BD02AA304603F0B4FD9DF808309F
S214003530232BF5D001F09EF8F2E700BF0B2705001D
S214003540E3270500F7B506460F4615461C460BB999
S21400355001F090F84EB90A232370134B63604FF4C2
S2140035607573A360114BE360FEE717F0FE0F09D0FA
S214003570082323700C4B636040F2D633A3600B4BDA
S214003580E360FEE728460DB1FFF77CFF002F4FF003
S21400359000030146009414BF4FF400421A4630461A
S2140035A003F0C0FE03B0F0BD0B2705001128050090
S2140035B01FB5FFF767FF40B16A46002104F0A4FF7D
S2140035C09DF800300BB101F055F805B05DF804FB2E
S2140035D020F02003413B192B05D9303809288CBF31
S2140035E000200120704701207047613819288CBFE1
S2140035F0002001207047303809288CBF00200120A9
S2140036007047A0F13003092B07D920F0200041387D
S21400361005288CBF00200120704701207047202815
S21400362005D0093804288CBF0020012070470120EF
S214003630704720385E288CBF002001207047A0F11C
S2140036404103192B9CBF2030C0B2704710B504460A
S214003650FEF7B9FB024B1C60BDE81040FEF7B9BB95
S214003660F443002010B5FEF7AEFB074B07491C6875
S21400367043F2390201FB042424F000441C60FEF7E8
S214003680A8FB204610BD00BFF44300206D4EC64187
S2140036900120FFF7DBBF00002DE9F84F80461546F6
S2140036A09A46DDE90A948B46354F41B908232370C4
S2140036B04FF4D963A360334B6760E360FEE75AB10B
S2140036C0531E134208D00823237040F2CC63A36035
S2140036D02C4B6760E360FEE7FEF775FB002D08BF26
S2140036E00425554538BF5546D8F80860D8F8041064
S2140036F06B1E3342C5F1000202EA060208BF00252F
S2140037001544AB440AF1FF3212EA0B0FCAF100036C
S21400371003EA0B0308BF4FF0000A013153448A1B2B
S214003720991B8A42184E1DD2B9F1000F02D0891A91
S214003730C9F800101623237040F22273C4E902363B
S214003740676000252378BBB1FEF743FB1623237082
S21400375040F2D763A3600B4B6760E3600025284602
S214003760BDE8F88FC8F80830002323704FF4E563EF
S2140037706760C4E90236E5E7FEF72BFBEFE700BF1C
S2140037804E280500E2280500F72805002DE9F04F31
S21400379087B0054688461F46DDF840B0129C914625
S2140037A04AB908232370654B636040F29373A360A5
S2140037B0634BE360FEE7119B591C0BD05B4509D2B7
S2140037C0082323705D4B636040F29773A3605C4BE5
S2140037D0E360FEE777B17B1E3B4201D1032F0AD898
S2140037E008232370554B636040F29C73A360544BD0
S2140037F0E360FEE70427287882075BD519F0030309
S21400380029F0030618BF04230436F3180393BBF10C
S214003810000F00F0828010F0010051D0D8F8102080
S214003820BA4238BF3A46039B039E51421940531E84
S214003830334018BF134601EB030A0AFB0B61A1EBEA
S2140038400A0158B1D8F8103003F1FF3C58421CEA80
S214003850010F00EA010008BF0023C11800230093EF
S214003860019401234046FFF717FF2378002B4DD124
S2140038702B7828619B0725D403461B1A02464FF077
S21400388001090593059BCB45134426D100211960F9
S214003890D5F81C90B9F1000F41D02B6A4146284656
S2140038A0C84701283BD01A232370244B636040F29C
S2140038B0E97328E04E46042E38BF04260396A6E792
S2140038C03A46B0E729F0030319F0030918BF4FF092
S2140038D00409994400EB0903CFE702EB0A030493BB
S2140038E0059B1946049B5350EB691E468BB12B6A09
S2140038F041462846B04701280BD01A2323700F4BA9
S214003900636040F2D973A3600D4BE36007B0BDE877
S214003910F08F09F10109049AB4E7C5F810B0039BCB
S214003920C5F80480C5E90237119B6B610023AB61C3
S2140039302370024B636040F2FC73E4E74E280500F8
S2140039400F29050070B5FAB1F0B110F0030303D0EB
S2140039501B1AC418042C13D141EA012341EA03239D
S21400396041EA032304468618351B032D0DD8930819
S21400397000EB83031044834206D003F8011BFAE7EA
S214003980013A00F8011BE4D170BD44F8043BEBE7B4
S21400399008B50A460021FFF7D5FF08BD70B572B31B
S2140039A068B361B30B1A032B14D900F0030401F0BB
S2140039B003039C420ED1B4B9041F0B468E18F51AA9
S2140039C0032D1DD893086FF0030404FB03229B000D
S2140039D01844194401380A448A4210D011F8013BB1
S2140039E000F8013FF8E70346241AE518042D1846A8
S2140039F0E2D011F8010B03F8010B013AF5D170BDC6
S214003A0053F8045B44F8045FD9E7F8B50C46134650
S214003A102AB120B119B1884202D2FFF7BFFFF8BD24
S214003A20511E08442144421A032A1ED900F00302FC
S214003A3001F00304A24218D1032A09D00132821AE7
S214003A40904205D011F8014900F80149013BF7D131
S214003A509C086FF003026243D41ECD1E461C0C4425
S214003A60A5420BD113441044114401305B1AD942CD
S214003A70D5D011F8012900F8012DF8E755F804799A
S214003A8046F8047DECE7F0B552B3A0B341B3841812
S214003A908B1803F0030004F00301814216D189B1AC
S214003AA0651E581E511A2C46034627781E78B742C4
S214003AB005F1FF3500F1FF3002F1FF3210D10AB1F7
S214003AC08A42F0D11946032A0B4601D8101B0FE094
S214003AD054F8040D51F8043D9842A2F10402F2D0C5
S214003AE0002008E014F8011D13F8012D9142F7D1CB
S214003AF0C442F7D10120F0BD70B506460C4609B9A0
S214003B0000F0B8FD4EB90A232370144B636040F2F0
S214003B10B923A360124BE360FEE7FEF754F9114B9E
S214003B201A6815464DB9F2601E60FEF752F90B4B47
S214003B306360257040F2CB2309E0B5420BD1FEF757
S214003B4048F915232370054B63604FF43073A36068
S214003B50034BE36070BDED68E4E700BF4E28050048
S214003B608E28050070E902201FB506486946FFF753
S214003B70C3FF9DF800300BB100F07CFD05B05DF88A
S214003B8004FB00BF381000202DE9F84305460C461C
S214003B9017461E460BB900F06DFDDFF88880DFF88B
S214003BA088905CB1631E234234D00823337040F201
S214003BB01733C6E90239C6F80480FEE705B9184D82
S214003BC00424FEF700F9AB68621E1A42C4F1000135
S214003BD001EA030108BF00240C44FEF7FAF86A68FD
S214003BE0A24202F1010336BF0024181B20463FB153
S214003BF02A68A968C7E902249B1A891A7B6039607B
S214003C00002333704FF44E73C6F80480C6E90239B9
S214003C10BDE8F883024B002D08BF1D46D1E700BF64
S214003C20381000204E2805009928050073B50C466C
S214003C3016461D460BB900F01DFD074801950023EA
S214003C400093042201233146002C18BF2046FFF7BC
S214003C5023FD02B070BD00BF381000202DE9F041F2
S214003C60DDE906850C4616461F460DB900F002FD36
S214003C700648CDE906853A463146002C18BF204650
S214003C800123BDE8F041FFF707BD00BF3810002054
S214003C902DE9F047DDE90AA40D4616461F46DDE984
S214003CA008890CB900F0E6FC4DB90A2323700D4BC9
S214003CB0636040F21443A3600B4BE360FEE70B49DE
S214003CC0CDF8209000202870C5E90700864218BF6E
S214003CD03146CDE909A443463A462846BDE8F047B2
S214003CE0FFF754BD4E280500AB280500381000200D
S214003CF02DE9F34104460D4609B900F0BBFC4CB96A
S214003D000A232B703B4B6B6040F2D743AB603A4BB9
S214003D10EB60FEE7FEF757F86169A3694E1C0246A2
S214003D2011D099420FD8FEF754F818232B70314B58
S214003D306B6040F2E243AB602F4BEB6000263046F0
S214003D4002B0BDE8F08126690133A361B6B12378DD
S214003D5099074ABFA36833689B19104648BF53F8B3
S214003D60043C2361FEF735F800232B70214B6B6073
S214003D7040F2F143AB60204BEB60E0E71046FEF705
S214003D8028F82378E268D4E90101DB074FF0000841
S214003D9048BF0369019558BF0123CDF80080FFF79F
S214003DA07BFC2F7806463FB1FEF70DF8A369013B72
S214003DB0A361FEF70EF8C1E7D4F81C80B8F1000F37
S214003DC0BDD00246236A61682046C0470128B6D0A7
S214003DD0FDF7F9FFA369013BA361FDF7FAFF1A237C
S214003DE02B70044B6B6040F21B53AB60024BEB60D6
S214003DF03E46A4E74E280500BD2805002DE9F843F9
S214003E000546894614460AB900F034FCDFF8888077
S214003E10204F45B90A23237040F23D53C4E90237C8
S214003E20C4F80480FEE7B9F1000F08D10A23237016
S214003E3040F23E53C4E90237C4F80480FEE7FDF7BB
S214003E40C2FFAB695BB9FDF7C4FF17232370C4F844
S214003E50048040F24753C4E90237BDE8F883013BCB
S214003E60AB61FDF7B6FF2B789B0743BFAE68043EF9
S214003E704E444E46FDF7A7FF2B693360C5F81090F9
S214003E80FDF7A7FF00232370C4F8048040F25753C1
S214003E90E1E700BFCF2805004E2805002DE9F74FC3
S214003EA0DDF83CA09DF830509DF838409B469DF8C4
S214003EB034300093074688469146BAF1000F05D184
S214003EC04FF0000A504603B0BDE8F08F931E222B39
S214003ED000F286800E1C18BF012655B32846FFF751
S214003EE0A8FB012813D00026304637460AEB080305
S214003EF014B100220AF808205C1E08F1FF310023E6
S214003F001A46019190453DD8002EDBD1D8E7302DDA
S214003F100FD0009B012B14BFA5F14103A5F161034F
S214003F20A5F13002B9F10A0FD2B2DBB206D891453C
S214003F30D9D8002ED7D03A4633460AE0092AD2D935
S214003F40A9F10A029342CED3F3E70133DBB2B2FB08
S214003F50F9F29145F9D903EB0B0290450DDB434589
S214003F6094BF5B440BEB0803DBB24DB1984505D01C
S214003F70A5F1300358425841B8E700260020B5E7BF
S214003F809846FBE746B307B9A2B9B7FBF9FC09FBAD
S214003F901C77092FF9B204F1FF3E05D830312170A5
S214003FA0674674460132ADE7009F012F14BF3731D4
S214003FB05731F4E7BBF1010F01D120B933B1002D21
S214003FC0F0D0257006E001999142F8D14FF02D030C
S214003FD023700123013CE5E74FF03F012170F9E72C
S214003FE0002D80D0002679E72DE9F04F85B00746F2
S214003FF092469846019109B903AB0193019B1F6055
S2140040000E9B13B90DF10B030E930E9B00261E702C
S214004010002F00F0A480BAF1010F00F09C80BAF1E6
S214004020240F00F298803878FFF7F9FA3C4601280A
S21400403007D023782B2B09D02D2B09D04FF0000862
S2140040400AE014F8010FFFF7EAFAF0E70134F5E7A3
S214004050B8F1010F1DD10134BAF1080F1CD0BAF126
S214004060100F44D0BAF1000F5AD12378302B50D11C
S2140040706278582A04F1010901D0782A4DD1A07837
S214004080FFF7BFFA012801D104F102094FF0100A28
S21400409007E04FF00108DFE72378302B40D104F12A
S2140040A001094FF0000B5E4699F800502846FFF7CE
S2140040B08FFA012841D12846FFF79DFA012831D111
S2140040C0303DEDB2AA4538D9BBF1000F0CD1254BD7
S2140040D053F82A10B1422DD306FB0AF6AE192CBFB0
S2140040E04FF0010B4FF0000B09F10109DCE72378D4
S2140040F0302B15D16178582904F1010901D07829AF
S214004100CFD1A078FFF77DFA0128CAD104F10209C1
S214004110C7E7A1464FF00A0AC3E74FF0080AC0E710
S214004120A146BEE72846FFF760FA01280CBF573DB8
S214004130373DC6E74FF0010BD6E7BBF1010F019AFA
S21400414008BF4FF0FF364C450CBF3B464B4613604E
S2140041500E9B83F80080304605B0BDE8F08F3E46E3
S214004160F9E700BF2C290500431E00205A1C04D086
S21400417013F8012F0AB1884200D170470130F5E7E5
S21400418030B508B9002030BD0029FBD00446002316
S21400419011F8015B4DB19A42F5D004F8015B01338A
S2140041A0002CEFD00029F3D1ECE79A42EBD925702A
S2140041B0E9E730B5B2B120B9A1B10878404200B203
S2140041C030BD037809B918B2FAE7431C0131002460
S2140041D013F8010C11F8015CA84209D10028EFD0B1
S2140041E0A24201D10020EBE7013301310134EFE7B1
S2140041F0A242F7D0401BE3E74FF0FF32FFF7D9BFEC
S2140042002DE9F04707460D46904612B90020BDE856
S214004210F08730B9002DF9D02878FFF710FA404221
S21400422032E0007811B9FFF70AFA2DE0FFF707FA37
S214004230044615F8010BFFF702FA07EB08093E469D
S2140042408442AA4606F10103A6EB070219D131788B
S21400425021B1711C1AD00DB14E4507D19045D5D06D
S2140042600028D3D0002BD5D01878DCE718781E4667
S214004270FFF7E5F904469AF800000135FFF7DFF985
S214004280DEE79045C2D0201A00B2C0E70023E5E77B
S21400429030B5B0B149B10446002325782046013434
S2140042A04DB1AA4207D0994201D1002009E001335E
S2140042B0002CF2D120469942F7D90378934218BFD2
S2140042C0002030BD38B51546044650B171B10139ED
S2140042D0FFF74AFF2044A042037803D19D4218BF4F
S2140042E0002038BD9D42FCD00138F4E70846F8E7C8
S2140042F030B558B15BB103440446257835B1A342C6
S21400430004D0A94208BF22700134F6D130BD184649
S214004310FCE72DE9F8430E460546F0B1E9B1E2B1F7
S214004320531C114614BF571C1746FFF71DFF39468E
S21400433080463046FFF718FF814680B180450CD393
S214004340A8EB00080027EC194A4631462046FFF73E
S21400435030FF28B10137B845F5D2002400E02C46DE
S2140043602046BDE8F8831FB5089C03949DF81C40C2
S21400437002949DF81840CDE900340023FFF78EFD27
S21400438004B010BD07B500230093FFF72DFE03B061
S2140043905DF804FB2DE9F84389461149114E09687A
S2140043A0566014460F2313700F4F0D68E7604FF4E6
S2140043B0E3728046A26085B149466868C047012816
S2140043C009D10023237040F2CB13C4E9023766609C
S2140043D02846BDE8F8832D68EDE70025F8E700BF1E
S2140043E0F8430020FE2905009B2A050008B5FF2299
S2140043F04068FFF7DEFEB0FA80F0400908BD000016
S2140044002DE9F043044685B008B900F033F92B4F88
S214004410DFF8BC90DFF8BC80C4F80490C423A36027
S2140044207B68C4F80C8000262670002B43D03146EB
S2140044300220FEF70FFE314605460320FEF70AFE71
S214004440314605400420FEF705FEEDB2284001285F
S21400445007D006232370CA23C4E90238C4F80490A0
S214004460FEE7FEF76DFD2346014606462C2214485D
S214004470144DFFF7DBFB23782860E3B903947B68D1
S21400448002933B6801930423011D009332460823E0
S2140044900D48FFF7FDFB217869B922460B482E68C8
S2140044A0FEF78CFE2378B0622BB9286805B0BDE80D
S2140044B0F043FEF701BD05B0BDE8F0834C100020C8
S2140044C0C0290500F8430020D4290500EC29050082
S2140044D0FE290500652A0500F0B5064685B00C469F
S2140044E009B900F0C7F84EB90A232370234B63605E
S2140044F040F22713A360224BE360FEE7214D2868B5
S214004500002223461146806AFEF7C8FF2378FBB9CF
S214004510224671681C48FFF73DFF23780F2B19D001
S21400452015232370154B63604FF49873A360144BE8
S214004530E3602B686E46986A3146FEF777FE9DF874
S21400454000302BB123781BB996E80F0084E80F00E3
S21400455005B0F0BD286821460430FFF7C9FB277870
S2140045600146002FE5D146602868FEF7A8FC034BFD
S214004570636027704FF49F73D8E700BFFE290500DD
S214004580752A0500F8430020ED4300001FB5694674
S214004590FFF7A2FF9DF800300BB100F06BF805B0F6
S2140045A05DF804FB2DE9FF410646884614460AB925
S2140045B000F060F84EB90A232370184B636040F28F
S2140045C06713A360164BE360FEE7164F38680022B9
S2140045D023461146806AFEF761FF2378DBB9224640
S2140045E041463046FFF7D6FE98B145683B686E46B2
S2140045F0986A3146FEF71AFE9DF800302BB12378F4
S2140046001BB996E80F0084E80F00284604B0BDE802
S214004610F0810546EAE70025F7E700BFFE2905001A
S214004620882A0500F843002038B505460C4609B927
S21400463000F020F845B90A232370074B6360A623D1
S214004640A360064BE360FEE7224629460448BDE821
S2140046503840FFF7A7BF00BFFE2905004C2A05001B
S214004660ED430000024B00221A601EF001BD00BFA1
S21400467074E90620FEE71EF015BD0000034600B9EB
S214004680FEE7074A1068002814BF002209221A70A5
S214004690044A5A604FF4F9729A60034ADA60704727
S2140046A074E90620B22A0500EC2A0500014B1860C2
S2140046B0704700BF74E906207047000070B40E46CD
S2140046C0A6F10B041146056D826D0A2C5BD8DFE857
S2140046D004F006225A5A5A5A5A5A5A56510049B99A
S2140046E00A221A702E4A5A6040F2B9529A602D4A2F
S2140046F0DA60FEE7C26D4AB90A221A70284A5A6082
S21400470040F2BC529A60274ADA60FEE794681A467E
S214004710234670BC1847426D8C78926A3CB1012CD7
S2140047201AD0022C03D1546844F0020454600C885A
S21400473074B1642C14D0B4F57A7F15D00A2C2BD122
S214004740516821F001015160516821F48061516087
S2140047502A68194670BC1047546824F00204E5E73E
S214004760516841F00101EEE7516841F4806141F083
S2140047700101ECE792F826300B7070BC70470B789E
S21400478082F82630F9E726221A70054A5A6040F267
S214004790F7529A60034ADA600C2ED9D0EDE700BFD4
S2140047A02C2B0500EC2B0500406D920443F0A04333
S2140047B043F4003302F4F802C9051A43806A01F094
S2140047C078610A43426342F210738268520701D44A
S2140047D0013BFAD1704700001FB500238DF800306A
S2140047E0114B019340F206730293104B0393836DB3
S2140047F0416DDA688C6A116821F00101116019694F
S21400480091420CBF9A680832DA60DB681B68DB07E7
S21400481005D5694640780FF01FF804B010BDBFF309
S2140048204F8F0223A362F8E72C2B0500092C050006
S2140048302DE9F04F1C46836DDF6887B03E68059310
S21400484016F001038346884691460DD113800B600F
S21400485029232370254B636040F21143A360244B49
S214004860E36007B0BDE8F08F7B68C3F30C0ABAF1CB
S2140048703B0F4FF000050CD8FFF7AEFF2923A9F831
S2140048800050C8F800502370184B636040F21B437A
S214004890E4E72B46CDE90254CDE9005540F2EA5252
S2140048A064210BF019FF23783BB15846FFF794FFBD
S2140048B0A9F80050C8F80050D3E7059BA9F800A057
S2140048C01B69BB4216BF20F0030040F0030040F017
S2140048D0010026F00306C8F800600CBF18603860B8
S2140048E0584607B0BDE8F04FFFF776BF2C2B050003
S2140048F0C52B05002DE9FF41466DF388DB0605460E
S2140049000C4609D009230B703B4B4B604FF41D73CC
S2140049108B603A4BCB60FEE733894BB109230B70B3
S214004920354B4B6040F275238B60344BCB60FEE713
S214004930F78A4FB109230B702F4B4B6040F276235A
S2140049408B602E4BCB60FEE7036E4BB90A230B70D1
S214004950294B4B6040F277238B60284BCB60FEE7F9
S214004960D0F8508040783B463A4664210CF0AEF8CA
S21400497040F2E953984209D8092323701E4B63601E
S21400498040F28223A3601D4BE360FEE703AB009377
S21400499039460194202328221948FFF75FF9074675
S2140049A0A86530B3D8F800302146284698472378C3
S2140049B0FBB9D8F808302146284698472378C3B96B
S2140049C0D8F8043021462846984723788BB9B28C0D
S2140049D0B1690C482346D200FFF728F923783860DF
S2140049E03BB9F28CB16908482346D200FFF71EF99E
S2140049F0786004B0BDE8F0812C2B0500A02B0500E4
S214004A00772B0500882B0500942B050010B5029C1B
S214004A104BB90A232370104B636040F22463A360F3
S214004A200E4BE360FEE79204406D02F4F80242F09B
S214004A30C042C905806A42F4003201F078610A4338
S214004A40426342F210728168490701D4013AFAD1F2
S214004A50426B1A8010BD00BF2C2B0500FB2B0500F7
S214004A602DE9F04FD0E9159393B00D460693B9F8AB
S214004A702610036D08930646814FD9F82840DFF8C4
S214004A8008820FF0B5F900232B7040F20D328DF836
S214004A90383040F20E33AA60C5F80480EF60CDE9E6
S214004AA0103706238DF82F300DF12F020EAB0CA910
S214004AB07078CDF83C800EF015FC9DF838303BB38E
S214004AC000238DF838300EAA40F21D330CA909F1E8
S214004AD03000CDE91037CDF83C800BF0DDF99DF8BD
S214004AE03830002B40F096800EAB06220CA970786A
S214004AF00EF04AFC9DF838308BB109232B70C5F8B0
S214004B00048040F22733C5E9023713B0BDE8F08FC2
S214004B100EAA0CA970780EF031FD0128D0D10C9B9E
S214004B20C4F88830BDF83430C4F88C30736D059303
S214004B309B6A0993059BD6F858809B8CD8F8007022
S214004B4003F10053013BC8E9027707EBC3034FF0BC
S214004B500009C8F81030CB464FEAC90A07EB0A032B
S214004B600793059B9A8C1FFA89F39A4259D8099A9B
S214004B70D8F8083093612B78002BC6D1069A938418
S214004B80D6E91531D88C4A68D3F828C00A6200F1F5
S214004B900053013B02EBC303C1E90522CB6102EBE4
S214004BA0C00011464FF0004E88425FD1CCF81C2062
S214004BB06423069A2366002382F82630636A4FF041
S214004BC0FF336362236263618223A3620123E3608F
S214004BD0636843F4003343F0C0036360636843F4E0
S214004BE0806343F0030363602269264B134323610B
S214004BF0236923F080032361BFF34F8F236843F0BC
S214004C001C032360BFF34F8F089B29461B68304662
S214004C1098477AE725232B70C5F8048040F22F3397
S214004C2071E7079B40F2EA52C3F804B06421002300
S214004C30CDE902B5CDE900BB30460BF04DFD2B7833
S214004C40002B98D147F80A0057F80A30079A23F045
S214004C50010347F80A30D8F81030934202BF1A68AA
S214004C6042F002021A6009F1010975E78B42C1F8A9
S214004C7004E002BF5F6847F080475F60083193E753
S214004C80AC2B05001F0818012C2B05002DE9FF474B
S214004C90D0E91515D1F82880294AD8F82490294F4C
S214004CA0019200238DF8003019F0020440F24953B7
S214004CB0064602930397924606D069464078022439
S214004CC00EF0CAFDC8F82C40002340F25E5219F0E0
S214004CD0800F8DF80030CDF804A0CDE9022713D060
S214004CE02F6A99463B68B3B9AA692B6A9A4209D1DA
S214004CF095F82630012B05D1736D9A6A136843F434
S214004D000023136044F0800444F00104C8F82440F3
S214004D1004B0BDE8F0877B68002BE5DA38686946A2
S214004D200EF0F2FE30460FF075F8D5E907239342F1
S214004D300CBF6B6908332B62C7F800902F6AD1E767
S214004D402C2B0500D92B0500F0B5D0E91505846A93
S214004D50A86947682668360342BF266826F40026F8
S214004D602660002F1DDAEB6921F003018342016003
S214004D70C2F30D020FD142F0804242F400426B694A
S214004D804260AB61BFF34F8F236843F40073236028
S214004D908023A362F0BD42F4004242600830A8615E
S214004DA0F0E725221A70044A5A6040F28E429A6052
S214004DB0024ADA60EEE700BF2C2B0500CF2B050079
S214004DC02DE9F043D0E91557AB6AD7F808901A6872
S214004DD022F00C021A60DA6A42F08202DA625A6A3A
S214004DE04FF0FF3285B0064688465A620024AA8CE9
S214004DF0A3B29A424FEAC40104F1010412D898F80B
S214004E00004064B9DFF85480DFF854907E69274686
S214004E10E98CE3B2E2008B4206EB02000AD305B04F
S214004E20BDE8F08359F80110707821F003010BF00B
S214004E3005FFDCE740F2B533CDE9023943688DF86B
S214004E400070002BCDF8048005DAB058694620F0D3
S214004E5003000EF059FE0134DAE700BF2C2B0500E4
S214004E60B92B050070472DE9F043D0E9123785B01D
S214004E7093F80680009215460DF10E03894600222F
S214004E8041467E6A0446B0472B7883B9BDF80E309B
S214004E90B9F1000F0ED143F40063ADF80E30009563
S214004EA0BDF80E30BD6A002241462046A84705B030
S214004EB0BDE8F08323F40063EFE72DE9F043D0E983
S214004EC0123785B093F8069000238B700B8015463A
S214004ED0009203AB0C46012249467E6A8046B047E4
S214004EE02B78002B4ED10095012203AB4946404655
S214004EF07E6AB0472A78002A44D1BDF80C3058079D
S214004F0040D500950DF10A03494640467E6AB047F3
S214004F102B78002B36D1BDF80A30D90408D49A0471
S214004F2054BF0A226422DB05228023D4012322E018
S214004F30009503AB0422494640467E6AB0472B786C
S214004F4003BB00950DF10E030522494640467E6AD6
S214004F50B0472B78B3B9BDF80E30BDF80C2003F47B
S214004F607873ADF80E301340FF2BADF80C300CD92B
S214004F70642323800223A3703F6A2B4622460C211B
S214004F804046B84705B0BDE8F0837F2B02D96423BE
S214004F902380CBE73F2B4FF00A032380C6D9E9E7EF
S214004FA02DE9FF47D0E91237B1F800A093F8068044
S214004FB0BAF10A0F0446154602D0BAF1640F05D1BD
S214004FC091F8029009F1FF33012B17D900950022C2
S214004FD00DF10E03414620467E6AB0472A7852B944
S214004FE0BDF80E30009543F49053BD6AADF80E3010
S214004FF041462046A84704B0BDE8F08700950DF16D
S2140050000E030022414620467E6AB0472B78002BCE
S214005010F1D1BDF80E20BAF10A0F22F480539BB2EC
S21400502005D0BAF1640F17D0ADF80E3003E022F4C5
S2140050304052ADF80E20BDF80E300095B9F1020FC3
S21400504014BF23F4807343F48073ADF80E30BDF8BC
S2140050500E30BD6A0022CBE743F40053E4E70000BD
S2140050602DE9FF47036E1D78FF2D80460C46D0E9DC
S21400507012A77BD14FF0000900945FFA89F503ABC5
S2140050800222294640467E6AB04723788BB109F152
S2140050900109B9F1200FEFD14D460F2323704B4B7A
S2140050A063604FF41473A360494BE360FFF7E2FAC2
S2140050B023E000940DF10E030322294640467E6A43
S2140050C0B0472378002BE2D1BDF80C301BB143F675
S2140050D0FF72934270D1BDF80E20002AD7D043F657
S2140050E0FF71002B3ED18A42D1D0BDF80E204FF67C
S2140050F0FF739A42CBD01F2DCFD08AF80650237864
S214005100002B51D1009400224FF40043294640461C
S214005110BE6AB0472278002A46D100940DF10E03ED
S214005120294640467E6AB0472378002B3CD1BDF81E
S2140051300E30284A1340ADF80E304FF00309924661
S214005140BDF80E30B3F5004F2BD1B9F1000F10D1DA
S214005150222323701D4B63604FF48F73A3601E4B96
S214005160E36021E08B4222D19A42BDE78AF80650DE
S214005170C8E70220FEF71CFA00940DF10E03002289
S214005180294640467E6AB04723786BB9BDF80E3094
S21400519009F1FF3903EA0A03ADF80E301FFA89F960
S2140051A0CEE7B9F1000FD3D004B0BDE8F0874FF6D4
S2140051B0FF72934299D09EE74FF6FF7293429AD1C0
S2140051C0BDF80E30002B90D161E700BF342C0500EF
S2140051D08D2C05000080FFFF812C05001FB5104BAD
S2140051E01B78012B07D1FCF7F7FDB0B94FF0FF3065
S2140051F005B05DF804FB684600F0F8FA9DF800106C
S2140052000029F3D101206A4600F0C4FF9DF8000093
S214005210003018BF01204042EAE76FF00500E7E7DC
S214005220B5E90620084B187801280AD1074B1B78E9
S214005230012B07D1064B1B78002B14BF032002203E
S21400524070470020704700BFB8EC0620B5E906207E
S214005250ACE906201FB5FCF7BFFD48B9074B1B7825
S214005260012B02D0684600F0D1F94FF0FF3001E084
S2140052706FF0050005B05DF804FB00BFB5E9062039
S21400528030B585B00546FCF7A7FD18B100242046CA
S21400529005B030BDCDB9342021F0E8FB0446002827
S2140052A0F4D00123154980F830306A46204601F0D4
S2140052B0B5FD9DF80030002BE9D094F83030012B76
S2140052C0E4D1204621F0DAFBE0E7AC6874B934207C
S2140052D021F0CCFB04460028D8D0012384F83030D7
S2140052E02968064B002908BF1946DEE7EB68332B12
S2140052F0CCD914F00303F1D0C8E700BF69750500E8
S21400530030B589B005460C46FCF766FDF8B90DB316
S2140053109CB1631C024600D1044604AB00932146B0
S21400532003AB284601F040FC9DF81030222B07D036
S214005330232B00D043B9002004E04FF40042ECE7F2
S2140053406FF0010009B030BD6FF00200FAE76FF0B1
S2140053500500F7E76FF00300F4E71FB50446FCF717
S2140053603BFD014668B97CB16A46204601F092FED4
S2140053709DF800305BB1232B09D06FF0020004B01B
S21400538010BD6FF00500FAE76FF00300F7E70020A6
S214005390F5E730B585B00546FCF71EFD88B9A5B122
S2140053A06A460121284601F0B3FD9DF800407CB90D
S2140053B095F83030012B02D1284621F05FFB2046BD
S2140053C001E06FF0050005B030BD6FF00300FAE7AE
S2140053D06FF00200F7E700007FB504460E4615465C
S2140053E0FCF7FAFC18B10024204604B070BD002C6F
S2140053F0F9D0D5B9302021F039FB04460028F2D088
S2140054000123164980F828306B463246204602F0C3
S214005410EBF99DF80030002BE6D094F82830012BED
S214005420E1D1204621F02AFBDDE7AC6874B93020D4
S21400543021F01CFB04460028D5D0012384F8283030
S2140054402968064B002908BF1946DDE7EB682F2BB5
S214005450C9D914F00303F1D0C5E700BF9E2C0500A0
S21400546030B50C4689B0054618B96FF0030009B090
S21400547030BD89B904AB00934FF4004203AB01F092
S21400548051FF9DF810000028F1D022280CBF6FF0C5
S21400549001006FF00200EAE7FCF79EFC02460028D7
S2140054A0E3D1631C04AB009318BF214603AB08BFCF
S2140054B000212846E3E71FB568B16A46002102F0DE
S2140054C097F89DF80030002B0CBF00206FF002000C
S2140054D005B05DF804FB6FF00300F9E710B504466D
S2140054E020B1FCF769FC246AFCF76AFC204610BD74
S2140054F030B585B00546FCF76FFC88B9A5B16A469D
S2140055000121284602F0D4F99DF800407CB995F8B0
S2140055102830012B02D1284621F0B0FA204601E0BF
S2140055206FF0050005B030BD6FF00300FAE76FF0CE
S2140055300200F7E708B5FCF74FFC30B9044B1B78C0
S214005540012B01D1034B186808BD0020FCE700BF03
S214005550B5E90620CCEC062070471FF011BF00000E
S21400556008B5084B196841B1074B186802F004FDEE
S214005570012802D000201DF085FEBDE808401FF07F
S21400558023BF00BF04440020004400202DE9F04162
S214005590044608B9FFF76EF8FCF71EFC174E184DC8
S2140055A0804638B12023237040F21933C4E902350F
S2140055B06660FEE7134B1B78012B08D0022323708E
S2140055C0666040F21D33C4E90235BDE8F0810E4F37
S2140055D03B78F92B05D91E232370666040F22233F0
S2140055E0F1E7FCF7F0FB3B7801333B70FCF7F1FB8F
S2140055F084F80080666040F22D33E4E7042D050051
S2140056004E2D0500B5E90620ACE9062070B5044627
S21400561008B9FFF72FF8204B1E78012E09D0132368
S21400562023701E4B636040F2F233A3601C4BE360B2
S214005630FEE71C4B1B88022B09D809232370174B47
S214005640636040F2FD33A360154BE360FEE7164D42
S2140056502B784BB11F232370104B63604FF480638D
S214005660A3600F4BE360FEE701F01CFE0F4B104AF1
S2140056701870104B2E7018700C2358430E4B1B5886
S21400568013600E4A136002F03BFA1DF031FDBDE8D0
S2140056907040FEF7EFBF00BFB8EC0620042D0500F3
S2140056A07D2D0500E6EC0620B5E90620BCEC0620BC
S2140056B0D4EC0620C4EC0620B8E90620CCEC062084
S2140056C008B501F0EFFDA0F140035842584108BD6F
S2140056D030B14368C1F8E8308368DB68C36170475F
S2140056E091F83030022B03D0072B05D0034B00E097
S2140056F0034BC1F8E8307047024BFAE7E87905003B
S214005700402D05006D600500044BC1F8E83018B167
S214005710826802B1D368C361704700BFE8790500AC
S2140057200023C0E9003303817047036810B533B91E
S21400573001220281C1E90933016041601CE002894F
S21400574091F833400132028193F83320A2420CD8FC
S2140057505B6A002BF8D14B6243688B625962ECE7B8
S214005760C1E909325162996206E09A6A002AF7D1C5
S214005770C1E909329962016010BDC36A5BB19A68DB
S214005780526A4AB9C3E902221A8A013A1A820023E7
S214005790C0E90933C3627047D0E9092111B99162A3
S2140057A09A60F1E74A620AB9D960EDE79162EBE7E1
S2140057B038B5C46AA3685B6A4BB1FFF7DEFFC46204
S2140057C0014604F10800BDE83840FFF7AEBF38BD1B
S2140057D0054B002203F540711A81C3E900220C3301
S2140057E08B42F9D1704700BFB8E90620F8B50446E9
S2140057F008B9FEF73FFF9A4D6A68D2B12B68994EFA
S2140058004BB923469200296B9748FEF70FFA237888
S21400581030600BB1F8BD3360944B32681A60944A1E
S2140058206B6813609349944A9B0013600A6813449C
S2140058300B602A89B2B123461201296B8F48FEF706
S214005840F5F98F4B18602378002BE3D18D4B8E4AE9
S21400585018602B89138087498C4A1B0113600A68DD
S21400586013440B606A69002A27D02B69884E002BE8
S21400587063D123469200296B8648FEF7D7F9237832
S2140058803060002BC6D1844B2A7E1A70834BEA699F
S2140058901A60834B32681A606B69EA6864215A435F
S2140058A0B2FBF1F27F490A607F4A724913607F4A71
S2140058B09B0013600A6813440B606A6A002A28D0AB
